{
  "_format": "hh-sol-artifact-1",
  "contractName": "ntt54StgyAUSDincome",
  "sourceName": "contracts/ntt54StgyAUSDincome.sol",
  "abi": [
    {
      "inputs": [
        {
          "internalType": "address",
          "name": "_stakingAddress",
          "type": "address"
        }
      ],
      "stateMutability": "nonpayable",
      "type": "constructor"
    },
    {
      "anonymous": false,
      "inputs": [
        {
          "indexed": true,
          "internalType": "address",
          "name": "owner",
          "type": "address"
        },
        {
          "indexed": true,
          "internalType": "address",
          "name": "spender",
          "type": "address"
        },
        {
          "indexed": false,
          "internalType": "uint256",
          "name": "value",
          "type": "uint256"
        }
      ],
      "name": "Approval",
      "type": "event"
    },
    {
      "anonymous": false,
      "inputs": [
        {
          "indexed": true,
          "internalType": "address",
          "name": "from",
          "type": "address"
        },
        {
          "indexed": true,
          "internalType": "address",
          "name": "to",
          "type": "address"
        },
        {
          "indexed": false,
          "internalType": "uint256",
          "name": "value",
          "type": "uint256"
        }
      ],
      "name": "Transfer",
      "type": "event"
    },
    {
      "inputs": [],
      "name": "ACA",
      "outputs": [
        {
          "internalType": "address",
          "name": "",
          "type": "address"
        }
      ],
      "stateMutability": "view",
      "type": "function"
    },
    {
      "inputs": [],
      "name": "AUSD",
      "outputs": [
        {
          "internalType": "address",
          "name": "",
          "type": "address"
        }
      ],
      "stateMutability": "view",
      "type": "function"
    },
    {
      "inputs": [],
      "name": "BNC",
      "outputs": [
        {
          "internalType": "address",
          "name": "",
          "type": "address"
        }
      ],
      "stateMutability": "view",
      "type": "function"
    },
    {
      "inputs": [],
      "name": "CASH",
      "outputs": [
        {
          "internalType": "address",
          "name": "",
          "type": "address"
        }
      ],
      "stateMutability": "view",
      "type": "function"
    },
    {
      "inputs": [],
      "name": "DEX",
      "outputs": [
        {
          "internalType": "address",
          "name": "",
          "type": "address"
        }
      ],
      "stateMutability": "view",
      "type": "function"
    },
    {
      "inputs": [],
      "name": "DOT",
      "outputs": [
        {
          "internalType": "address",
          "name": "",
          "type": "address"
        }
      ],
      "stateMutability": "view",
      "type": "function"
    },
    {
      "inputs": [],
      "name": "EVM",
      "outputs": [
        {
          "internalType": "address",
          "name": "",
          "type": "address"
        }
      ],
      "stateMutability": "view",
      "type": "function"
    },
    {
      "inputs": [],
      "name": "EVMAccounts",
      "outputs": [
        {
          "internalType": "address",
          "name": "",
          "type": "address"
        }
      ],
      "stateMutability": "view",
      "type": "function"
    },
    {
      "inputs": [],
      "name": "Homa",
      "outputs": [
        {
          "internalType": "address",
          "name": "",
          "type": "address"
        }
      ],
      "stateMutability": "view",
      "type": "function"
    },
    {
      "inputs": [],
      "name": "Honzon",
      "outputs": [
        {
          "internalType": "address",
          "name": "",
          "type": "address"
        }
      ],
      "stateMutability": "view",
      "type": "function"
    },
    {
      "inputs": [],
      "name": "KAR",
      "outputs": [
        {
          "internalType": "address",
          "name": "",
          "type": "address"
        }
      ],
      "stateMutability": "view",
      "type": "function"
    },
    {
      "inputs": [],
      "name": "KBTC",
      "outputs": [
        {
          "internalType": "address",
          "name": "",
          "type": "address"
        }
      ],
      "stateMutability": "view",
      "type": "function"
    },
    {
      "inputs": [],
      "name": "KINT",
      "outputs": [
        {
          "internalType": "address",
          "name": "",
          "type": "address"
        }
      ],
      "stateMutability": "view",
      "type": "function"
    },
    {
      "inputs": [],
      "name": "KSM",
      "outputs": [
        {
          "internalType": "address",
          "name": "",
          "type": "address"
        }
      ],
      "stateMutability": "view",
      "type": "function"
    },
    {
      "inputs": [],
      "name": "KUSD",
      "outputs": [
        {
          "internalType": "address",
          "name": "",
          "type": "address"
        }
      ],
      "stateMutability": "view",
      "type": "function"
    },
    {
      "inputs": [],
      "name": "LCDOT",
      "outputs": [
        {
          "internalType": "address",
          "name": "",
          "type": "address"
        }
      ],
      "stateMutability": "view",
      "type": "function"
    },
    {
      "inputs": [],
      "name": "LDOT",
      "outputs": [
        {
          "internalType": "address",
          "name": "",
          "type": "address"
        }
      ],
      "stateMutability": "view",
      "type": "function"
    },
    {
      "inputs": [],
      "name": "LKSM",
      "outputs": [
        {
          "internalType": "address",
          "name": "",
          "type": "address"
        }
      ],
      "stateMutability": "view",
      "type": "function"
    },
    {
      "inputs": [],
      "name": "LPTstake",
      "outputs": [
        {
          "internalType": "contract ntt54StakeDOT",
          "name": "",
          "type": "address"
        }
      ],
      "stateMutability": "view",
      "type": "function"
    },
    {
      "inputs": [],
      "name": "LP_ACA_AUSD",
      "outputs": [
        {
          "internalType": "address",
          "name": "",
          "type": "address"
        }
      ],
      "stateMutability": "view",
      "type": "function"
    },
    {
      "inputs": [],
      "name": "LP_DOT_AUSD",
      "outputs": [
        {
          "internalType": "address",
          "name": "",
          "type": "address"
        }
      ],
      "stateMutability": "view",
      "type": "function"
    },
    {
      "inputs": [],
      "name": "LP_KAR_KUSD",
      "outputs": [
        {
          "internalType": "address",
          "name": "",
          "type": "address"
        }
      ],
      "stateMutability": "view",
      "type": "function"
    },
    {
      "inputs": [],
      "name": "LP_KSM_KUSD",
      "outputs": [
        {
          "internalType": "address",
          "name": "",
          "type": "address"
        }
      ],
      "stateMutability": "view",
      "type": "function"
    },
    {
      "inputs": [],
      "name": "LP_LDOT_AUSD",
      "outputs": [
        {
          "internalType": "address",
          "name": "",
          "type": "address"
        }
      ],
      "stateMutability": "view",
      "type": "function"
    },
    {
      "inputs": [],
      "name": "LP_LKSM_KUSD",
      "outputs": [
        {
          "internalType": "address",
          "name": "",
          "type": "address"
        }
      ],
      "stateMutability": "view",
      "type": "function"
    },
    {
      "inputs": [],
      "name": "LP_RENBTC_AUSD",
      "outputs": [
        {
          "internalType": "address",
          "name": "",
          "type": "address"
        }
      ],
      "stateMutability": "view",
      "type": "function"
    },
    {
      "inputs": [],
      "name": "Oracle",
      "outputs": [
        {
          "internalType": "address",
          "name": "",
          "type": "address"
        }
      ],
      "stateMutability": "view",
      "type": "function"
    },
    {
      "inputs": [],
      "name": "PHA",
      "outputs": [
        {
          "internalType": "address",
          "name": "",
          "type": "address"
        }
      ],
      "stateMutability": "view",
      "type": "function"
    },
    {
      "inputs": [],
      "name": "RENBTC",
      "outputs": [
        {
          "internalType": "address",
          "name": "",
          "type": "address"
        }
      ],
      "stateMutability": "view",
      "type": "function"
    },
    {
      "inputs": [],
      "name": "SC_BALANCE_FEES",
      "outputs": [
        {
          "internalType": "uint256",
          "name": "",
          "type": "uint256"
        }
      ],
      "stateMutability": "view",
      "type": "function"
    },
    {
      "inputs": [],
      "name": "SC_BALANCE_FEES_TARGET",
      "outputs": [
        {
          "internalType": "uint256",
          "name": "",
          "type": "uint256"
        }
      ],
      "stateMutability": "view",
      "type": "function"
    },
    {
      "inputs": [],
      "name": "SC_BALANCE_FEES_THRESHOLD",
      "outputs": [
        {
          "internalType": "uint256",
          "name": "",
          "type": "uint256"
        }
      ],
      "stateMutability": "view",
      "type": "function"
    },
    {
      "inputs": [],
      "name": "Schedule",
      "outputs": [
        {
          "internalType": "address",
          "name": "",
          "type": "address"
        }
      ],
      "stateMutability": "view",
      "type": "function"
    },
    {
      "inputs": [],
      "name": "TAI",
      "outputs": [
        {
          "internalType": "address",
          "name": "",
          "type": "address"
        }
      ],
      "stateMutability": "view",
      "type": "function"
    },
    {
      "inputs": [],
      "name": "TAI_3USD",
      "outputs": [
        {
          "internalType": "address",
          "name": "",
          "type": "address"
        }
      ],
      "stateMutability": "view",
      "type": "function"
    },
    {
      "inputs": [],
      "name": "TAI_DOT",
      "outputs": [
        {
          "internalType": "address",
          "name": "",
          "type": "address"
        }
      ],
      "stateMutability": "view",
      "type": "function"
    },
    {
      "inputs": [],
      "name": "TAI_KSM",
      "outputs": [
        {
          "internalType": "address",
          "name": "",
          "type": "address"
        }
      ],
      "stateMutability": "view",
      "type": "function"
    },
    {
      "inputs": [],
      "name": "VSKSM",
      "outputs": [
        {
          "internalType": "address",
          "name": "",
          "type": "address"
        }
      ],
      "stateMutability": "view",
      "type": "function"
    },
    {
      "inputs": [
        {
          "internalType": "uint256",
          "name": "",
          "type": "uint256"
        }
      ],
      "name": "accountsToRemove",
      "outputs": [
        {
          "internalType": "address",
          "name": "",
          "type": "address"
        }
      ],
      "stateMutability": "view",
      "type": "function"
    },
    {
      "inputs": [],
      "name": "admin",
      "outputs": [
        {
          "internalType": "address",
          "name": "",
          "type": "address"
        }
      ],
      "stateMutability": "view",
      "type": "function"
    },
    {
      "inputs": [
        {
          "internalType": "address",
          "name": "owner",
          "type": "address"
        },
        {
          "internalType": "address",
          "name": "spender",
          "type": "address"
        }
      ],
      "name": "allowance",
      "outputs": [
        {
          "internalType": "uint256",
          "name": "",
          "type": "uint256"
        }
      ],
      "stateMutability": "view",
      "type": "function"
    },
    {
      "inputs": [
        {
          "internalType": "address",
          "name": "spender",
          "type": "address"
        },
        {
          "internalType": "uint256",
          "name": "amount",
          "type": "uint256"
        }
      ],
      "name": "approve",
      "outputs": [
        {
          "internalType": "bool",
          "name": "",
          "type": "bool"
        }
      ],
      "stateMutability": "nonpayable",
      "type": "function"
    },
    {
      "inputs": [
        {
          "internalType": "address",
          "name": "account",
          "type": "address"
        }
      ],
      "name": "balanceOf",
      "outputs": [
        {
          "internalType": "uint256",
          "name": "",
          "type": "uint256"
        }
      ],
      "stateMutability": "view",
      "type": "function"
    },
    {
      "inputs": [],
      "name": "decimals",
      "outputs": [
        {
          "internalType": "uint8",
          "name": "",
          "type": "uint8"
        }
      ],
      "stateMutability": "view",
      "type": "function"
    },
    {
      "inputs": [
        {
          "internalType": "address",
          "name": "spender",
          "type": "address"
        },
        {
          "internalType": "uint256",
          "name": "subtractedValue",
          "type": "uint256"
        }
      ],
      "name": "decreaseAllowance",
      "outputs": [
        {
          "internalType": "bool",
          "name": "",
          "type": "bool"
        }
      ],
      "stateMutability": "nonpayable",
      "type": "function"
    },
    {
      "inputs": [
        {
          "internalType": "uint256",
          "name": "amount",
          "type": "uint256"
        }
      ],
      "name": "depositDOT",
      "outputs": [],
      "stateMutability": "nonpayable",
      "type": "function"
    },
    {
      "inputs": [],
      "name": "epochNumber",
      "outputs": [
        {
          "internalType": "uint256",
          "name": "",
          "type": "uint256"
        }
      ],
      "stateMutability": "view",
      "type": "function"
    },
    {
      "inputs": [],
      "name": "frequency",
      "outputs": [
        {
          "internalType": "uint256",
          "name": "",
          "type": "uint256"
        }
      ],
      "stateMutability": "view",
      "type": "function"
    },
    {
      "inputs": [
        {
          "internalType": "address",
          "name": "spender",
          "type": "address"
        },
        {
          "internalType": "uint256",
          "name": "addedValue",
          "type": "uint256"
        }
      ],
      "name": "increaseAllowance",
      "outputs": [
        {
          "internalType": "bool",
          "name": "",
          "type": "bool"
        }
      ],
      "stateMutability": "nonpayable",
      "type": "function"
    },
    {
      "inputs": [],
      "name": "manageProceeds",
      "outputs": [],
      "stateMutability": "nonpayable",
      "type": "function"
    },
    {
      "inputs": [],
      "name": "managingProceedsState",
      "outputs": [
        {
          "internalType": "bool",
          "name": "",
          "type": "bool"
        }
      ],
      "stateMutability": "view",
      "type": "function"
    },
    {
      "inputs": [],
      "name": "name",
      "outputs": [
        {
          "internalType": "string",
          "name": "",
          "type": "string"
        }
      ],
      "stateMutability": "view",
      "type": "function"
    },
    {
      "inputs": [
        {
          "internalType": "address",
          "name": "",
          "type": "address"
        }
      ],
      "name": "registeredToStakeUserAccounts",
      "outputs": [
        {
          "internalType": "bool",
          "name": "",
          "type": "bool"
        }
      ],
      "stateMutability": "view",
      "type": "function"
    },
    {
      "inputs": [
        {
          "internalType": "address",
          "name": "",
          "type": "address"
        }
      ],
      "name": "registeredToUnStakeUserAccounts",
      "outputs": [
        {
          "internalType": "bool",
          "name": "",
          "type": "bool"
        }
      ],
      "stateMutability": "view",
      "type": "function"
    },
    {
      "inputs": [
        {
          "internalType": "address",
          "name": "",
          "type": "address"
        }
      ],
      "name": "registeredUserAccounts",
      "outputs": [
        {
          "internalType": "bool",
          "name": "",
          "type": "bool"
        }
      ],
      "stateMutability": "view",
      "type": "function"
    },
    {
      "inputs": [
        {
          "internalType": "uint256",
          "name": "amount",
          "type": "uint256"
        }
      ],
      "name": "requestToUnstake",
      "outputs": [],
      "stateMutability": "nonpayable",
      "type": "function"
    },
    {
      "inputs": [],
      "name": "stakeFunds",
      "outputs": [],
      "stateMutability": "nonpayable",
      "type": "function"
    },
    {
      "inputs": [],
      "name": "stakingAddress",
      "outputs": [
        {
          "internalType": "address",
          "name": "",
          "type": "address"
        }
      ],
      "stateMutability": "view",
      "type": "function"
    },
    {
      "inputs": [],
      "name": "startManagingProcees",
      "outputs": [],
      "stateMutability": "nonpayable",
      "type": "function"
    },
    {
      "inputs": [],
      "name": "stopManagingProcees",
      "outputs": [],
      "stateMutability": "nonpayable",
      "type": "function"
    },
    {
      "inputs": [],
      "name": "symbol",
      "outputs": [
        {
          "internalType": "string",
          "name": "",
          "type": "string"
        }
      ],
      "stateMutability": "view",
      "type": "function"
    },
    {
      "inputs": [
        {
          "internalType": "uint256",
          "name": "",
          "type": "uint256"
        }
      ],
      "name": "toStakeUserAccounts",
      "outputs": [
        {
          "internalType": "address",
          "name": "",
          "type": "address"
        }
      ],
      "stateMutability": "view",
      "type": "function"
    },
    {
      "inputs": [
        {
          "internalType": "uint256",
          "name": "",
          "type": "uint256"
        }
      ],
      "name": "toUnStakeUserAccounts",
      "outputs": [
        {
          "internalType": "address",
          "name": "",
          "type": "address"
        }
      ],
      "stateMutability": "view",
      "type": "function"
    },
    {
      "inputs": [],
      "name": "totalACAavailableBalance",
      "outputs": [
        {
          "internalType": "uint256",
          "name": "",
          "type": "uint256"
        }
      ],
      "stateMutability": "view",
      "type": "function"
    },
    {
      "inputs": [],
      "name": "totalAUSDavailableBalance",
      "outputs": [
        {
          "internalType": "uint256",
          "name": "",
          "type": "uint256"
        }
      ],
      "stateMutability": "view",
      "type": "function"
    },
    {
      "inputs": [],
      "name": "totalDOTinAccount",
      "outputs": [
        {
          "internalType": "uint256",
          "name": "",
          "type": "uint256"
        }
      ],
      "stateMutability": "view",
      "type": "function"
    },
    {
      "inputs": [],
      "name": "totalDOTtoUnstake",
      "outputs": [
        {
          "internalType": "uint256",
          "name": "",
          "type": "uint256"
        }
      ],
      "stateMutability": "view",
      "type": "function"
    },
    {
      "inputs": [],
      "name": "totalSupply",
      "outputs": [
        {
          "internalType": "uint256",
          "name": "",
          "type": "uint256"
        }
      ],
      "stateMutability": "view",
      "type": "function"
    },
    {
      "inputs": [],
      "name": "totalTargetAssetBalance",
      "outputs": [
        {
          "internalType": "uint256",
          "name": "",
          "type": "uint256"
        }
      ],
      "stateMutability": "view",
      "type": "function"
    },
    {
      "inputs": [
        {
          "internalType": "address",
          "name": "to",
          "type": "address"
        },
        {
          "internalType": "uint256",
          "name": "amount",
          "type": "uint256"
        }
      ],
      "name": "transfer",
      "outputs": [
        {
          "internalType": "bool",
          "name": "",
          "type": "bool"
        }
      ],
      "stateMutability": "nonpayable",
      "type": "function"
    },
    {
      "inputs": [
        {
          "internalType": "uint256",
          "name": "amount",
          "type": "uint256"
        }
      ],
      "name": "transferFeesBalance",
      "outputs": [],
      "stateMutability": "nonpayable",
      "type": "function"
    },
    {
      "inputs": [
        {
          "internalType": "address",
          "name": "from",
          "type": "address"
        },
        {
          "internalType": "address",
          "name": "to",
          "type": "address"
        },
        {
          "internalType": "uint256",
          "name": "amount",
          "type": "uint256"
        }
      ],
      "name": "transferFrom",
      "outputs": [
        {
          "internalType": "bool",
          "name": "",
          "type": "bool"
        }
      ],
      "stateMutability": "nonpayable",
      "type": "function"
    },
    {
      "inputs": [],
      "name": "unstakeFunds",
      "outputs": [],
      "stateMutability": "nonpayable",
      "type": "function"
    },
    {
      "inputs": [
        {
          "internalType": "uint256",
          "name": "_frequency",
          "type": "uint256"
        }
      ],
      "name": "updateFrequency",
      "outputs": [],
      "stateMutability": "nonpayable",
      "type": "function"
    },
    {
      "inputs": [
        {
          "internalType": "uint256",
          "name": "",
          "type": "uint256"
        }
      ],
      "name": "userAccounts",
      "outputs": [
        {
          "internalType": "address",
          "name": "",
          "type": "address"
        }
      ],
      "stateMutability": "view",
      "type": "function"
    },
    {
      "inputs": [
        {
          "internalType": "address",
          "name": "",
          "type": "address"
        },
        {
          "internalType": "address",
          "name": "",
          "type": "address"
        }
      ],
      "name": "userBalances",
      "outputs": [
        {
          "internalType": "uint256",
          "name": "",
          "type": "uint256"
        }
      ],
      "stateMutability": "view",
      "type": "function"
    },
    {
      "inputs": [
        {
          "internalType": "address",
          "name": "",
          "type": "address"
        }
      ],
      "name": "userUnstakingBalances",
      "outputs": [
        {
          "internalType": "uint256",
          "name": "",
          "type": "uint256"
        }
      ],
      "stateMutability": "view",
      "type": "function"
    }
  ],
  "bytecode": "0x6080604052610803600560006101000a81548173ffffffffffffffffffffffffffffffffffffffff021916908373ffffffffffffffffffffffffffffffffffffffff160217905550610802600660006101000a81548173ffffffffffffffffffffffffffffffffffffffff021916908373ffffffffffffffffffffffffffffffffffffffff1602179055506005600a556001600b60006101000a81548160ff0219169083151502179055506000600e556000601a556000601b556000601c55348015620000cb57600080fd5b50604051620058a7380380620058a78339818101604052810190620000f19190620004f3565b6040518060400160405280600d81526020017f4c702053747261746567792031000000000000000000000000000000000000008152506040518060400160405280600481526020017f535447310000000000000000000000000000000000000000000000000000000081525081600390805190602001906200017592919062000415565b5080600490805190602001906200018e92919062000415565b50505033600d60006101000a81548173ffffffffffffffffffffffffffffffffffffffff021916908373ffffffffffffffffffffffffffffffffffffffff1602179055506a0100000000000000000002600760006101000a81548173ffffffffffffffffffffffffffffffffffffffff021916908373ffffffffffffffffffffffffffffffffffffffff1602179055506a0100000000000000000001600860006101000a81548173ffffffffffffffffffffffffffffffffffffffff021916908373ffffffffffffffffffffffffffffffffffffffff1602179055506a0100000000000000000000600960006101000a81548173ffffffffffffffffffffffffffffffffffffffff021916908373ffffffffffffffffffffffffffffffffffffffff16021790555080600c60006101000a81548173ffffffffffffffffffffffffffffffffffffffff021916908373ffffffffffffffffffffffffffffffffffffffff16021790555080600b60016101000a81548173ffffffffffffffffffffffffffffffffffffffff021916908373ffffffffffffffffffffffffffffffffffffffff160217905550600760009054906101000a900473ffffffffffffffffffffffffffffffffffffffff1673ffffffffffffffffffffffffffffffffffffffff1663095ea7b3827fffffffffffffffffffffffffffffffffffffffffffffffffffffffffffffffff6040518363ffffffff1660e01b8152600401620003b79291906200056d565b602060405180830381600087803b158015620003d257600080fd5b505af1158015620003e7573d6000803e3d6000fd5b505050506040513d601f19601f820116820180604052508101906200040d91906200051f565b50506200067d565b8280546200042390620005e4565b90600052602060002090601f01602090048101928262000447576000855562000493565b82601f106200046257805160ff191683800117855562000493565b8280016001018555821562000493579182015b828111156200049257825182559160200191906001019062000475565b5b509050620004a29190620004a6565b5090565b5b80821115620004c1576000816000905550600101620004a7565b5090565b600081519050620004d68162000649565b92915050565b600081519050620004ed8162000663565b92915050565b6000602082840312156200050657600080fd5b60006200051684828501620004c5565b91505092915050565b6000602082840312156200053257600080fd5b60006200054284828501620004dc565b91505092915050565b62000556816200059a565b82525050565b6200056781620005da565b82525050565b60006040820190506200058460008301856200054b565b6200059360208301846200055c565b9392505050565b6000620005a782620005ba565b9050919050565b60008115159050919050565b600073ffffffffffffffffffffffffffffffffffffffff82169050919050565b6000819050919050565b60006002820490506001821680620005fd57607f821691505b602082108114156200061457620006136200061a565b5b50919050565b7f4e487b7100000000000000000000000000000000000000000000000000000000600052602260045260246000fd5b62000654816200059a565b81146200066057600080fd5b50565b6200066e81620005ae565b81146200067a57600080fd5b50565b61521a806200068d6000396000f3fe608060405234801561001057600080fd5b506004361061045e5760003560e01c806380935aa91161024c578063c5e1246111610146578063e18b7ac5116100c3578063f4145a8311610087578063f4145a8314610d75578063f589b63d14610d93578063f851a44014610db1578063fbc78d9c14610dcf578063fd45892114610dff5761045e565b8063e18b7ac514610cf3578063ead50da314610d11578063ef9c67de14610d2f578063f24a534e14610d39578063f29588c714610d575761045e565b8063d54dc1ab1161010a578063d54dc1ab14610c4b578063d7b4be2414610c69578063d7f269fe14610c87578063d9dc7fcd14610ca5578063dd62ed3e14610cc35761045e565b8063c5e1246114610bb9578063c6bd6a9a14610be9578063c84dd46614610c07578063c86a6f9714610c11578063d2c03d4914610c2f5761045e565b8063a5770a54116101d4578063b5fd3c2d11610198578063b5fd3c2d14610b11578063baae448614610b2f578063bacbd7cc14610b5f578063c30054c014610b7d578063c496981514610b9b5761045e565b8063a5770a5414610a57578063a9059cbb14610a75578063adb5198014610aa5578063b0dadb7b14610ad5578063b3d27bc514610af35761045e565b806392afbebf1161021b57806392afbebf1461099f57806395d89b41146109cf57806399ba0bc2146109ed578063a1b5622614610a09578063a457c2d714610a275761045e565b806380935aa91461092757806380bd60e81461094557806388cd0c33146109635780638fe50737146109815761045e565b80632fd7d1fd1161035d5780634b5edf9c116102e557806365a35a7e116102a957806365a35a7e146108935780636b80a04c1461089d5780636cd83f18146108bb57806370a08231146108d9578063783dc03d146109095761045e565b80634b5edf9c146107ff5780635d499e821461081d5780635e796bf71461083b5780636022c7ab14610845578063616d5058146108635761045e565b806336e029501161032c57806336e029501461075757806339509351146107755780633e1fbbb2146107a557806341da8653146107c35780634260f9f2146107e15761045e565b80632fd7d1fd146106cd578063313ce567146106eb578063332b246c14610709578063351f5f3d146107395761045e565b806318ad37af116103eb5780631fa1f9e8116103af5780631fa1f9e81461062757806323b872dd14610631578063280d106014610661578063280d5b411461067f5780632a0719fa1461069d5761045e565b806318ad37af1461057f57806318dca9ba1461059d57806319550da4146105bb57806319ceb568146105d95780631f927675146106095761045e565b8063095ea7b311610432578063095ea7b3146104d75780630a4cad6b146105075780630bea593a146105255780630e8f60411461054357806318160ddd146105615761045e565b80628db20414610463578063030754d11461047f578063035238471461049d57806306fdde03146104b9575b600080fd5b61047d6004803603810190610478919061411c565b610e1d565b005b61048761132f565b60405161049491906148ee565b60405180910390f35b6104b760048036038101906104b2919061411c565b611335565b005b6104c16115c3565b6040516104ce91906146cc565b60405180910390f35b6104f160048036038101906104ec9190614076565b611655565b6040516104fe9190614696565b60405180910390f35b61050f611678565b60405161051c919061451c565b60405180910390f35b61052d611687565b60405161053a919061451c565b60405180910390f35b61054b611696565b60405161055891906148ee565b60405180910390f35b6105696116a0565b60405161057691906148ee565b60405180910390f35b6105876116aa565b604051610594919061451c565b60405180910390f35b6105a56116b9565b6040516105b2919061451c565b60405180910390f35b6105c36116c8565b6040516105d0919061451c565b60405180910390f35b6105f360048036038101906105ee9190613fc2565b6116d7565b6040516106009190614696565b60405180910390f35b6106116116f7565b60405161061e919061451c565b60405180910390f35b61062f611706565b005b61064b60048036038101906106469190614027565b61206d565b6040516106589190614696565b60405180910390f35b61066961209c565b604051610676919061451c565b60405180910390f35b6106876120ab565b60405161069491906148ee565b60405180910390f35b6106b760048036038101906106b2919061411c565b6120b4565b6040516106c4919061451c565b60405180910390f35b6106d56120f3565b6040516106e2919061451c565b60405180910390f35b6106f3612102565b6040516107009190614909565b60405180910390f35b610723600480360381019061071e9190613fc2565b61210b565b6040516107309190614696565b60405180910390f35b61074161212b565b60405161074e919061451c565b60405180910390f35b61075f612131565b60405161076c919061451c565b60405180910390f35b61078f600480360381019061078a9190614076565b612140565b60405161079c9190614696565b60405180910390f35b6107ad612177565b6040516107ba91906148ee565b60405180910390f35b6107cb612181565b6040516107d8919061451c565b60405180910390f35b6107e9612190565b6040516107f691906146b1565b60405180910390f35b6108076121b6565b6040516108149190614696565b60405180910390f35b6108256121c9565b604051610832919061451c565b60405180910390f35b6108436121d8565b005b61084d61228d565b60405161085a919061451c565b60405180910390f35b61087d6004803603810190610878919061411c565b61229c565b60405161088a919061451c565b60405180910390f35b61089b6122db565b005b6108a561272f565b6040516108b2919061451c565b60405180910390f35b6108c3612735565b6040516108d0919061451c565b60405180910390f35b6108f360048036038101906108ee9190613fc2565b612744565b60405161090091906148ee565b60405180910390f35b61091161278c565b60405161091e919061451c565b60405180910390f35b61092f61279b565b60405161093c919061451c565b60405180910390f35b61094d6127a1565b60405161095a919061451c565b60405180910390f35b61096b6127b0565b60405161097891906148ee565b60405180910390f35b6109896127b6565b60405161099691906148ee565b60405180910390f35b6109b960048036038101906109b49190613fc2565b6127bc565b6040516109c69190614696565b60405180910390f35b6109d76127dc565b6040516109e491906146cc565b60405180910390f35b610a076004803603810190610a02919061411c565b61286e565b005b610a11612878565b604051610a1e919061451c565b60405180910390f35b610a416004803603810190610a3c9190614076565b612887565b604051610a4e9190614696565b60405180910390f35b610a5f6128fe565b604051610a6c919061451c565b60405180910390f35b610a8f6004803603810190610a8a9190614076565b61290d565b604051610a9c9190614696565b60405180910390f35b610abf6004803603810190610aba9190613feb565b612930565b604051610acc91906148ee565b60405180910390f35b610add612955565b604051610aea919061451c565b60405180910390f35b610afb61295b565b604051610b08919061451c565b60405180910390f35b610b1961296a565b604051610b2691906148ee565b60405180910390f35b610b496004803603810190610b44919061411c565b612970565b604051610b56919061451c565b60405180910390f35b610b676129af565b604051610b74919061451c565b60405180910390f35b610b856129be565b604051610b92919061451c565b60405180910390f35b610ba36129cd565b604051610bb0919061451c565b60405180910390f35b610bd36004803603810190610bce9190613fc2565b6129dc565b604051610be091906148ee565b60405180910390f35b610bf16129f4565b604051610bfe919061451c565b60405180910390f35b610c0f6129fa565b005b610c19612aa7565b604051610c2691906148ee565b60405180910390f35b610c496004803603810190610c44919061411c565b612aad565b005b610c53612b62565b604051610c60919061451c565b60405180910390f35b610c71612b71565b604051610c7e919061451c565b60405180910390f35b610c8f612b97565b604051610c9c919061451c565b60405180910390f35b610cad612ba6565b604051610cba919061451c565b60405180910390f35b610cdd6004803603810190610cd89190613feb565b612bac565b604051610cea91906148ee565b60405180910390f35b610cfb612c33565b604051610d08919061451c565b60405180910390f35b610d19612c42565b604051610d2691906148ee565b60405180910390f35b610d37612c48565b005b610d416131e7565b604051610d4e919061451c565b60405180910390f35b610d5f6131ed565b604051610d6c919061451c565b60405180910390f35b610d7d6131fc565b604051610d8a91906148ee565b60405180910390f35b610d9b613202565b604051610da8919061451c565b60405180910390f35b610db9613211565b604051610dc6919061451c565b60405180910390f35b610de96004803603810190610de4919061411c565b613237565b604051610df6919061451c565b60405180910390f35b610e07613276565b604051610e14919061451c565b60405180910390f35b600760009054906101000a900473ffffffffffffffffffffffffffffffffffffffff1673ffffffffffffffffffffffffffffffffffffffff1663dd62ed3e33306040518363ffffffff1660e01b8152600401610e7a929190614537565b60206040518083038186803b158015610e9257600080fd5b505afa158015610ea6573d6000803e3d6000fd5b505050506040513d601f19601f82011682018060405250810190610eca9190614145565b811115610f0c576040517f08c379a0000000000000000000000000000000000000000000000000000000008152600401610f039061488e565b60405180910390fd5b601260003373ffffffffffffffffffffffffffffffffffffffff1673ffffffffffffffffffffffffffffffffffffffff16815260200190815260200160002060009054906101000a900460ff16611019576001601260003373ffffffffffffffffffffffffffffffffffffffff1673ffffffffffffffffffffffffffffffffffffffff16815260200190815260200160002060006101000a81548160ff0219169083151502179055506011339080600181540180825580915050600190039060005260206000200160009091909190916101000a81548173ffffffffffffffffffffffffffffffffffffffff021916908373ffffffffffffffffffffffffffffffffffffffff1602179055505b600760009054906101000a900473ffffffffffffffffffffffffffffffffffffffff1673ffffffffffffffffffffffffffffffffffffffff166323b872dd3330846040518463ffffffff1660e01b815260040161107893929190614560565b602060405180830381600087803b15801561109257600080fd5b505af11580156110a6573d6000803e3d6000fd5b505050506040513d601f19601f820116820180604052508101906110ca91906140b2565b5080601360006a010000000000000000000273ffffffffffffffffffffffffffffffffffffffff1673ffffffffffffffffffffffffffffffffffffffff16815260200190815260200160002060003373ffffffffffffffffffffffffffffffffffffffff1673ffffffffffffffffffffffffffffffffffffffff168152602001908152602001600020600082825461116291906149eb565b925050819055506111733382613285565b80601360003073ffffffffffffffffffffffffffffffffffffffff1673ffffffffffffffffffffffffffffffffffffffff16815260200190815260200160002060003373ffffffffffffffffffffffffffffffffffffffff1673ffffffffffffffffffffffffffffffffffffffff16815260200190815260200160002060008282546111ff91906149eb565b9250508190555080600f600082825461121891906149eb565b92505081905550601560003373ffffffffffffffffffffffffffffffffffffffff1673ffffffffffffffffffffffffffffffffffffffff16815260200190815260200160002060009054906101000a900460ff1661132c576001601560003373ffffffffffffffffffffffffffffffffffffffff1673ffffffffffffffffffffffffffffffffffffffff16815260200190815260200160002060006101000a81548160ff0219169083151502179055506014339080600181540180825580915050600190039060005260206000200160009091909190916101000a81548173ffffffffffffffffffffffffffffffffffffffff021916908373ffffffffffffffffffffffffffffffffffffffff1602179055505b50565b60105481565b6000601860003373ffffffffffffffffffffffffffffffffffffffff1673ffffffffffffffffffffffffffffffffffffffff16815260200190815260200160002054601360003073ffffffffffffffffffffffffffffffffffffffff1673ffffffffffffffffffffffffffffffffffffffff16815260200190815260200160002060003373ffffffffffffffffffffffffffffffffffffffff1673ffffffffffffffffffffffffffffffffffffffff168152602001908152602001600020546113fe9190614acc565b905080821115611443576040517f08c379a000000000000000000000000000000000000000000000000000000000815260040161143a9061476e565b60405180910390fd5b601760003373ffffffffffffffffffffffffffffffffffffffff1673ffffffffffffffffffffffffffffffffffffffff16815260200190815260200160002060009054906101000a900460ff16611550576001601760003373ffffffffffffffffffffffffffffffffffffffff1673ffffffffffffffffffffffffffffffffffffffff16815260200190815260200160002060006101000a81548160ff0219169083151502179055506016339080600181540180825580915050600190039060005260206000200160009091909190916101000a81548173ffffffffffffffffffffffffffffffffffffffff021916908373ffffffffffffffffffffffffffffffffffffffff1602179055505b81601860003373ffffffffffffffffffffffffffffffffffffffff1673ffffffffffffffffffffffffffffffffffffffff168152602001908152602001600020600082825461159f91906149eb565b9250508190555081601060008282546115b891906149eb565b925050819055505050565b6060600380546115d290614bf4565b80601f01602080910402602001604051908101604052809291908181526020018280546115fe90614bf4565b801561164b5780601f106116205761010080835404028352916020019161164b565b820191906000526020600020905b81548152906001019060200180831161162e57829003601f168201915b5050505050905090565b6000806116606133e5565b905061166d8185856133ed565b600191505092915050565b6a020000000002000000000181565b6a040000000000000000000d81565b6501d1a94a200081565b6000600254905090565b6a010000000000000000008181565b6a020000000014000000000181565b6a01000000000000000000ac81565b60176020528060005260406000206000915054906101000a900460ff1681565b6a010000000000000000008381565b3073ffffffffffffffffffffffffffffffffffffffff163373ffffffffffffffffffffffffffffffffffffffff16148061178d5750600d60009054906101000a900473ffffffffffffffffffffffffffffffffffffffff1673ffffffffffffffffffffffffffffffffffffffff163373ffffffffffffffffffffffffffffffffffffffff16145b6117cc576040517f08c379a00000000000000000000000000000000000000000000000000000000081526004016117c3906147ee565b60405180910390fd5b600b60009054906101000a900460ff161561206b57600860009054906101000a900473ffffffffffffffffffffffffffffffffffffffff1673ffffffffffffffffffffffffffffffffffffffff166370a08231306040518263ffffffff1660e01b815260040161183c919061451c565b60206040518083038186803b15801561185457600080fd5b505afa158015611868573d6000803e3d6000fd5b505050506040513d601f19601f8201168201806040525081019061188c9190614145565b601b81905550600960009054906101000a900473ffffffffffffffffffffffffffffffffffffffff1673ffffffffffffffffffffffffffffffffffffffff166370a08231306040518263ffffffff1660e01b81526004016118ed919061451c565b60206040518083038186803b15801561190557600080fd5b505afa158015611919573d6000803e3d6000fd5b505050506040513d601f19601f8201168201806040525081019061193d9190614145565b601a8190555060008060118054905011801561195b57506000601b54115b801561196d575064e8d4a51000601a54115b15611f12576000600267ffffffffffffffff8111156119b5577f4e487b7100000000000000000000000000000000000000000000000000000000600052604160045260246000fd5b6040519080825280602002602001820160405280156119e35781602001602082028036833780820191505090505b5090506a010000000000000000000181600081518110611a2c577f4e487b7100000000000000000000000000000000000000000000000000000000600052603260045260246000fd5b602002602001019073ffffffffffffffffffffffffffffffffffffffff16908173ffffffffffffffffffffffffffffffffffffffff16815250506a010000000000000000000081600181518110611aac577f4e487b7100000000000000000000000000000000000000000000000000000000600052603260045260246000fd5b602002602001019073ffffffffffffffffffffffffffffffffffffffff16908173ffffffffffffffffffffffffffffffffffffffff16815250506000600560009054906101000a900473ffffffffffffffffffffffffffffffffffffffff1673ffffffffffffffffffffffffffffffffffffffff16634d60beb183601b546040518363ffffffff1660e01b8152600401611b47929190614628565b60206040518083038186803b158015611b5f57600080fd5b505afa158015611b73573d6000803e3d6000fd5b505050506040513d601f19601f82011682018060405250810190611b979190614145565b9050600560009054906101000a900473ffffffffffffffffffffffffffffffffffffffff1673ffffffffffffffffffffffffffffffffffffffff16636fc4b4e583601b5460016040518463ffffffff1660e01b8152600401611bfb93929190614658565b602060405180830381600087803b158015611c1557600080fd5b505af1158015611c29573d6000803e3d6000fd5b505050506040513d601f19601f82011682018060405250810190611c4d91906140b2565b611c8c576040517f08c379a0000000000000000000000000000000000000000000000000000000008152600401611c83906147ae565b60405180910390fd5b6501d1a94a2000601a541015611cdb576000601a546502ba7def3000611cb29190614acc565b9050808211611cc2576000611ccf565b8082611cce9190614acc565b5b601c8190555050611ce3565b80601c819055505b6001600e6000828254611cf691906149eb565b925050819055506000601c541115611f0f5760005b601180549050811015611f0d5760006001601180549050611d2c9190614acc565b821015611dd457611d3b6116a0565b601c54611dab60118581548110611d7b577f4e487b7100000000000000000000000000000000000000000000000000000000600052603260045260246000fd5b9060005260206000200160009054906101000a900473ffffffffffffffffffffffffffffffffffffffff16612744565b611db59190614a72565b611dbf9190614a41565b90508085611dcd91906149eb565b9450611de5565b84601c54611de29190614acc565b90505b600960009054906101000a900473ffffffffffffffffffffffffffffffffffffffff1673ffffffffffffffffffffffffffffffffffffffff1663a9059cbb60118481548110611e5d577f4e487b7100000000000000000000000000000000000000000000000000000000600052603260045260246000fd5b9060005260206000200160009054906101000a900473ffffffffffffffffffffffffffffffffffffffff16836040518363ffffffff1660e01b8152600401611ea69291906145ff565b602060405180830381600087803b158015611ec057600080fd5b505af1158015611ed4573d6000803e3d6000fd5b505050506040513d601f19601f82011682018060405250810190611ef891906140b2565b50508080611f0590614c57565b915050611d0b565b505b50505b611f1a6122db565b611f22612c48565b600660009054906101000a900473ffffffffffffffffffffffffffffffffffffffff1673ffffffffffffffffffffffffffffffffffffffff1663168d560d306000620f4240611388600a546040516024016040516020818303038152906040527f1fa1f9e8000000000000000000000000000000000000000000000000000000007bffffffffffffffffffffffffffffffffffffffffffffffffffffffff19166020820180517bffffffffffffffffffffffffffffffffffffffffffffffffffffffff83818316178352505050506040518763ffffffff1660e01b815260040161201196959493929190614597565b600060405180830381600087803b15801561202b57600080fd5b505af115801561203f573d6000803e3d6000fd5b505050506040513d6000823e3d601f19601f8201168201806040525081019061206891906140db565b50505b565b6000806120786133e5565b90506120858582856135b8565b612090858585613644565b60019150509392505050565b6a030000000000000000000081565b64e8d4a5100081565b601681815481106120c457600080fd5b906000526020600020016000915054906101000a900473ffffffffffffffffffffffffffffffffffffffff1681565b6a010000000000000000000181565b60006012905090565b60156020528060005260406000206000915054906101000a900460ff1681565b61080581565b6a010000000000000000000281565b60008061214b6133e5565b905061216c81858561215d8589612bac565b61216791906149eb565b6133ed565b600191505092915050565b6502ba7def300081565b6a030000000000000000000081565b600b60019054906101000a900473ffffffffffffffffffffffffffffffffffffffff1681565b600b60009054906101000a900460ff1681565b6a020000000082000000008181565b600d60009054906101000a900473ffffffffffffffffffffffffffffffffffffffff1673ffffffffffffffffffffffffffffffffffffffff163373ffffffffffffffffffffffffffffffffffffffff1614612268576040517f08c379a000000000000000000000000000000000000000000000000000000000815260040161225f906147ce565b60405180910390fd5b612270611706565b6001600b60006101000a81548160ff021916908315150217905550565b6a010000000000000000000381565b601181815481106122ac57600080fd5b906000526020600020016000915054906101000a900473ffffffffffffffffffffffffffffffffffffffff1681565b60006014805490501180156122f257506000600f54115b1561272d57600b60019054906101000a900473ffffffffffffffffffffffffffffffffffffffff1673ffffffffffffffffffffffffffffffffffffffff16628db204600f546040518263ffffffff1660e01b815260040161235391906148ee565b600060405180830381600087803b15801561236d57600080fd5b505af1158015612381573d6000803e3d6000fd5b5050505060005b60148054905081101561269d57601360006a010000000000000000000273ffffffffffffffffffffffffffffffffffffffff1673ffffffffffffffffffffffffffffffffffffffff16815260200190815260200160002060006014838154811061241b577f4e487b7100000000000000000000000000000000000000000000000000000000600052603260045260246000fd5b9060005260206000200160009054906101000a900473ffffffffffffffffffffffffffffffffffffffff1673ffffffffffffffffffffffffffffffffffffffff1673ffffffffffffffffffffffffffffffffffffffff1681526020019081526020016000205460136000600c60009054906101000a900473ffffffffffffffffffffffffffffffffffffffff1673ffffffffffffffffffffffffffffffffffffffff1673ffffffffffffffffffffffffffffffffffffffff16815260200190815260200160002060006014848154811061251e577f4e487b7100000000000000000000000000000000000000000000000000000000600052603260045260246000fd5b9060005260206000200160009054906101000a900473ffffffffffffffffffffffffffffffffffffffff1673ffffffffffffffffffffffffffffffffffffffff1673ffffffffffffffffffffffffffffffffffffffff168152602001908152602001600020600082825461259291906149eb565b925050819055506000601360006a010000000000000000000273ffffffffffffffffffffffffffffffffffffffff1673ffffffffffffffffffffffffffffffffffffffff168152602001908152602001600020600060148481548110612621577f4e487b7100000000000000000000000000000000000000000000000000000000600052603260045260246000fd5b9060005260206000200160009054906101000a900473ffffffffffffffffffffffffffffffffffffffff1673ffffffffffffffffffffffffffffffffffffffff1673ffffffffffffffffffffffffffffffffffffffff16815260200190815260200160002081905550808061269590614c57565b915050612388565b50600067ffffffffffffffff8111156126df577f4e487b7100000000000000000000000000000000000000000000000000000000600052604160045260246000fd5b60405190808252806020026020018201604052801561270d5781602001602082028036833780820191505090505b5060149080519060200190612723929190613e5f565b506000600f819055505b565b61080681565b6a01000000000000000000aa81565b60008060008373ffffffffffffffffffffffffffffffffffffffff1673ffffffffffffffffffffffffffffffffffffffff168152602001908152602001600020549050919050565b6a010000000000000000008481565b61080381565b6a020000000080000000008181565b601c5481565b600f5481565b60126020528060005260406000206000915054906101000a900460ff1681565b6060600480546127eb90614bf4565b80601f016020809104026020016040519081016040528092919081815260200182805461281790614bf4565b80156128645780601f1061283957610100808354040283529160200191612864565b820191906000526020600020905b81548152906001019060200180831161284757829003601f168201915b5050505050905090565b80600a8190555050565b6a010000000000000000000081565b6000806128926133e5565b905060006128a08286612bac565b9050838110156128e5576040517f08c379a00000000000000000000000000000000000000000000000000000000081526004016128dc906148ae565b60405180910390fd5b6128f282868684036133ed565b60019250505092915050565b6a020000000000000000000181565b6000806129186133e5565b9050612925818585613644565b600191505092915050565b6013602052816000526040600020602052806000526040600020600091509150505481565b61080281565b6a010000000000000000008081565b601b5481565b6014818154811061298057600080fd5b906000526020600020016000915054906101000a900473ffffffffffffffffffffffffffffffffffffffff1681565b6a020000000083000000008181565b6a010000000000000000008281565b6a010000000000000000001581565b60186020528060005260406000206000915090505481565b61080781565b600d60009054906101000a900473ffffffffffffffffffffffffffffffffffffffff1673ffffffffffffffffffffffffffffffffffffffff163373ffffffffffffffffffffffffffffffffffffffff1614612a8a576040517f08c379a0000000000000000000000000000000000000000000000000000000008152600401612a81906147ce565b60405180910390fd5b6000600b60006101000a81548160ff021916908315150217905550565b601a5481565b600960009054906101000a900473ffffffffffffffffffffffffffffffffffffffff1673ffffffffffffffffffffffffffffffffffffffff166323b872dd3330846040518463ffffffff1660e01b8152600401612b0c93929190614560565b602060405180830381600087803b158015612b2657600080fd5b505af1158015612b3a573d6000803e3d6000fd5b505050506040513d601f19601f82011682018060405250810190612b5e91906140b2565b5050565b6a01000000000000000000ab81565b600c60009054906101000a900473ffffffffffffffffffffffffffffffffffffffff1681565b6a010000000000000000001481565b61080081565b6000600160008473ffffffffffffffffffffffffffffffffffffffff1673ffffffffffffffffffffffffffffffffffffffff16815260200190815260200160002060008373ffffffffffffffffffffffffffffffffffffffff1673ffffffffffffffffffffffffffffffffffffffff16815260200190815260200160002054905092915050565b6a020000000003000000000181565b600a5481565b6000601680549050118015612c5f57506000601054115b156131e557600b60019054906101000a900473ffffffffffffffffffffffffffffffffffffffff1673ffffffffffffffffffffffffffffffffffffffff1663d58e49d66010546040518263ffffffff1660e01b8152600401612cc191906148ee565b600060405180830381600087803b158015612cdb57600080fd5b505af1158015612cef573d6000803e3d6000fd5b5050505060005b60168054905081101561314d57600060168281548110612d3f577f4e487b7100000000000000000000000000000000000000000000000000000000600052603260045260246000fd5b9060005260206000200160009054906101000a900473ffffffffffffffffffffffffffffffffffffffff1690506000601860008373ffffffffffffffffffffffffffffffffffffffff1673ffffffffffffffffffffffffffffffffffffffff1681526020019081526020016000205490508060136000600c60009054906101000a900473ffffffffffffffffffffffffffffffffffffffff1673ffffffffffffffffffffffffffffffffffffffff1673ffffffffffffffffffffffffffffffffffffffff16815260200190815260200160002060008473ffffffffffffffffffffffffffffffffffffffff1673ffffffffffffffffffffffffffffffffffffffff1681526020019081526020016000206000828254612e5e9190614acc565b92505081905550612e6f82826138c5565b80601360003073ffffffffffffffffffffffffffffffffffffffff1673ffffffffffffffffffffffffffffffffffffffff16815260200190815260200160002060008473ffffffffffffffffffffffffffffffffffffffff1673ffffffffffffffffffffffffffffffffffffffff1681526020019081526020016000206000828254612efb9190614acc565b925050819055506000601360003073ffffffffffffffffffffffffffffffffffffffff1673ffffffffffffffffffffffffffffffffffffffff16815260200190815260200160002060008473ffffffffffffffffffffffffffffffffffffffff1673ffffffffffffffffffffffffffffffffffffffff168152602001908152602001600020541415612feb576019829080600181540180825580915050600190039060005260206000200160009091909190916101000a81548173ffffffffffffffffffffffffffffffffffffffff021916908373ffffffffffffffffffffffffffffffffffffffff1602179055505b600760009054906101000a900473ffffffffffffffffffffffffffffffffffffffff1673ffffffffffffffffffffffffffffffffffffffff1663a9059cbb83836040518363ffffffff1660e01b81526004016130489291906145ff565b602060405180830381600087803b15801561306257600080fd5b505af1158015613076573d6000803e3d6000fd5b505050506040513d601f19601f8201168201806040525081019061309a91906140b2565b506000601760008473ffffffffffffffffffffffffffffffffffffffff1673ffffffffffffffffffffffffffffffffffffffff16815260200190815260200160002060006101000a81548160ff0219169083151502179055506000601860008473ffffffffffffffffffffffffffffffffffffffff1673ffffffffffffffffffffffffffffffffffffffff168152602001908152602001600020819055505050808061314590614c57565b915050612cf6565b50600067ffffffffffffffff81111561318f577f4e487b7100000000000000000000000000000000000000000000000000000000600052604160045260246000fd5b6040519080825280602002602001820160405280156131bd5781602001602082028036833780820191505090505b50601690805190602001906131d3929190613e5f565b5060006010819055506131e4613a9c565b5b565b61080181565b6a01000000000000000000a881565b600e5481565b6a030000000000000000000181565b600d60009054906101000a900473ffffffffffffffffffffffffffffffffffffffff1681565b6019818154811061324757600080fd5b906000526020600020016000915054906101000a900473ffffffffffffffffffffffffffffffffffffffff1681565b6a01000000000000000000a981565b600073ffffffffffffffffffffffffffffffffffffffff168273ffffffffffffffffffffffffffffffffffffffff1614156132f5576040517f08c379a00000000000000000000000000000000000000000000000000000000081526004016132ec906148ce565b60405180910390fd5b61330160008383613e55565b806002600082825461331391906149eb565b92505081905550806000808473ffffffffffffffffffffffffffffffffffffffff1673ffffffffffffffffffffffffffffffffffffffff168152602001908152602001600020600082825461336891906149eb565b925050819055508173ffffffffffffffffffffffffffffffffffffffff16600073ffffffffffffffffffffffffffffffffffffffff167fddf252ad1be2c89b69c2b068fc378daa952ba7f163c4a11628f55a4df523b3ef836040516133cd91906148ee565b60405180910390a36133e160008383613e5a565b5050565b600033905090565b600073ffffffffffffffffffffffffffffffffffffffff168373ffffffffffffffffffffffffffffffffffffffff16141561345d576040517f08c379a00000000000000000000000000000000000000000000000000000000081526004016134549061484e565b60405180910390fd5b600073ffffffffffffffffffffffffffffffffffffffff168273ffffffffffffffffffffffffffffffffffffffff1614156134cd576040517f08c379a00000000000000000000000000000000000000000000000000000000081526004016134c49061472e565b60405180910390fd5b80600160008573ffffffffffffffffffffffffffffffffffffffff1673ffffffffffffffffffffffffffffffffffffffff16815260200190815260200160002060008473ffffffffffffffffffffffffffffffffffffffff1673ffffffffffffffffffffffffffffffffffffffff168152602001908152602001600020819055508173ffffffffffffffffffffffffffffffffffffffff168373ffffffffffffffffffffffffffffffffffffffff167f8c5be1e5ebec7d5bd14f71427d1e84f3dd0314c0f7b2291e5b200ac8c7c3b925836040516135ab91906148ee565b60405180910390a3505050565b60006135c48484612bac565b90507fffffffffffffffffffffffffffffffffffffffffffffffffffffffffffffffff811461363e5781811015613630576040517f08c379a00000000000000000000000000000000000000000000000000000000081526004016136279061474e565b60405180910390fd5b61363d84848484036133ed565b5b50505050565b600073ffffffffffffffffffffffffffffffffffffffff168373ffffffffffffffffffffffffffffffffffffffff1614156136b4576040517f08c379a00000000000000000000000000000000000000000000000000000000081526004016136ab9061482e565b60405180910390fd5b600073ffffffffffffffffffffffffffffffffffffffff168273ffffffffffffffffffffffffffffffffffffffff161415613724576040517f08c379a000000000000000000000000000000000000000000000000000000000815260040161371b906146ee565b60405180910390fd5b61372f838383613e55565b60008060008573ffffffffffffffffffffffffffffffffffffffff1673ffffffffffffffffffffffffffffffffffffffff168152602001908152602001600020549050818110156137b5576040517f08c379a00000000000000000000000000000000000000000000000000000000081526004016137ac9061478e565b60405180910390fd5b8181036000808673ffffffffffffffffffffffffffffffffffffffff1673ffffffffffffffffffffffffffffffffffffffff16815260200190815260200160002081905550816000808573ffffffffffffffffffffffffffffffffffffffff1673ffffffffffffffffffffffffffffffffffffffff168152602001908152602001600020600082825461384891906149eb565b925050819055508273ffffffffffffffffffffffffffffffffffffffff168473ffffffffffffffffffffffffffffffffffffffff167fddf252ad1be2c89b69c2b068fc378daa952ba7f163c4a11628f55a4df523b3ef846040516138ac91906148ee565b60405180910390a36138bf848484613e5a565b50505050565b600073ffffffffffffffffffffffffffffffffffffffff168273ffffffffffffffffffffffffffffffffffffffff161415613935576040517f08c379a000000000000000000000000000000000000000000000000000000000815260040161392c9061480e565b60405180910390fd5b61394182600083613e55565b60008060008473ffffffffffffffffffffffffffffffffffffffff1673ffffffffffffffffffffffffffffffffffffffff168152602001908152602001600020549050818110156139c7576040517f08c379a00000000000000000000000000000000000000000000000000000000081526004016139be9061470e565b60405180910390fd5b8181036000808573ffffffffffffffffffffffffffffffffffffffff1673ffffffffffffffffffffffffffffffffffffffff168152602001908152602001600020819055508160026000828254613a1e9190614acc565b92505081905550600073ffffffffffffffffffffffffffffffffffffffff168373ffffffffffffffffffffffffffffffffffffffff167fddf252ad1be2c89b69c2b068fc378daa952ba7f163c4a11628f55a4df523b3ef84604051613a8391906148ee565b60405180910390a3613a9783600084613e5a565b505050565b600060198054905011613ae4576040517f08c379a0000000000000000000000000000000000000000000000000000000008152600401613adb9061486e565b60405180910390fd5b60005b601980549050811015613e525760006001601180549050613b089190614acc565b905060005b818111613e3d5760118181548110613b4e577f4e487b7100000000000000000000000000000000000000000000000000000000600052603260045260246000fd5b9060005260206000200160009054906101000a900473ffffffffffffffffffffffffffffffffffffffff1673ffffffffffffffffffffffffffffffffffffffff1660198481548110613bc9577f4e487b7100000000000000000000000000000000000000000000000000000000600052603260045260246000fd5b9060005260206000200160009054906101000a900473ffffffffffffffffffffffffffffffffffffffff1673ffffffffffffffffffffffffffffffffffffffff161415613e2a5781811015613d005760118281548110613c52577f4e487b7100000000000000000000000000000000000000000000000000000000600052603260045260246000fd5b9060005260206000200160009054906101000a900473ffffffffffffffffffffffffffffffffffffffff1660118281548110613cb7577f4e487b7100000000000000000000000000000000000000000000000000000000600052603260045260246000fd5b9060005260206000200160006101000a81548173ffffffffffffffffffffffffffffffffffffffff021916908373ffffffffffffffffffffffffffffffffffffffff1602179055505b6011805480613d38577f4e487b7100000000000000000000000000000000000000000000000000000000600052603160045260246000fd5b6001900381819060005260206000200160006101000a81549073ffffffffffffffffffffffffffffffffffffffff0219169055905560006012600060198681548110613dad577f4e487b7100000000000000000000000000000000000000000000000000000000600052603260045260246000fd5b9060005260206000200160009054906101000a900473ffffffffffffffffffffffffffffffffffffffff1673ffffffffffffffffffffffffffffffffffffffff1673ffffffffffffffffffffffffffffffffffffffff16815260200190815260200160002060006101000a81548160ff0219169083151502179055505b8080613e3590614c57565b915050613b0d565b50508080613e4a90614c57565b915050613ae7565b50565b505050565b505050565b828054828255906000526020600020908101928215613ed8579160200282015b82811115613ed75782518260006101000a81548173ffffffffffffffffffffffffffffffffffffffff021916908373ffffffffffffffffffffffffffffffffffffffff16021790555091602001919060010190613e7f565b5b509050613ee59190613ee9565b5090565b5b80821115613f02576000816000905550600101613eea565b5090565b6000613f19613f1484614949565b614924565b905082815260208101848484011115613f3157600080fd5b613f3c848285614bc1565b509392505050565b600081359050613f538161519f565b92915050565b600081519050613f68816151b6565b92915050565b600082601f830112613f7f57600080fd5b8151613f8f848260208601613f06565b91505092915050565b600081359050613fa7816151cd565b92915050565b600081519050613fbc816151cd565b92915050565b600060208284031215613fd457600080fd5b6000613fe284828501613f44565b91505092915050565b60008060408385031215613ffe57600080fd5b600061400c85828601613f44565b925050602061401d85828601613f44565b9150509250929050565b60008060006060848603121561403c57600080fd5b600061404a86828701613f44565b935050602061405b86828701613f44565b925050604061406c86828701613f98565b9150509250925092565b6000806040838503121561408957600080fd5b600061409785828601613f44565b92505060206140a885828601613f98565b9150509250929050565b6000602082840312156140c457600080fd5b60006140d284828501613f59565b91505092915050565b6000602082840312156140ed57600080fd5b600082015167ffffffffffffffff81111561410757600080fd5b61411384828501613f6e565b91505092915050565b60006020828403121561412e57600080fd5b600061413c84828501613f98565b91505092915050565b60006020828403121561415757600080fd5b600061416584828501613fad565b91505092915050565b600061417a8383614186565b60208301905092915050565b61418f81614b00565b82525050565b61419e81614b00565b82525050565b60006141af8261498a565b6141b981856149b8565b93506141c48361497a565b8060005b838110156141f55781516141dc888261416e565b97506141e7836149ab565b9250506001810190506141c8565b5085935050505092915050565b61420b81614b12565b82525050565b600061421c82614995565b61422681856149c9565b9350614236818560208601614bc1565b61423f81614d5c565b840191505092915050565b61425381614b55565b82525050565b61426281614b79565b82525050565b61427181614b8b565b82525050565b61428081614b9d565b82525050565b61428f81614baf565b82525050565b60006142a0826149a0565b6142aa81856149da565b93506142ba818560208601614bc1565b6142c381614d5c565b840191505092915050565b60006142db6023836149da565b91506142e682614d6d565b604082019050919050565b60006142fe6022836149da565b915061430982614dbc565b604082019050919050565b60006143216022836149da565b915061432c82614e0b565b604082019050919050565b6000614344601d836149da565b915061434f82614e5a565b602082019050919050565b60006143676025836149da565b915061437282614e83565b604082019050919050565b600061438a6026836149da565b915061439582614ed2565b604082019050919050565b60006143ad6022836149da565b91506143b882614f21565b604082019050919050565b60006143d06015836149da565b91506143db82614f70565b602082019050919050565b60006143f36020836149da565b91506143fe82614f99565b602082019050919050565b60006144166021836149da565b915061442182614fc2565b604082019050919050565b60006144396025836149da565b915061444482615011565b604082019050919050565b600061445c6024836149da565b915061446782615060565b604082019050919050565b600061447f6015836149da565b915061448a826150af565b602082019050919050565b60006144a26022836149da565b91506144ad826150d8565b604082019050919050565b60006144c56025836149da565b91506144d082615127565b604082019050919050565b60006144e8601f836149da565b91506144f382615176565b602082019050919050565b61450781614b3e565b82525050565b61451681614b48565b82525050565b60006020820190506145316000830184614195565b92915050565b600060408201905061454c6000830185614195565b6145596020830184614195565b9392505050565b60006060820190506145756000830186614195565b6145826020830185614195565b61458f60408301846144fe565b949350505050565b600060c0820190506145ac6000830189614195565b6145b96020830188614259565b6145c66040830187614268565b6145d36060830186614286565b6145e060808301856144fe565b81810360a08301526145f28184614211565b9050979650505050505050565b60006040820190506146146000830185614195565b61462160208301846144fe565b9392505050565b6000604082019050818103600083015261464281856141a4565b905061465160208301846144fe565b9392505050565b6000606082019050818103600083015261467281866141a4565b905061468160208301856144fe565b61468e6040830184614277565b949350505050565b60006020820190506146ab6000830184614202565b92915050565b60006020820190506146c6600083018461424a565b92915050565b600060208201905081810360008301526146e68184614295565b905092915050565b60006020820190508181036000830152614707816142ce565b9050919050565b60006020820190508181036000830152614727816142f1565b9050919050565b6000602082019050818103600083015261474781614314565b9050919050565b6000602082019050818103600083015261476781614337565b9050919050565b600060208201905081810360008301526147878161435a565b9050919050565b600060208201905081810360008301526147a78161437d565b9050919050565b600060208201905081810360008301526147c7816143a0565b9050919050565b600060208201905081810360008301526147e7816143c3565b9050919050565b60006020820190508181036000830152614807816143e6565b9050919050565b6000602082019050818103600083015261482781614409565b9050919050565b600060208201905081810360008301526148478161442c565b9050919050565b600060208201905081810360008301526148678161444f565b9050919050565b6000602082019050818103600083015261488781614472565b9050919050565b600060208201905081810360008301526148a781614495565b9050919050565b600060208201905081810360008301526148c7816144b8565b9050919050565b600060208201905081810360008301526148e7816144db565b9050919050565b600060208201905061490360008301846144fe565b92915050565b600060208201905061491e600083018461450d565b92915050565b600061492e61493f565b905061493a8282614c26565b919050565b6000604051905090565b600067ffffffffffffffff82111561496457614963614d2d565b5b61496d82614d5c565b9050602081019050919050565b6000819050602082019050919050565b600081519050919050565b600081519050919050565b600081519050919050565b6000602082019050919050565b600082825260208201905092915050565b600082825260208201905092915050565b600082825260208201905092915050565b60006149f682614b3e565b9150614a0183614b3e565b9250827fffffffffffffffffffffffffffffffffffffffffffffffffffffffffffffffff03821115614a3657614a35614ca0565b5b828201905092915050565b6000614a4c82614b3e565b9150614a5783614b3e565b925082614a6757614a66614ccf565b5b828204905092915050565b6000614a7d82614b3e565b9150614a8883614b3e565b9250817fffffffffffffffffffffffffffffffffffffffffffffffffffffffffffffffff0483118215151615614ac157614ac0614ca0565b5b828202905092915050565b6000614ad782614b3e565b9150614ae283614b3e565b925082821015614af557614af4614ca0565b5b828203905092915050565b6000614b0b82614b1e565b9050919050565b60008115159050919050565b600073ffffffffffffffffffffffffffffffffffffffff82169050919050565b6000819050919050565b600060ff82169050919050565b6000614b6082614b67565b9050919050565b6000614b7282614b1e565b9050919050565b6000614b8482614b3e565b9050919050565b6000614b9682614b3e565b9050919050565b6000614ba882614b3e565b9050919050565b6000614bba82614b3e565b9050919050565b60005b83811015614bdf578082015181840152602081019050614bc4565b83811115614bee576000848401525b50505050565b60006002820490506001821680614c0c57607f821691505b60208210811415614c2057614c1f614cfe565b5b50919050565b614c2f82614d5c565b810181811067ffffffffffffffff82111715614c4e57614c4d614d2d565b5b80604052505050565b6000614c6282614b3e565b91507fffffffffffffffffffffffffffffffffffffffffffffffffffffffffffffffff821415614c9557614c94614ca0565b5b600182019050919050565b7f4e487b7100000000000000000000000000000000000000000000000000000000600052601160045260246000fd5b7f4e487b7100000000000000000000000000000000000000000000000000000000600052601260045260246000fd5b7f4e487b7100000000000000000000000000000000000000000000000000000000600052602260045260246000fd5b7f4e487b7100000000000000000000000000000000000000000000000000000000600052604160045260246000fd5b6000601f19601f8301169050919050565b7f45524332303a207472616e7366657220746f20746865207a65726f206164647260008201527f6573730000000000000000000000000000000000000000000000000000000000602082015250565b7f45524332303a206275726e20616d6f756e7420657863656564732062616c616e60008201527f6365000000000000000000000000000000000000000000000000000000000000602082015250565b7f45524332303a20617070726f766520746f20746865207a65726f20616464726560008201527f7373000000000000000000000000000000000000000000000000000000000000602082015250565b7f45524332303a20696e73756666696369656e7420616c6c6f77616e6365000000600082015250565b7f6e6f7420656e6f75676820737472617465677920746f6b656e7320746f20756e60008201527f7374616b65000000000000000000000000000000000000000000000000000000602082015250565b7f45524332303a207472616e7366657220616d6f756e742065786365656473206260008201527f616c616e63650000000000000000000000000000000000000000000000000000602082015250565b7f5377617070696e672041555344207969656c6420666f7220414341206661696c60008201527f6564000000000000000000000000000000000000000000000000000000000000602082015250565b7f616374696f6e206f6e6c7920666f722061646d696e0000000000000000000000600082015250565b7f616374696f6e206f6e6c7920666f722074686973207363206f722061646d696e600082015250565b7f45524332303a206275726e2066726f6d20746865207a65726f2061646472657360008201527f7300000000000000000000000000000000000000000000000000000000000000602082015250565b7f45524332303a207472616e736665722066726f6d20746865207a65726f20616460008201527f6472657373000000000000000000000000000000000000000000000000000000602082015250565b7f45524332303a20617070726f76652066726f6d20746865207a65726f2061646460008201527f7265737300000000000000000000000000000000000000000000000000000000602082015250565b7f6e6f206163636f756e747320746f2072656d6f76650000000000000000000000600082015250565b7f636c69656e74206e6565647320746f20696e63726561736520616c6c6f77616e60008201527f6365000000000000000000000000000000000000000000000000000000000000602082015250565b7f45524332303a2064656372656173656420616c6c6f77616e63652062656c6f7760008201527f207a65726f000000000000000000000000000000000000000000000000000000602082015250565b7f45524332303a206d696e7420746f20746865207a65726f206164647265737300600082015250565b6151a881614b00565b81146151b357600080fd5b50565b6151bf81614b12565b81146151ca57600080fd5b50565b6151d681614b3e565b81146151e157600080fd5b5056fea26469706673582212208b5a35905e371dd5dfd103e5475ac322d55139413aa9f15d3a8c05f407ce60aa64736f6c63430008040033",
  "linkReferences": {},
  "deployedLinkReferences": {}
}