{
  "_format": "hh-sol-artifact-1",
  "contractName": "ntt54StakeDOT",
  "sourceName": "contracts/ntt54StakeDOT.sol",
  "abi": [
    {
      "inputs": [],
      "stateMutability": "nonpayable",
      "type": "constructor"
    },
    {
      "anonymous": false,
      "inputs": [
        {
          "indexed": true,
          "internalType": "address",
          "name": "owner",
          "type": "address"
        },
        {
          "indexed": true,
          "internalType": "address",
          "name": "spender",
          "type": "address"
        },
        {
          "indexed": false,
          "internalType": "uint256",
          "name": "value",
          "type": "uint256"
        }
      ],
      "name": "Approval",
      "type": "event"
    },
    {
      "anonymous": false,
      "inputs": [
        {
          "indexed": true,
          "internalType": "address",
          "name": "from",
          "type": "address"
        },
        {
          "indexed": true,
          "internalType": "address",
          "name": "to",
          "type": "address"
        },
        {
          "indexed": false,
          "internalType": "uint256",
          "name": "value",
          "type": "uint256"
        }
      ],
      "name": "Transfer",
      "type": "event"
    },
    {
      "inputs": [],
      "name": "ACA",
      "outputs": [
        {
          "internalType": "address",
          "name": "",
          "type": "address"
        }
      ],
      "stateMutability": "view",
      "type": "function"
    },
    {
      "inputs": [],
      "name": "AUSD",
      "outputs": [
        {
          "internalType": "address",
          "name": "",
          "type": "address"
        }
      ],
      "stateMutability": "view",
      "type": "function"
    },
    {
      "inputs": [],
      "name": "BNC",
      "outputs": [
        {
          "internalType": "address",
          "name": "",
          "type": "address"
        }
      ],
      "stateMutability": "view",
      "type": "function"
    },
    {
      "inputs": [],
      "name": "CASH",
      "outputs": [
        {
          "internalType": "address",
          "name": "",
          "type": "address"
        }
      ],
      "stateMutability": "view",
      "type": "function"
    },
    {
      "inputs": [],
      "name": "DEX",
      "outputs": [
        {
          "internalType": "address",
          "name": "",
          "type": "address"
        }
      ],
      "stateMutability": "view",
      "type": "function"
    },
    {
      "inputs": [],
      "name": "DOT",
      "outputs": [
        {
          "internalType": "address",
          "name": "",
          "type": "address"
        }
      ],
      "stateMutability": "view",
      "type": "function"
    },
    {
      "inputs": [],
      "name": "EVM",
      "outputs": [
        {
          "internalType": "address",
          "name": "",
          "type": "address"
        }
      ],
      "stateMutability": "view",
      "type": "function"
    },
    {
      "inputs": [],
      "name": "EVMAccounts",
      "outputs": [
        {
          "internalType": "address",
          "name": "",
          "type": "address"
        }
      ],
      "stateMutability": "view",
      "type": "function"
    },
    {
      "inputs": [],
      "name": "Homa",
      "outputs": [
        {
          "internalType": "address",
          "name": "",
          "type": "address"
        }
      ],
      "stateMutability": "view",
      "type": "function"
    },
    {
      "inputs": [],
      "name": "Honzon",
      "outputs": [
        {
          "internalType": "address",
          "name": "",
          "type": "address"
        }
      ],
      "stateMutability": "view",
      "type": "function"
    },
    {
      "inputs": [],
      "name": "KAR",
      "outputs": [
        {
          "internalType": "address",
          "name": "",
          "type": "address"
        }
      ],
      "stateMutability": "view",
      "type": "function"
    },
    {
      "inputs": [],
      "name": "KBTC",
      "outputs": [
        {
          "internalType": "address",
          "name": "",
          "type": "address"
        }
      ],
      "stateMutability": "view",
      "type": "function"
    },
    {
      "inputs": [],
      "name": "KINT",
      "outputs": [
        {
          "internalType": "address",
          "name": "",
          "type": "address"
        }
      ],
      "stateMutability": "view",
      "type": "function"
    },
    {
      "inputs": [],
      "name": "KSM",
      "outputs": [
        {
          "internalType": "address",
          "name": "",
          "type": "address"
        }
      ],
      "stateMutability": "view",
      "type": "function"
    },
    {
      "inputs": [],
      "name": "KUSD",
      "outputs": [
        {
          "internalType": "address",
          "name": "",
          "type": "address"
        }
      ],
      "stateMutability": "view",
      "type": "function"
    },
    {
      "inputs": [],
      "name": "LCDOT",
      "outputs": [
        {
          "internalType": "address",
          "name": "",
          "type": "address"
        }
      ],
      "stateMutability": "view",
      "type": "function"
    },
    {
      "inputs": [],
      "name": "LDOT",
      "outputs": [
        {
          "internalType": "address",
          "name": "",
          "type": "address"
        }
      ],
      "stateMutability": "view",
      "type": "function"
    },
    {
      "inputs": [],
      "name": "LKSM",
      "outputs": [
        {
          "internalType": "address",
          "name": "",
          "type": "address"
        }
      ],
      "stateMutability": "view",
      "type": "function"
    },
    {
      "inputs": [],
      "name": "LP_ACA_AUSD",
      "outputs": [
        {
          "internalType": "address",
          "name": "",
          "type": "address"
        }
      ],
      "stateMutability": "view",
      "type": "function"
    },
    {
      "inputs": [],
      "name": "LP_DOT_AUSD",
      "outputs": [
        {
          "internalType": "address",
          "name": "",
          "type": "address"
        }
      ],
      "stateMutability": "view",
      "type": "function"
    },
    {
      "inputs": [],
      "name": "LP_KAR_KUSD",
      "outputs": [
        {
          "internalType": "address",
          "name": "",
          "type": "address"
        }
      ],
      "stateMutability": "view",
      "type": "function"
    },
    {
      "inputs": [],
      "name": "LP_KSM_KUSD",
      "outputs": [
        {
          "internalType": "address",
          "name": "",
          "type": "address"
        }
      ],
      "stateMutability": "view",
      "type": "function"
    },
    {
      "inputs": [],
      "name": "LP_LDOT_AUSD",
      "outputs": [
        {
          "internalType": "address",
          "name": "",
          "type": "address"
        }
      ],
      "stateMutability": "view",
      "type": "function"
    },
    {
      "inputs": [],
      "name": "LP_LKSM_KUSD",
      "outputs": [
        {
          "internalType": "address",
          "name": "",
          "type": "address"
        }
      ],
      "stateMutability": "view",
      "type": "function"
    },
    {
      "inputs": [],
      "name": "LP_RENBTC_AUSD",
      "outputs": [
        {
          "internalType": "address",
          "name": "",
          "type": "address"
        }
      ],
      "stateMutability": "view",
      "type": "function"
    },
    {
      "inputs": [],
      "name": "Oracle",
      "outputs": [
        {
          "internalType": "address",
          "name": "",
          "type": "address"
        }
      ],
      "stateMutability": "view",
      "type": "function"
    },
    {
      "inputs": [],
      "name": "PHA",
      "outputs": [
        {
          "internalType": "address",
          "name": "",
          "type": "address"
        }
      ],
      "stateMutability": "view",
      "type": "function"
    },
    {
      "inputs": [],
      "name": "RENBTC",
      "outputs": [
        {
          "internalType": "address",
          "name": "",
          "type": "address"
        }
      ],
      "stateMutability": "view",
      "type": "function"
    },
    {
      "inputs": [],
      "name": "REWARD_PER_BLOCK",
      "outputs": [
        {
          "internalType": "uint256",
          "name": "",
          "type": "uint256"
        }
      ],
      "stateMutability": "view",
      "type": "function"
    },
    {
      "inputs": [],
      "name": "Schedule",
      "outputs": [
        {
          "internalType": "address",
          "name": "",
          "type": "address"
        }
      ],
      "stateMutability": "view",
      "type": "function"
    },
    {
      "inputs": [],
      "name": "TAI",
      "outputs": [
        {
          "internalType": "address",
          "name": "",
          "type": "address"
        }
      ],
      "stateMutability": "view",
      "type": "function"
    },
    {
      "inputs": [],
      "name": "TAI_3USD",
      "outputs": [
        {
          "internalType": "address",
          "name": "",
          "type": "address"
        }
      ],
      "stateMutability": "view",
      "type": "function"
    },
    {
      "inputs": [],
      "name": "TAI_DOT",
      "outputs": [
        {
          "internalType": "address",
          "name": "",
          "type": "address"
        }
      ],
      "stateMutability": "view",
      "type": "function"
    },
    {
      "inputs": [],
      "name": "TAI_KSM",
      "outputs": [
        {
          "internalType": "address",
          "name": "",
          "type": "address"
        }
      ],
      "stateMutability": "view",
      "type": "function"
    },
    {
      "inputs": [],
      "name": "VSKSM",
      "outputs": [
        {
          "internalType": "address",
          "name": "",
          "type": "address"
        }
      ],
      "stateMutability": "view",
      "type": "function"
    },
    {
      "inputs": [],
      "name": "admin",
      "outputs": [
        {
          "internalType": "address",
          "name": "",
          "type": "address"
        }
      ],
      "stateMutability": "view",
      "type": "function"
    },
    {
      "inputs": [
        {
          "internalType": "address",
          "name": "owner",
          "type": "address"
        },
        {
          "internalType": "address",
          "name": "spender",
          "type": "address"
        }
      ],
      "name": "allowance",
      "outputs": [
        {
          "internalType": "uint256",
          "name": "",
          "type": "uint256"
        }
      ],
      "stateMutability": "view",
      "type": "function"
    },
    {
      "inputs": [
        {
          "internalType": "address",
          "name": "spender",
          "type": "address"
        },
        {
          "internalType": "uint256",
          "name": "amount",
          "type": "uint256"
        }
      ],
      "name": "approve",
      "outputs": [
        {
          "internalType": "bool",
          "name": "",
          "type": "bool"
        }
      ],
      "stateMutability": "nonpayable",
      "type": "function"
    },
    {
      "inputs": [
        {
          "internalType": "address",
          "name": "account",
          "type": "address"
        }
      ],
      "name": "balanceOf",
      "outputs": [
        {
          "internalType": "uint256",
          "name": "",
          "type": "uint256"
        }
      ],
      "stateMutability": "view",
      "type": "function"
    },
    {
      "inputs": [],
      "name": "decimals",
      "outputs": [
        {
          "internalType": "uint8",
          "name": "",
          "type": "uint8"
        }
      ],
      "stateMutability": "view",
      "type": "function"
    },
    {
      "inputs": [
        {
          "internalType": "address",
          "name": "spender",
          "type": "address"
        },
        {
          "internalType": "uint256",
          "name": "subtractedValue",
          "type": "uint256"
        }
      ],
      "name": "decreaseAllowance",
      "outputs": [
        {
          "internalType": "bool",
          "name": "",
          "type": "bool"
        }
      ],
      "stateMutability": "nonpayable",
      "type": "function"
    },
    {
      "inputs": [
        {
          "internalType": "uint256",
          "name": "amount",
          "type": "uint256"
        }
      ],
      "name": "depositDOT",
      "outputs": [],
      "stateMutability": "nonpayable",
      "type": "function"
    },
    {
      "inputs": [
        {
          "internalType": "uint256",
          "name": "amount",
          "type": "uint256"
        }
      ],
      "name": "depositToTreasury",
      "outputs": [],
      "stateMutability": "nonpayable",
      "type": "function"
    },
    {
      "inputs": [],
      "name": "distributeRewards",
      "outputs": [],
      "stateMutability": "nonpayable",
      "type": "function"
    },
    {
      "inputs": [],
      "name": "epochNumber",
      "outputs": [
        {
          "internalType": "uint256",
          "name": "",
          "type": "uint256"
        }
      ],
      "stateMutability": "view",
      "type": "function"
    },
    {
      "inputs": [
        {
          "internalType": "address",
          "name": "spender",
          "type": "address"
        },
        {
          "internalType": "uint256",
          "name": "addedValue",
          "type": "uint256"
        }
      ],
      "name": "increaseAllowance",
      "outputs": [
        {
          "internalType": "bool",
          "name": "",
          "type": "bool"
        }
      ],
      "stateMutability": "nonpayable",
      "type": "function"
    },
    {
      "inputs": [],
      "name": "mantissa",
      "outputs": [
        {
          "internalType": "uint256",
          "name": "",
          "type": "uint256"
        }
      ],
      "stateMutability": "view",
      "type": "function"
    },
    {
      "inputs": [],
      "name": "name",
      "outputs": [
        {
          "internalType": "string",
          "name": "",
          "type": "string"
        }
      ],
      "stateMutability": "view",
      "type": "function"
    },
    {
      "inputs": [
        {
          "internalType": "address",
          "name": "",
          "type": "address"
        }
      ],
      "name": "registeredUserAccounts",
      "outputs": [
        {
          "internalType": "bool",
          "name": "",
          "type": "bool"
        }
      ],
      "stateMutability": "view",
      "type": "function"
    },
    {
      "inputs": [
        {
          "internalType": "uint256",
          "name": "_rewardPerBlock",
          "type": "uint256"
        }
      ],
      "name": "setFixedRewardPerBlock",
      "outputs": [],
      "stateMutability": "nonpayable",
      "type": "function"
    },
    {
      "inputs": [],
      "name": "startDistributing",
      "outputs": [],
      "stateMutability": "nonpayable",
      "type": "function"
    },
    {
      "inputs": [],
      "name": "symbol",
      "outputs": [
        {
          "internalType": "string",
          "name": "",
          "type": "string"
        }
      ],
      "stateMutability": "view",
      "type": "function"
    },
    {
      "inputs": [],
      "name": "totalSupply",
      "outputs": [
        {
          "internalType": "uint256",
          "name": "",
          "type": "uint256"
        }
      ],
      "stateMutability": "view",
      "type": "function"
    },
    {
      "inputs": [
        {
          "internalType": "address",
          "name": "to",
          "type": "address"
        },
        {
          "internalType": "uint256",
          "name": "amount",
          "type": "uint256"
        }
      ],
      "name": "transfer",
      "outputs": [
        {
          "internalType": "bool",
          "name": "",
          "type": "bool"
        }
      ],
      "stateMutability": "nonpayable",
      "type": "function"
    },
    {
      "inputs": [
        {
          "internalType": "uint256",
          "name": "amount",
          "type": "uint256"
        }
      ],
      "name": "transferFeesBalance",
      "outputs": [],
      "stateMutability": "nonpayable",
      "type": "function"
    },
    {
      "inputs": [
        {
          "internalType": "address",
          "name": "from",
          "type": "address"
        },
        {
          "internalType": "address",
          "name": "to",
          "type": "address"
        },
        {
          "internalType": "uint256",
          "name": "amount",
          "type": "uint256"
        }
      ],
      "name": "transferFrom",
      "outputs": [
        {
          "internalType": "bool",
          "name": "",
          "type": "bool"
        }
      ],
      "stateMutability": "nonpayable",
      "type": "function"
    },
    {
      "inputs": [
        {
          "internalType": "address",
          "name": "",
          "type": "address"
        }
      ],
      "name": "treasuryBalances",
      "outputs": [
        {
          "internalType": "uint256",
          "name": "",
          "type": "uint256"
        }
      ],
      "stateMutability": "view",
      "type": "function"
    },
    {
      "inputs": [
        {
          "internalType": "uint256",
          "name": "",
          "type": "uint256"
        }
      ],
      "name": "userAccounts",
      "outputs": [
        {
          "internalType": "address",
          "name": "",
          "type": "address"
        }
      ],
      "stateMutability": "view",
      "type": "function"
    },
    {
      "inputs": [
        {
          "internalType": "address",
          "name": "",
          "type": "address"
        },
        {
          "internalType": "address",
          "name": "",
          "type": "address"
        }
      ],
      "name": "userBalances",
      "outputs": [
        {
          "internalType": "uint256",
          "name": "",
          "type": "uint256"
        }
      ],
      "stateMutability": "view",
      "type": "function"
    },
    {
      "inputs": [
        {
          "internalType": "uint256",
          "name": "amount",
          "type": "uint256"
        }
      ],
      "name": "withdrawDOT",
      "outputs": [],
      "stateMutability": "nonpayable",
      "type": "function"
    },
    {
      "inputs": [
        {
          "internalType": "uint256",
          "name": "amount",
          "type": "uint256"
        }
      ],
      "name": "withdrawFromTreasury",
      "outputs": [],
      "stateMutability": "nonpayable",
      "type": "function"
    }
  ],
  "bytecode": "0x6080604052610802600560006101000a81548173ffffffffffffffffffffffffffffffffffffffff021916908373ffffffffffffffffffffffffffffffffffffffff16021790555064e8d4a510006009556000600a553480156200006257600080fd5b506040518060400160405280601281526020017f4c70205374616b6520444f5420546f6b656e00000000000000000000000000008152506040518060400160405280600781526020017f4c707374444f54000000000000000000000000000000000000000000000000008152508160039080519060200190620000e7929190620001e2565b50806004908051906020019062000100929190620001e2565b50505033600b60006101000a81548173ffffffffffffffffffffffffffffffffffffffff021916908373ffffffffffffffffffffffffffffffffffffffff1602179055506a0100000000000000000002600660006101000a81548173ffffffffffffffffffffffffffffffffffffffff021916908373ffffffffffffffffffffffffffffffffffffffff1602179055506a0100000000000000000000600760006101000a81548173ffffffffffffffffffffffffffffffffffffffff021916908373ffffffffffffffffffffffffffffffffffffffff160217905550620002f7565b828054620001f09062000292565b90600052602060002090601f01602090048101928262000214576000855562000260565b82601f106200022f57805160ff191683800117855562000260565b8280016001018555821562000260579182015b828111156200025f57825182559160200191906001019062000242565b5b5090506200026f919062000273565b5090565b5b808211156200028e57600081600090555060010162000274565b5090565b60006002820490506001821680620002ab57607f821691505b60208210811415620002c257620002c1620002c8565b5b50919050565b7f4e487b7100000000000000000000000000000000000000000000000000000000600052602260045260246000fd5b613c9e80620003076000396000f3fe608060405234801561001057600080fd5b50600436106103ae5760003560e01c806380935aa9116101f4578063c30054c01161011a578063dd62ed3e116100ad578063f4145a831161007c578063f4145a8314610af3578063f589b63d14610b11578063f851a44014610b2f578063fd45892114610b4d576103ae565b8063dd62ed3e14610a69578063e18b7ac514610a99578063f24a534e14610ab7578063f29588c714610ad5576103ae565b8063d54dc1ab116100e9578063d54dc1ab146109f3578063d58e49d614610a11578063d7f269fe14610a2d578063d9dc7fcd14610a4b576103ae565b8063c30054c01461097d578063c49698151461099b578063c6bd6a9a146109b9578063d2c03d49146109d7576103ae565b8063a4a5306d11610192578063b0dadb7b11610161578063b0dadb7b14610907578063b3d27bc514610925578063bacbd7cc14610943578063c0e58a0e14610961576103ae565b8063a4a5306d1461087f578063a5770a5414610889578063a9059cbb146108a7578063adb51980146108d7576103ae565b806395d89b41116101ce57806395d89b41146107f5578063975532dc14610813578063a1b5622614610831578063a457c2d71461084f576103ae565b806380935aa91461078957806380bd60e8146107a757806392afbebf146107c5576103ae565b806336e02950116102d957806363555624116102775780636f4a2cd0116102465780636f4a2cd01461070157806370a082311461070b578063783dc03d1461073b5780637efa748114610759576103ae565b8063635556241461068d57806369151f4b146106a95780636b80a04c146106c55780636cd83f18146106e3576103ae565b80635c8177a2116102b35780635c8177a2146106035780635d499e82146106215780636022c7ab1461063f578063616d50581461065d576103ae565b806336e029501461059757806339509351146105b557806341da8653146105e5576103ae565b806318dca9ba11610351578063280d106011610320578063280d10601461051f5780632fd7d1fd1461053d578063313ce5671461055b578063351f5f3d14610579576103ae565b806318dca9ba1461049557806319550da4146104b35780631f927675146104d157806323b872dd146104ef576103ae565b80630a4cad6b1161038d5780630a4cad6b1461041d5780630bea593a1461043b57806318160ddd1461045957806318ad37af14610477576103ae565b80628db204146103b357806306fdde03146103cf578063095ea7b3146103ed575b600080fd5b6103cd60048036038101906103c89190612e3e565b610b6b565b005b6103d7610ec4565b6040516103e4919061328b565b60405180910390f35b61040760048036038101906104029190612d98565b610f56565b6040516104149190613270565b60405180910390f35b610425610f79565b6040516104329190613164565b60405180910390f35b610443610f88565b6040516104509190613164565b60405180910390f35b610461610f97565b60405161046e919061346d565b60405180910390f35b61047f610fa1565b60405161048c9190613164565b60405180910390f35b61049d610fb0565b6040516104aa9190613164565b60405180910390f35b6104bb610fbf565b6040516104c89190613164565b60405180910390f35b6104d9610fce565b6040516104e69190613164565b60405180910390f35b61050960048036038101906105049190612d49565b610fdd565b6040516105169190613270565b60405180910390f35b61052761100c565b6040516105349190613164565b60405180910390f35b61054561101b565b6040516105529190613164565b60405180910390f35b61056361102a565b6040516105709190613488565b60405180910390f35b610581611033565b60405161058e9190613164565b60405180910390f35b61059f611039565b6040516105ac9190613164565b60405180910390f35b6105cf60048036038101906105ca9190612d98565b611048565b6040516105dc9190613270565b60405180910390f35b6105ed61107f565b6040516105fa9190613164565b60405180910390f35b61060b61108e565b604051610618919061346d565b60405180910390f35b610629611097565b6040516106369190613164565b60405180910390f35b6106476110a6565b6040516106549190613164565b60405180910390f35b61067760048036038101906106729190612e3e565b6110b5565b6040516106849190613164565b60405180910390f35b6106a760048036038101906106a29190612e3e565b6110f4565b005b6106c360048036038101906106be9190612e3e565b611298565b005b6106cd611332565b6040516106da9190613164565b60405180910390f35b6106eb611338565b6040516106f89190613164565b60405180910390f35b610709611347565b005b61072560048036038101906107209190612ce4565b61185f565b604051610732919061346d565b60405180910390f35b6107436118a7565b6040516107509190613164565b60405180910390f35b610773600480360381019061076e9190612ce4565b6118b6565b604051610780919061346d565b60405180910390f35b6107916118ce565b60405161079e9190613164565b60405180910390f35b6107af6118d4565b6040516107bc9190613164565b60405180910390f35b6107df60048036038101906107da9190612ce4565b6118e3565b6040516107ec9190613270565b60405180910390f35b6107fd611903565b60405161080a919061328b565b60405180910390f35b61081b611995565b604051610828919061346d565b60405180910390f35b61083961199b565b6040516108469190613164565b60405180910390f35b61086960048036038101906108649190612d98565b6119aa565b6040516108769190613270565b60405180910390f35b610887611a21565b005b610891611abb565b60405161089e9190613164565b60405180910390f35b6108c160048036038101906108bc9190612d98565b611aca565b6040516108ce9190613270565b60405180910390f35b6108f160048036038101906108ec9190612d0d565b611aed565b6040516108fe919061346d565b60405180910390f35b61090f611b12565b60405161091c9190613164565b60405180910390f35b61092d611b18565b60405161093a9190613164565b60405180910390f35b61094b611b27565b6040516109589190613164565b60405180910390f35b61097b60048036038101906109769190612e3e565b611b36565b005b610985611cdc565b6040516109929190613164565b60405180910390f35b6109a3611ceb565b6040516109b09190613164565b60405180910390f35b6109c1611cfa565b6040516109ce9190613164565b60405180910390f35b6109f160048036038101906109ec9190612e3e565b611d00565b005b6109fb611db5565b604051610a089190613164565b60405180910390f35b610a2b6004803603810190610a269190612e3e565b611dc4565b005b610a356122fd565b604051610a429190613164565b60405180910390f35b610a5361230c565b604051610a609190613164565b60405180910390f35b610a836004803603810190610a7e9190612d0d565b612312565b604051610a90919061346d565b60405180910390f35b610aa1612399565b604051610aae9190613164565b60405180910390f35b610abf6123a8565b604051610acc9190613164565b60405180910390f35b610add6123ae565b604051610aea9190613164565b60405180910390f35b610afb6123bd565b604051610b08919061346d565b60405180910390f35b610b196123c3565b604051610b269190613164565b60405180910390f35b610b376123d2565b604051610b449190613164565b60405180910390f35b610b556123f8565b604051610b629190613164565b60405180910390f35b600660009054906101000a900473ffffffffffffffffffffffffffffffffffffffff1673ffffffffffffffffffffffffffffffffffffffff1663dd62ed3e33306040518363ffffffff1660e01b8152600401610bc892919061317f565b60206040518083038186803b158015610be057600080fd5b505afa158015610bf4573d6000803e3d6000fd5b505050506040513d601f19601f82011682018060405250810190610c189190612e67565b811115610c5a576040517f08c379a0000000000000000000000000000000000000000000000000000000008152600401610c519061340d565b60405180910390fd5b600d60003373ffffffffffffffffffffffffffffffffffffffff1673ffffffffffffffffffffffffffffffffffffffff16815260200190815260200160002060009054906101000a900460ff16610d67576001600d60003373ffffffffffffffffffffffffffffffffffffffff1673ffffffffffffffffffffffffffffffffffffffff16815260200190815260200160002060006101000a81548160ff021916908315150217905550600c339080600181540180825580915050600190039060005260206000200160009091909190916101000a81548173ffffffffffffffffffffffffffffffffffffffff021916908373ffffffffffffffffffffffffffffffffffffffff1602179055505b600660009054906101000a900473ffffffffffffffffffffffffffffffffffffffff1673ffffffffffffffffffffffffffffffffffffffff166323b872dd3330846040518463ffffffff1660e01b8152600401610dc6939291906131a8565b602060405180830381600087803b158015610de057600080fd5b505af1158015610df4573d6000803e3d6000fd5b505050506040513d601f19601f82011682018060405250810190610e189190612dd4565b5080600e60006a010000000000000000000273ffffffffffffffffffffffffffffffffffffffff1673ffffffffffffffffffffffffffffffffffffffff16815260200190815260200160002060003373ffffffffffffffffffffffffffffffffffffffff1673ffffffffffffffffffffffffffffffffffffffff1681526020019081526020016000206000828254610eb09190613531565b92505081905550610ec13382612407565b50565b606060038054610ed390613716565b80601f0160208091040260200160405190810160405280929190818152602001828054610eff90613716565b8015610f4c5780601f10610f2157610100808354040283529160200191610f4c565b820191906000526020600020905b815481529060010190602001808311610f2f57829003601f168201915b5050505050905090565b600080610f61612567565b9050610f6e81858561256f565b600191505092915050565b6a020000000002000000000181565b6a040000000000000000000d81565b6000600254905090565b6a010000000000000000008181565b6a020000000014000000000181565b6a01000000000000000000ac81565b6a010000000000000000008381565b600080610fe8612567565b9050610ff585828561273a565b6110008585856127c6565b60019150509392505050565b6a030000000000000000000081565b6a010000000000000000000181565b60006012905090565b61080581565b6a010000000000000000000281565b600080611053612567565b90506110748185856110658589612312565b61106f9190613531565b61256f565b600191505092915050565b6a030000000000000000000081565b64e8d4a5100081565b6a020000000082000000008181565b6a010000000000000000000381565b600c81815481106110c557600080fd5b906000526020600020016000915054906101000a900473ffffffffffffffffffffffffffffffffffffffff1681565b600b60009054906101000a900473ffffffffffffffffffffffffffffffffffffffff1673ffffffffffffffffffffffffffffffffffffffff163373ffffffffffffffffffffffffffffffffffffffff1614611184576040517f08c379a000000000000000000000000000000000000000000000000000000000815260040161117b9061334d565b60405180910390fd5b80600860006a010000000000000000000073ffffffffffffffffffffffffffffffffffffffff1673ffffffffffffffffffffffffffffffffffffffff16815260200190815260200160002060008282546111de9190613612565b92505081905550600760009054906101000a900473ffffffffffffffffffffffffffffffffffffffff1673ffffffffffffffffffffffffffffffffffffffff1663a9059cbb33836040518363ffffffff1660e01b8152600401611242929190613247565b602060405180830381600087803b15801561125c57600080fd5b505af1158015611270573d6000803e3d6000fd5b505050506040513d601f19601f820116820180604052508101906112949190612dd4565b5050565b600b60009054906101000a900473ffffffffffffffffffffffffffffffffffffffff1673ffffffffffffffffffffffffffffffffffffffff163373ffffffffffffffffffffffffffffffffffffffff1614611328576040517f08c379a000000000000000000000000000000000000000000000000000000000815260040161131f9061334d565b60405180910390fd5b8060098190555050565b61080681565b6a01000000000000000000aa81565b3073ffffffffffffffffffffffffffffffffffffffff163373ffffffffffffffffffffffffffffffffffffffff1614806113ce5750600b60009054906101000a900473ffffffffffffffffffffffffffffffffffffffff1673ffffffffffffffffffffffffffffffffffffffff163373ffffffffffffffffffffffffffffffffffffffff16145b61140d576040517f08c379a00000000000000000000000000000000000000000000000000000000081526004016114049061338d565b60405180910390fd5b600954600760009054906101000a900473ffffffffffffffffffffffffffffffffffffffff1673ffffffffffffffffffffffffffffffffffffffff166370a08231306040518263ffffffff1660e01b815260040161146b9190613164565b60206040518083038186803b15801561148357600080fd5b505afa158015611497573d6000803e3d6000fd5b505050506040513d601f19601f820116820180604052508101906114bb9190612e67565b111561185d576000600c805490501115611716576001600a60008282546114e29190613531565b9250508190555060005b600c805490508110156116b1576000611503610f97565b600954611573600c8581548110611543577f4e487b7100000000000000000000000000000000000000000000000000000000600052603260045260246000fd5b9060005260206000200160009054906101000a900473ffffffffffffffffffffffffffffffffffffffff1661185f565b61157d91906135b8565b6115879190613587565b9050600760009054906101000a900473ffffffffffffffffffffffffffffffffffffffff1673ffffffffffffffffffffffffffffffffffffffff1663a9059cbb600c8481548110611601577f4e487b7100000000000000000000000000000000000000000000000000000000600052603260045260246000fd5b9060005260206000200160009054906101000a900473ffffffffffffffffffffffffffffffffffffffff16836040518363ffffffff1660e01b815260040161164a929190613247565b602060405180830381600087803b15801561166457600080fd5b505af1158015611678573d6000803e3d6000fd5b505050506040513d601f19601f8201168201806040525081019061169c9190612dd4565b505080806116a990613779565b9150506114ec565b50600954600860006a010000000000000000000073ffffffffffffffffffffffffffffffffffffffff1673ffffffffffffffffffffffffffffffffffffffff168152602001908152602001600020600082825461170e9190613612565b925050819055505b600560009054906101000a900473ffffffffffffffffffffffffffffffffffffffff1673ffffffffffffffffffffffffffffffffffffffff1663168d560d306000620f424061138860056040516024016040516020818303038152906040527f6f4a2cd0000000000000000000000000000000000000000000000000000000007bffffffffffffffffffffffffffffffffffffffffffffffffffffffff19166020820180517bffffffffffffffffffffffffffffffffffffffffffffffffffffffff83818316178352505050506040518763ffffffff1660e01b8152600401611804969594939291906131df565b600060405180830381600087803b15801561181e57600080fd5b505af1158015611832573d6000803e3d6000fd5b505050506040513d6000823e3d601f19601f8201168201806040525081019061185b9190612dfd565b505b565b60008060008373ffffffffffffffffffffffffffffffffffffffff1673ffffffffffffffffffffffffffffffffffffffff168152602001908152602001600020549050919050565b6a010000000000000000008481565b60086020528060005260406000206000915090505481565b61080381565b6a020000000080000000008181565b600d6020528060005260406000206000915054906101000a900460ff1681565b60606004805461191290613716565b80601f016020809104026020016040519081016040528092919081815260200182805461193e90613716565b801561198b5780601f106119605761010080835404028352916020019161198b565b820191906000526020600020905b81548152906001019060200180831161196e57829003601f168201915b5050505050905090565b60095481565b6a010000000000000000000081565b6000806119b5612567565b905060006119c38286612312565b905083811015611a08576040517f08c379a00000000000000000000000000000000000000000000000000000000081526004016119ff9061342d565b60405180910390fd5b611a15828686840361256f565b60019250505092915050565b600b60009054906101000a900473ffffffffffffffffffffffffffffffffffffffff1673ffffffffffffffffffffffffffffffffffffffff163373ffffffffffffffffffffffffffffffffffffffff1614611ab1576040517f08c379a0000000000000000000000000000000000000000000000000000000008152600401611aa89061334d565b60405180910390fd5b611ab9611347565b565b6a020000000000000000000181565b600080611ad5612567565b9050611ae28185856127c6565b600191505092915050565b600e602052816000526040600020602052806000526040600020600091509150505481565b61080281565b6a010000000000000000008081565b6a020000000083000000008181565b600b60009054906101000a900473ffffffffffffffffffffffffffffffffffffffff1673ffffffffffffffffffffffffffffffffffffffff163373ffffffffffffffffffffffffffffffffffffffff1614611bc6576040517f08c379a0000000000000000000000000000000000000000000000000000000008152600401611bbd9061334d565b60405180910390fd5b600760009054906101000a900473ffffffffffffffffffffffffffffffffffffffff1673ffffffffffffffffffffffffffffffffffffffff166323b872dd3330846040518463ffffffff1660e01b8152600401611c25939291906131a8565b602060405180830381600087803b158015611c3f57600080fd5b505af1158015611c53573d6000803e3d6000fd5b505050506040513d601f19601f82011682018060405250810190611c779190612dd4565b5080600860006a010000000000000000000073ffffffffffffffffffffffffffffffffffffffff1673ffffffffffffffffffffffffffffffffffffffff1681526020019081526020016000206000828254611cd29190613531565b9250508190555050565b6a010000000000000000008281565b6a010000000000000000001581565b61080781565b600760009054906101000a900473ffffffffffffffffffffffffffffffffffffffff1673ffffffffffffffffffffffffffffffffffffffff166323b872dd3330846040518463ffffffff1660e01b8152600401611d5f939291906131a8565b602060405180830381600087803b158015611d7957600080fd5b505af1158015611d8d573d6000803e3d6000fd5b505050506040513d601f19601f82011682018060405250810190611db19190612dd4565b5050565b6a01000000000000000000ab81565b600e60006a010000000000000000000273ffffffffffffffffffffffffffffffffffffffff1673ffffffffffffffffffffffffffffffffffffffff16815260200190815260200160002060003373ffffffffffffffffffffffffffffffffffffffff1673ffffffffffffffffffffffffffffffffffffffff16815260200190815260200160002054811115611e8e576040517f08c379a0000000000000000000000000000000000000000000000000000000008152600401611e859061336d565b60405180910390fd5b80600e60006a010000000000000000000273ffffffffffffffffffffffffffffffffffffffff1673ffffffffffffffffffffffffffffffffffffffff16815260200190815260200160002060003373ffffffffffffffffffffffffffffffffffffffff1673ffffffffffffffffffffffffffffffffffffffff1681526020019081526020016000206000828254611f259190613612565b92505081905550600660009054906101000a900473ffffffffffffffffffffffffffffffffffffffff1673ffffffffffffffffffffffffffffffffffffffff1663a9059cbb33836040518363ffffffff1660e01b8152600401611f89929190613247565b602060405180830381600087803b158015611fa357600080fd5b505af1158015611fb7573d6000803e3d6000fd5b505050506040513d601f19601f82011682018060405250810190611fdb9190612dd4565b50611fe63382612a47565b6000600e60006a010000000000000000000273ffffffffffffffffffffffffffffffffffffffff1673ffffffffffffffffffffffffffffffffffffffff16815260200190815260200160002060003373ffffffffffffffffffffffffffffffffffffffff1673ffffffffffffffffffffffffffffffffffffffff1681526020019081526020016000205414156122fa576000600d60003373ffffffffffffffffffffffffffffffffffffffff1673ffffffffffffffffffffffffffffffffffffffff16815260200190815260200160002060006101000a81548160ff02191690831515021790555060006001600c805490506120e29190613612565b905060005b8181116122f7573373ffffffffffffffffffffffffffffffffffffffff16600c828154811061213f577f4e487b7100000000000000000000000000000000000000000000000000000000600052603260045260246000fd5b9060005260206000200160009054906101000a900473ffffffffffffffffffffffffffffffffffffffff1673ffffffffffffffffffffffffffffffffffffffff1614156122e4578181101561227657600c82815481106121c8577f4e487b7100000000000000000000000000000000000000000000000000000000600052603260045260246000fd5b9060005260206000200160009054906101000a900473ffffffffffffffffffffffffffffffffffffffff16600c828154811061222d577f4e487b7100000000000000000000000000000000000000000000000000000000600052603260045260246000fd5b9060005260206000200160006101000a81548173ffffffffffffffffffffffffffffffffffffffff021916908373ffffffffffffffffffffffffffffffffffffffff1602179055505b600c8054806122ae577f4e487b7100000000000000000000000000000000000000000000000000000000600052603160045260246000fd5b6001900381819060005260206000200160006101000a81549073ffffffffffffffffffffffffffffffffffffffff021916905590555b80806122ef90613779565b9150506120e7565b50505b50565b6a010000000000000000001481565b61080081565b6000600160008473ffffffffffffffffffffffffffffffffffffffff1673ffffffffffffffffffffffffffffffffffffffff16815260200190815260200160002060008373ffffffffffffffffffffffffffffffffffffffff1673ffffffffffffffffffffffffffffffffffffffff16815260200190815260200160002054905092915050565b6a020000000003000000000181565b61080181565b6a01000000000000000000a881565b600a5481565b6a030000000000000000000181565b600b60009054906101000a900473ffffffffffffffffffffffffffffffffffffffff1681565b6a01000000000000000000a981565b600073ffffffffffffffffffffffffffffffffffffffff168273ffffffffffffffffffffffffffffffffffffffff161415612477576040517f08c379a000000000000000000000000000000000000000000000000000000000815260040161246e9061344d565b60405180910390fd5b61248360008383612c1e565b80600260008282546124959190613531565b92505081905550806000808473ffffffffffffffffffffffffffffffffffffffff1673ffffffffffffffffffffffffffffffffffffffff16815260200190815260200160002060008282546124ea9190613531565b925050819055508173ffffffffffffffffffffffffffffffffffffffff16600073ffffffffffffffffffffffffffffffffffffffff167fddf252ad1be2c89b69c2b068fc378daa952ba7f163c4a11628f55a4df523b3ef8360405161254f919061346d565b60405180910390a361256360008383612c23565b5050565b600033905090565b600073ffffffffffffffffffffffffffffffffffffffff168373ffffffffffffffffffffffffffffffffffffffff1614156125df576040517f08c379a00000000000000000000000000000000000000000000000000000000081526004016125d6906133ed565b60405180910390fd5b600073ffffffffffffffffffffffffffffffffffffffff168273ffffffffffffffffffffffffffffffffffffffff16141561264f576040517f08c379a0000000000000000000000000000000000000000000000000000000008152600401612646906132ed565b60405180910390fd5b80600160008573ffffffffffffffffffffffffffffffffffffffff1673ffffffffffffffffffffffffffffffffffffffff16815260200190815260200160002060008473ffffffffffffffffffffffffffffffffffffffff1673ffffffffffffffffffffffffffffffffffffffff168152602001908152602001600020819055508173ffffffffffffffffffffffffffffffffffffffff168373ffffffffffffffffffffffffffffffffffffffff167f8c5be1e5ebec7d5bd14f71427d1e84f3dd0314c0f7b2291e5b200ac8c7c3b9258360405161272d919061346d565b60405180910390a3505050565b60006127468484612312565b90507fffffffffffffffffffffffffffffffffffffffffffffffffffffffffffffffff81146127c057818110156127b2576040517f08c379a00000000000000000000000000000000000000000000000000000000081526004016127a99061330d565b60405180910390fd5b6127bf848484840361256f565b5b50505050565b600073ffffffffffffffffffffffffffffffffffffffff168373ffffffffffffffffffffffffffffffffffffffff161415612836576040517f08c379a000000000000000000000000000000000000000000000000000000000815260040161282d906133cd565b60405180910390fd5b600073ffffffffffffffffffffffffffffffffffffffff168273ffffffffffffffffffffffffffffffffffffffff1614156128a6576040517f08c379a000000000000000000000000000000000000000000000000000000000815260040161289d906132ad565b60405180910390fd5b6128b1838383612c1e565b60008060008573ffffffffffffffffffffffffffffffffffffffff1673ffffffffffffffffffffffffffffffffffffffff16815260200190815260200160002054905081811015612937576040517f08c379a000000000000000000000000000000000000000000000000000000000815260040161292e9061332d565b60405180910390fd5b8181036000808673ffffffffffffffffffffffffffffffffffffffff1673ffffffffffffffffffffffffffffffffffffffff16815260200190815260200160002081905550816000808573ffffffffffffffffffffffffffffffffffffffff1673ffffffffffffffffffffffffffffffffffffffff16815260200190815260200160002060008282546129ca9190613531565b925050819055508273ffffffffffffffffffffffffffffffffffffffff168473ffffffffffffffffffffffffffffffffffffffff167fddf252ad1be2c89b69c2b068fc378daa952ba7f163c4a11628f55a4df523b3ef84604051612a2e919061346d565b60405180910390a3612a41848484612c23565b50505050565b600073ffffffffffffffffffffffffffffffffffffffff168273ffffffffffffffffffffffffffffffffffffffff161415612ab7576040517f08c379a0000000000000000000000000000000000000000000000000000000008152600401612aae906133ad565b60405180910390fd5b612ac382600083612c1e565b60008060008473ffffffffffffffffffffffffffffffffffffffff1673ffffffffffffffffffffffffffffffffffffffff16815260200190815260200160002054905081811015612b49576040517f08c379a0000000000000000000000000000000000000000000000000000000008152600401612b40906132cd565b60405180910390fd5b8181036000808573ffffffffffffffffffffffffffffffffffffffff1673ffffffffffffffffffffffffffffffffffffffff168152602001908152602001600020819055508160026000828254612ba09190613612565b92505081905550600073ffffffffffffffffffffffffffffffffffffffff168373ffffffffffffffffffffffffffffffffffffffff167fddf252ad1be2c89b69c2b068fc378daa952ba7f163c4a11628f55a4df523b3ef84604051612c05919061346d565b60405180910390a3612c1983600084612c23565b505050565b505050565b505050565b6000612c3b612c36846134c8565b6134a3565b905082815260208101848484011115612c5357600080fd5b612c5e8482856136e3565b509392505050565b600081359050612c7581613c23565b92915050565b600081519050612c8a81613c3a565b92915050565b600082601f830112612ca157600080fd5b8151612cb1848260208601612c28565b91505092915050565b600081359050612cc981613c51565b92915050565b600081519050612cde81613c51565b92915050565b600060208284031215612cf657600080fd5b6000612d0484828501612c66565b91505092915050565b60008060408385031215612d2057600080fd5b6000612d2e85828601612c66565b9250506020612d3f85828601612c66565b9150509250929050565b600080600060608486031215612d5e57600080fd5b6000612d6c86828701612c66565b9350506020612d7d86828701612c66565b9250506040612d8e86828701612cba565b9150509250925092565b60008060408385031215612dab57600080fd5b6000612db985828601612c66565b9250506020612dca85828601612cba565b9150509250929050565b600060208284031215612de657600080fd5b6000612df484828501612c7b565b91505092915050565b600060208284031215612e0f57600080fd5b600082015167ffffffffffffffff811115612e2957600080fd5b612e3584828501612c90565b91505092915050565b600060208284031215612e5057600080fd5b6000612e5e84828501612cba565b91505092915050565b600060208284031215612e7957600080fd5b6000612e8784828501612ccf565b91505092915050565b612e9981613646565b82525050565b612ea881613658565b82525050565b6000612eb9826134f9565b612ec3818561350f565b9350612ed38185602086016136e3565b612edc8161387e565b840191505092915050565b612ef08161369b565b82525050565b612eff816136ad565b82525050565b612f0e816136bf565b82525050565b612f1d816136d1565b82525050565b6000612f2e82613504565b612f388185613520565b9350612f488185602086016136e3565b612f518161387e565b840191505092915050565b6000612f69602383613520565b9150612f748261388f565b604082019050919050565b6000612f8c602283613520565b9150612f97826138de565b604082019050919050565b6000612faf602283613520565b9150612fba8261392d565b604082019050919050565b6000612fd2601d83613520565b9150612fdd8261397c565b602082019050919050565b6000612ff5602683613520565b9150613000826139a5565b604082019050919050565b6000613018601583613520565b9150613023826139f4565b602082019050919050565b600061303b601f83613520565b915061304682613a1d565b602082019050919050565b600061305e602083613520565b915061306982613a46565b602082019050919050565b6000613081602183613520565b915061308c82613a6f565b604082019050919050565b60006130a4602583613520565b91506130af82613abe565b604082019050919050565b60006130c7602483613520565b91506130d282613b0d565b604082019050919050565b60006130ea602283613520565b91506130f582613b5c565b604082019050919050565b600061310d602583613520565b915061311882613bab565b604082019050919050565b6000613130601f83613520565b915061313b82613bfa565b602082019050919050565b61314f81613684565b82525050565b61315e8161368e565b82525050565b60006020820190506131796000830184612e90565b92915050565b60006040820190506131946000830185612e90565b6131a16020830184612e90565b9392505050565b60006060820190506131bd6000830186612e90565b6131ca6020830185612e90565b6131d76040830184613146565b949350505050565b600060c0820190506131f46000830189612e90565b6132016020830188612ee7565b61320e6040830187612ef6565b61321b6060830186612f05565b6132286080830185612f14565b81810360a083015261323a8184612eae565b9050979650505050505050565b600060408201905061325c6000830185612e90565b6132696020830184613146565b9392505050565b60006020820190506132856000830184612e9f565b92915050565b600060208201905081810360008301526132a58184612f23565b905092915050565b600060208201905081810360008301526132c681612f5c565b9050919050565b600060208201905081810360008301526132e681612f7f565b9050919050565b6000602082019050818103600083015261330681612fa2565b9050919050565b6000602082019050818103600083015261332681612fc5565b9050919050565b6000602082019050818103600083015261334681612fe8565b9050919050565b600060208201905081810360008301526133668161300b565b9050919050565b600060208201905081810360008301526133868161302e565b9050919050565b600060208201905081810360008301526133a681613051565b9050919050565b600060208201905081810360008301526133c681613074565b9050919050565b600060208201905081810360008301526133e681613097565b9050919050565b60006020820190508181036000830152613406816130ba565b9050919050565b60006020820190508181036000830152613426816130dd565b9050919050565b6000602082019050818103600083015261344681613100565b9050919050565b6000602082019050818103600083015261346681613123565b9050919050565b60006020820190506134826000830184613146565b92915050565b600060208201905061349d6000830184613155565b92915050565b60006134ad6134be565b90506134b98282613748565b919050565b6000604051905090565b600067ffffffffffffffff8211156134e3576134e261384f565b5b6134ec8261387e565b9050602081019050919050565b600081519050919050565b600081519050919050565b600082825260208201905092915050565b600082825260208201905092915050565b600061353c82613684565b915061354783613684565b9250827fffffffffffffffffffffffffffffffffffffffffffffffffffffffffffffffff0382111561357c5761357b6137c2565b5b828201905092915050565b600061359282613684565b915061359d83613684565b9250826135ad576135ac6137f1565b5b828204905092915050565b60006135c382613684565b91506135ce83613684565b9250817fffffffffffffffffffffffffffffffffffffffffffffffffffffffffffffffff0483118215151615613607576136066137c2565b5b828202905092915050565b600061361d82613684565b915061362883613684565b92508282101561363b5761363a6137c2565b5b828203905092915050565b600061365182613664565b9050919050565b60008115159050919050565b600073ffffffffffffffffffffffffffffffffffffffff82169050919050565b6000819050919050565b600060ff82169050919050565b60006136a682613684565b9050919050565b60006136b882613684565b9050919050565b60006136ca82613684565b9050919050565b60006136dc82613684565b9050919050565b60005b838110156137015780820151818401526020810190506136e6565b83811115613710576000848401525b50505050565b6000600282049050600182168061372e57607f821691505b6020821081141561374257613741613820565b5b50919050565b6137518261387e565b810181811067ffffffffffffffff821117156137705761376f61384f565b5b80604052505050565b600061378482613684565b91507fffffffffffffffffffffffffffffffffffffffffffffffffffffffffffffffff8214156137b7576137b66137c2565b5b600182019050919050565b7f4e487b7100000000000000000000000000000000000000000000000000000000600052601160045260246000fd5b7f4e487b7100000000000000000000000000000000000000000000000000000000600052601260045260246000fd5b7f4e487b7100000000000000000000000000000000000000000000000000000000600052602260045260246000fd5b7f4e487b7100000000000000000000000000000000000000000000000000000000600052604160045260246000fd5b6000601f19601f8301169050919050565b7f45524332303a207472616e7366657220746f20746865207a65726f206164647260008201527f6573730000000000000000000000000000000000000000000000000000000000602082015250565b7f45524332303a206275726e20616d6f756e7420657863656564732062616c616e60008201527f6365000000000000000000000000000000000000000000000000000000000000602082015250565b7f45524332303a20617070726f766520746f20746865207a65726f20616464726560008201527f7373000000000000000000000000000000000000000000000000000000000000602082015250565b7f45524332303a20696e73756666696369656e7420616c6c6f77616e6365000000600082015250565b7f45524332303a207472616e7366657220616d6f756e742065786365656473206260008201527f616c616e63650000000000000000000000000000000000000000000000000000602082015250565b7f616374696f6e206f6e6c7920666f722061646d696e0000000000000000000000600082015250565b7f7573657220646f6573206e6f74206861766520656e6f7567682066756e647300600082015250565b7f616374696f6e206f6e6c7920666f722074686973207363206f722061646d696e600082015250565b7f45524332303a206275726e2066726f6d20746865207a65726f2061646472657360008201527f7300000000000000000000000000000000000000000000000000000000000000602082015250565b7f45524332303a207472616e736665722066726f6d20746865207a65726f20616460008201527f6472657373000000000000000000000000000000000000000000000000000000602082015250565b7f45524332303a20617070726f76652066726f6d20746865207a65726f2061646460008201527f7265737300000000000000000000000000000000000000000000000000000000602082015250565b7f636c69656e74206e6565647320746f20696e63726561736520616c6c6f77616e60008201527f6365000000000000000000000000000000000000000000000000000000000000602082015250565b7f45524332303a2064656372656173656420616c6c6f77616e63652062656c6f7760008201527f207a65726f000000000000000000000000000000000000000000000000000000602082015250565b7f45524332303a206d696e7420746f20746865207a65726f206164647265737300600082015250565b613c2c81613646565b8114613c3757600080fd5b50565b613c4381613658565b8114613c4e57600080fd5b50565b613c5a81613684565b8114613c6557600080fd5b5056fea264697066735822122002140af16b737c1787568fa3af24ce7499db1b0f5ca4e26548357224185229c264736f6c63430008040033",
  "linkReferences": {},
  "deployedLinkReferences": {}
}