{
  "_format": "hh-sol-artifact-1",
  "contractName": "ntt54StgyAUSDincome",
  "sourceName": "contracts/ntt54StgyAUSDincome.sol",
  "abi": [
    {
      "inputs": [
        {
          "internalType": "address",
          "name": "_stakingAddress",
          "type": "address"
        }
      ],
      "stateMutability": "nonpayable",
      "type": "constructor"
    },
    {
      "anonymous": false,
      "inputs": [
        {
          "indexed": true,
          "internalType": "address",
          "name": "owner",
          "type": "address"
        },
        {
          "indexed": true,
          "internalType": "address",
          "name": "spender",
          "type": "address"
        },
        {
          "indexed": false,
          "internalType": "uint256",
          "name": "value",
          "type": "uint256"
        }
      ],
      "name": "Approval",
      "type": "event"
    },
    {
      "anonymous": false,
      "inputs": [
        {
          "indexed": true,
          "internalType": "address",
          "name": "from",
          "type": "address"
        },
        {
          "indexed": true,
          "internalType": "address",
          "name": "to",
          "type": "address"
        },
        {
          "indexed": false,
          "internalType": "uint256",
          "name": "value",
          "type": "uint256"
        }
      ],
      "name": "Transfer",
      "type": "event"
    },
    {
      "inputs": [],
      "name": "ACA",
      "outputs": [
        {
          "internalType": "address",
          "name": "",
          "type": "address"
        }
      ],
      "stateMutability": "view",
      "type": "function"
    },
    {
      "inputs": [],
      "name": "AUSD",
      "outputs": [
        {
          "internalType": "address",
          "name": "",
          "type": "address"
        }
      ],
      "stateMutability": "view",
      "type": "function"
    },
    {
      "inputs": [],
      "name": "BNC",
      "outputs": [
        {
          "internalType": "address",
          "name": "",
          "type": "address"
        }
      ],
      "stateMutability": "view",
      "type": "function"
    },
    {
      "inputs": [],
      "name": "CASH",
      "outputs": [
        {
          "internalType": "address",
          "name": "",
          "type": "address"
        }
      ],
      "stateMutability": "view",
      "type": "function"
    },
    {
      "inputs": [],
      "name": "DEX",
      "outputs": [
        {
          "internalType": "address",
          "name": "",
          "type": "address"
        }
      ],
      "stateMutability": "view",
      "type": "function"
    },
    {
      "inputs": [],
      "name": "DOT",
      "outputs": [
        {
          "internalType": "address",
          "name": "",
          "type": "address"
        }
      ],
      "stateMutability": "view",
      "type": "function"
    },
    {
      "inputs": [],
      "name": "EVM",
      "outputs": [
        {
          "internalType": "address",
          "name": "",
          "type": "address"
        }
      ],
      "stateMutability": "view",
      "type": "function"
    },
    {
      "inputs": [],
      "name": "EVMAccounts",
      "outputs": [
        {
          "internalType": "address",
          "name": "",
          "type": "address"
        }
      ],
      "stateMutability": "view",
      "type": "function"
    },
    {
      "inputs": [],
      "name": "Homa",
      "outputs": [
        {
          "internalType": "address",
          "name": "",
          "type": "address"
        }
      ],
      "stateMutability": "view",
      "type": "function"
    },
    {
      "inputs": [],
      "name": "Honzon",
      "outputs": [
        {
          "internalType": "address",
          "name": "",
          "type": "address"
        }
      ],
      "stateMutability": "view",
      "type": "function"
    },
    {
      "inputs": [],
      "name": "KAR",
      "outputs": [
        {
          "internalType": "address",
          "name": "",
          "type": "address"
        }
      ],
      "stateMutability": "view",
      "type": "function"
    },
    {
      "inputs": [],
      "name": "KBTC",
      "outputs": [
        {
          "internalType": "address",
          "name": "",
          "type": "address"
        }
      ],
      "stateMutability": "view",
      "type": "function"
    },
    {
      "inputs": [],
      "name": "KINT",
      "outputs": [
        {
          "internalType": "address",
          "name": "",
          "type": "address"
        }
      ],
      "stateMutability": "view",
      "type": "function"
    },
    {
      "inputs": [],
      "name": "KSM",
      "outputs": [
        {
          "internalType": "address",
          "name": "",
          "type": "address"
        }
      ],
      "stateMutability": "view",
      "type": "function"
    },
    {
      "inputs": [],
      "name": "KUSD",
      "outputs": [
        {
          "internalType": "address",
          "name": "",
          "type": "address"
        }
      ],
      "stateMutability": "view",
      "type": "function"
    },
    {
      "inputs": [],
      "name": "LCDOT",
      "outputs": [
        {
          "internalType": "address",
          "name": "",
          "type": "address"
        }
      ],
      "stateMutability": "view",
      "type": "function"
    },
    {
      "inputs": [],
      "name": "LDOT",
      "outputs": [
        {
          "internalType": "address",
          "name": "",
          "type": "address"
        }
      ],
      "stateMutability": "view",
      "type": "function"
    },
    {
      "inputs": [],
      "name": "LKSM",
      "outputs": [
        {
          "internalType": "address",
          "name": "",
          "type": "address"
        }
      ],
      "stateMutability": "view",
      "type": "function"
    },
    {
      "inputs": [],
      "name": "LPTstake",
      "outputs": [
        {
          "internalType": "contract ntt54StakeDOT",
          "name": "",
          "type": "address"
        }
      ],
      "stateMutability": "view",
      "type": "function"
    },
    {
      "inputs": [],
      "name": "LP_ACA_AUSD",
      "outputs": [
        {
          "internalType": "address",
          "name": "",
          "type": "address"
        }
      ],
      "stateMutability": "view",
      "type": "function"
    },
    {
      "inputs": [],
      "name": "LP_DOT_AUSD",
      "outputs": [
        {
          "internalType": "address",
          "name": "",
          "type": "address"
        }
      ],
      "stateMutability": "view",
      "type": "function"
    },
    {
      "inputs": [],
      "name": "LP_KAR_KUSD",
      "outputs": [
        {
          "internalType": "address",
          "name": "",
          "type": "address"
        }
      ],
      "stateMutability": "view",
      "type": "function"
    },
    {
      "inputs": [],
      "name": "LP_KSM_KUSD",
      "outputs": [
        {
          "internalType": "address",
          "name": "",
          "type": "address"
        }
      ],
      "stateMutability": "view",
      "type": "function"
    },
    {
      "inputs": [],
      "name": "LP_LDOT_AUSD",
      "outputs": [
        {
          "internalType": "address",
          "name": "",
          "type": "address"
        }
      ],
      "stateMutability": "view",
      "type": "function"
    },
    {
      "inputs": [],
      "name": "LP_LKSM_KUSD",
      "outputs": [
        {
          "internalType": "address",
          "name": "",
          "type": "address"
        }
      ],
      "stateMutability": "view",
      "type": "function"
    },
    {
      "inputs": [],
      "name": "LP_RENBTC_AUSD",
      "outputs": [
        {
          "internalType": "address",
          "name": "",
          "type": "address"
        }
      ],
      "stateMutability": "view",
      "type": "function"
    },
    {
      "inputs": [],
      "name": "Oracle",
      "outputs": [
        {
          "internalType": "address",
          "name": "",
          "type": "address"
        }
      ],
      "stateMutability": "view",
      "type": "function"
    },
    {
      "inputs": [],
      "name": "PHA",
      "outputs": [
        {
          "internalType": "address",
          "name": "",
          "type": "address"
        }
      ],
      "stateMutability": "view",
      "type": "function"
    },
    {
      "inputs": [],
      "name": "RENBTC",
      "outputs": [
        {
          "internalType": "address",
          "name": "",
          "type": "address"
        }
      ],
      "stateMutability": "view",
      "type": "function"
    },
    {
      "inputs": [],
      "name": "SC_BALANCE_FEES",
      "outputs": [
        {
          "internalType": "uint256",
          "name": "",
          "type": "uint256"
        }
      ],
      "stateMutability": "view",
      "type": "function"
    },
    {
      "inputs": [],
      "name": "Schedule",
      "outputs": [
        {
          "internalType": "address",
          "name": "",
          "type": "address"
        }
      ],
      "stateMutability": "view",
      "type": "function"
    },
    {
      "inputs": [],
      "name": "TAI",
      "outputs": [
        {
          "internalType": "address",
          "name": "",
          "type": "address"
        }
      ],
      "stateMutability": "view",
      "type": "function"
    },
    {
      "inputs": [],
      "name": "TAI_3USD",
      "outputs": [
        {
          "internalType": "address",
          "name": "",
          "type": "address"
        }
      ],
      "stateMutability": "view",
      "type": "function"
    },
    {
      "inputs": [],
      "name": "TAI_DOT",
      "outputs": [
        {
          "internalType": "address",
          "name": "",
          "type": "address"
        }
      ],
      "stateMutability": "view",
      "type": "function"
    },
    {
      "inputs": [],
      "name": "TAI_KSM",
      "outputs": [
        {
          "internalType": "address",
          "name": "",
          "type": "address"
        }
      ],
      "stateMutability": "view",
      "type": "function"
    },
    {
      "inputs": [],
      "name": "VSKSM",
      "outputs": [
        {
          "internalType": "address",
          "name": "",
          "type": "address"
        }
      ],
      "stateMutability": "view",
      "type": "function"
    },
    {
      "inputs": [
        {
          "internalType": "uint256",
          "name": "",
          "type": "uint256"
        }
      ],
      "name": "accountsToRemove",
      "outputs": [
        {
          "internalType": "address",
          "name": "",
          "type": "address"
        }
      ],
      "stateMutability": "view",
      "type": "function"
    },
    {
      "inputs": [],
      "name": "admin",
      "outputs": [
        {
          "internalType": "address",
          "name": "",
          "type": "address"
        }
      ],
      "stateMutability": "view",
      "type": "function"
    },
    {
      "inputs": [
        {
          "internalType": "address",
          "name": "owner",
          "type": "address"
        },
        {
          "internalType": "address",
          "name": "spender",
          "type": "address"
        }
      ],
      "name": "allowance",
      "outputs": [
        {
          "internalType": "uint256",
          "name": "",
          "type": "uint256"
        }
      ],
      "stateMutability": "view",
      "type": "function"
    },
    {
      "inputs": [
        {
          "internalType": "address",
          "name": "spender",
          "type": "address"
        },
        {
          "internalType": "uint256",
          "name": "amount",
          "type": "uint256"
        }
      ],
      "name": "approve",
      "outputs": [
        {
          "internalType": "bool",
          "name": "",
          "type": "bool"
        }
      ],
      "stateMutability": "nonpayable",
      "type": "function"
    },
    {
      "inputs": [
        {
          "internalType": "address",
          "name": "account",
          "type": "address"
        }
      ],
      "name": "balanceOf",
      "outputs": [
        {
          "internalType": "uint256",
          "name": "",
          "type": "uint256"
        }
      ],
      "stateMutability": "view",
      "type": "function"
    },
    {
      "inputs": [],
      "name": "decimals",
      "outputs": [
        {
          "internalType": "uint8",
          "name": "",
          "type": "uint8"
        }
      ],
      "stateMutability": "view",
      "type": "function"
    },
    {
      "inputs": [
        {
          "internalType": "address",
          "name": "spender",
          "type": "address"
        },
        {
          "internalType": "uint256",
          "name": "subtractedValue",
          "type": "uint256"
        }
      ],
      "name": "decreaseAllowance",
      "outputs": [
        {
          "internalType": "bool",
          "name": "",
          "type": "bool"
        }
      ],
      "stateMutability": "nonpayable",
      "type": "function"
    },
    {
      "inputs": [
        {
          "internalType": "uint256",
          "name": "amount",
          "type": "uint256"
        }
      ],
      "name": "depositDOT",
      "outputs": [],
      "stateMutability": "nonpayable",
      "type": "function"
    },
    {
      "inputs": [],
      "name": "epochNumber",
      "outputs": [
        {
          "internalType": "uint256",
          "name": "",
          "type": "uint256"
        }
      ],
      "stateMutability": "view",
      "type": "function"
    },
    {
      "inputs": [],
      "name": "frequency",
      "outputs": [
        {
          "internalType": "uint256",
          "name": "",
          "type": "uint256"
        }
      ],
      "stateMutability": "view",
      "type": "function"
    },
    {
      "inputs": [
        {
          "internalType": "address",
          "name": "spender",
          "type": "address"
        },
        {
          "internalType": "uint256",
          "name": "addedValue",
          "type": "uint256"
        }
      ],
      "name": "increaseAllowance",
      "outputs": [
        {
          "internalType": "bool",
          "name": "",
          "type": "bool"
        }
      ],
      "stateMutability": "nonpayable",
      "type": "function"
    },
    {
      "inputs": [],
      "name": "manageProceeds",
      "outputs": [],
      "stateMutability": "nonpayable",
      "type": "function"
    },
    {
      "inputs": [],
      "name": "managingProceedsState",
      "outputs": [
        {
          "internalType": "bool",
          "name": "",
          "type": "bool"
        }
      ],
      "stateMutability": "view",
      "type": "function"
    },
    {
      "inputs": [],
      "name": "name",
      "outputs": [
        {
          "internalType": "string",
          "name": "",
          "type": "string"
        }
      ],
      "stateMutability": "view",
      "type": "function"
    },
    {
      "inputs": [
        {
          "internalType": "address",
          "name": "",
          "type": "address"
        }
      ],
      "name": "registeredToStakeUserAccounts",
      "outputs": [
        {
          "internalType": "bool",
          "name": "",
          "type": "bool"
        }
      ],
      "stateMutability": "view",
      "type": "function"
    },
    {
      "inputs": [
        {
          "internalType": "address",
          "name": "",
          "type": "address"
        }
      ],
      "name": "registeredToUnStakeUserAccounts",
      "outputs": [
        {
          "internalType": "bool",
          "name": "",
          "type": "bool"
        }
      ],
      "stateMutability": "view",
      "type": "function"
    },
    {
      "inputs": [
        {
          "internalType": "address",
          "name": "",
          "type": "address"
        }
      ],
      "name": "registeredUserAccounts",
      "outputs": [
        {
          "internalType": "bool",
          "name": "",
          "type": "bool"
        }
      ],
      "stateMutability": "view",
      "type": "function"
    },
    {
      "inputs": [
        {
          "internalType": "uint256",
          "name": "amount",
          "type": "uint256"
        }
      ],
      "name": "requestToUnstake",
      "outputs": [],
      "stateMutability": "nonpayable",
      "type": "function"
    },
    {
      "inputs": [],
      "name": "stakeFunds",
      "outputs": [],
      "stateMutability": "nonpayable",
      "type": "function"
    },
    {
      "inputs": [],
      "name": "stakingAddress",
      "outputs": [
        {
          "internalType": "address",
          "name": "",
          "type": "address"
        }
      ],
      "stateMutability": "view",
      "type": "function"
    },
    {
      "inputs": [],
      "name": "startManagingProcees",
      "outputs": [],
      "stateMutability": "nonpayable",
      "type": "function"
    },
    {
      "inputs": [],
      "name": "stopManagingProcees",
      "outputs": [],
      "stateMutability": "nonpayable",
      "type": "function"
    },
    {
      "inputs": [],
      "name": "symbol",
      "outputs": [
        {
          "internalType": "string",
          "name": "",
          "type": "string"
        }
      ],
      "stateMutability": "view",
      "type": "function"
    },
    {
      "inputs": [
        {
          "internalType": "uint256",
          "name": "",
          "type": "uint256"
        }
      ],
      "name": "toStakeUserAccounts",
      "outputs": [
        {
          "internalType": "address",
          "name": "",
          "type": "address"
        }
      ],
      "stateMutability": "view",
      "type": "function"
    },
    {
      "inputs": [
        {
          "internalType": "uint256",
          "name": "",
          "type": "uint256"
        }
      ],
      "name": "toUnStakeUserAccounts",
      "outputs": [
        {
          "internalType": "address",
          "name": "",
          "type": "address"
        }
      ],
      "stateMutability": "view",
      "type": "function"
    },
    {
      "inputs": [],
      "name": "totalACAavailableBalance",
      "outputs": [
        {
          "internalType": "uint256",
          "name": "",
          "type": "uint256"
        }
      ],
      "stateMutability": "view",
      "type": "function"
    },
    {
      "inputs": [],
      "name": "totalDOTinAccount",
      "outputs": [
        {
          "internalType": "uint256",
          "name": "",
          "type": "uint256"
        }
      ],
      "stateMutability": "view",
      "type": "function"
    },
    {
      "inputs": [],
      "name": "totalDOTtoUnstake",
      "outputs": [
        {
          "internalType": "uint256",
          "name": "",
          "type": "uint256"
        }
      ],
      "stateMutability": "view",
      "type": "function"
    },
    {
      "inputs": [],
      "name": "totalSupply",
      "outputs": [
        {
          "internalType": "uint256",
          "name": "",
          "type": "uint256"
        }
      ],
      "stateMutability": "view",
      "type": "function"
    },
    {
      "inputs": [],
      "name": "totalTargetAssetBalance",
      "outputs": [
        {
          "internalType": "uint256",
          "name": "",
          "type": "uint256"
        }
      ],
      "stateMutability": "view",
      "type": "function"
    },
    {
      "inputs": [
        {
          "internalType": "address",
          "name": "to",
          "type": "address"
        },
        {
          "internalType": "uint256",
          "name": "amount",
          "type": "uint256"
        }
      ],
      "name": "transfer",
      "outputs": [
        {
          "internalType": "bool",
          "name": "",
          "type": "bool"
        }
      ],
      "stateMutability": "nonpayable",
      "type": "function"
    },
    {
      "inputs": [
        {
          "internalType": "uint256",
          "name": "amount",
          "type": "uint256"
        }
      ],
      "name": "transferFeesBalance",
      "outputs": [],
      "stateMutability": "nonpayable",
      "type": "function"
    },
    {
      "inputs": [
        {
          "internalType": "address",
          "name": "from",
          "type": "address"
        },
        {
          "internalType": "address",
          "name": "to",
          "type": "address"
        },
        {
          "internalType": "uint256",
          "name": "amount",
          "type": "uint256"
        }
      ],
      "name": "transferFrom",
      "outputs": [
        {
          "internalType": "bool",
          "name": "",
          "type": "bool"
        }
      ],
      "stateMutability": "nonpayable",
      "type": "function"
    },
    {
      "inputs": [],
      "name": "unstakeFunds",
      "outputs": [],
      "stateMutability": "nonpayable",
      "type": "function"
    },
    {
      "inputs": [
        {
          "internalType": "uint256",
          "name": "_frequency",
          "type": "uint256"
        }
      ],
      "name": "updateFrequency",
      "outputs": [],
      "stateMutability": "nonpayable",
      "type": "function"
    },
    {
      "inputs": [
        {
          "internalType": "uint256",
          "name": "",
          "type": "uint256"
        }
      ],
      "name": "userAccounts",
      "outputs": [
        {
          "internalType": "address",
          "name": "",
          "type": "address"
        }
      ],
      "stateMutability": "view",
      "type": "function"
    },
    {
      "inputs": [
        {
          "internalType": "address",
          "name": "",
          "type": "address"
        },
        {
          "internalType": "address",
          "name": "",
          "type": "address"
        }
      ],
      "name": "userBalances",
      "outputs": [
        {
          "internalType": "uint256",
          "name": "",
          "type": "uint256"
        }
      ],
      "stateMutability": "view",
      "type": "function"
    },
    {
      "inputs": [
        {
          "internalType": "address",
          "name": "",
          "type": "address"
        }
      ],
      "name": "userUnstakingBalances",
      "outputs": [
        {
          "internalType": "uint256",
          "name": "",
          "type": "uint256"
        }
      ],
      "stateMutability": "view",
      "type": "function"
    }
  ],
  "bytecode": "0x6080604052610803600560006101000a81548173ffffffffffffffffffffffffffffffffffffffff021916908373ffffffffffffffffffffffffffffffffffffffff160217905550610802600660006101000a81548173ffffffffffffffffffffffffffffffffffffffff021916908373ffffffffffffffffffffffffffffffffffffffff1602179055506014600a556001600b60006101000a81548160ff0219169083151502179055506000600e556000601a556000601b55348015620000c657600080fd5b5060405162005713380380620057138339818101604052810190620000ec9190620004ee565b6040518060400160405280600d81526020017f4c702053747261746567792031000000000000000000000000000000000000008152506040518060400160405280600481526020017f535447310000000000000000000000000000000000000000000000000000000081525081600390805190602001906200017092919062000410565b5080600490805190602001906200018992919062000410565b50505033600d60006101000a81548173ffffffffffffffffffffffffffffffffffffffff021916908373ffffffffffffffffffffffffffffffffffffffff1602179055506a0100000000000000000002600760006101000a81548173ffffffffffffffffffffffffffffffffffffffff021916908373ffffffffffffffffffffffffffffffffffffffff1602179055506a0100000000000000000001600860006101000a81548173ffffffffffffffffffffffffffffffffffffffff021916908373ffffffffffffffffffffffffffffffffffffffff1602179055506a0100000000000000000000600960006101000a81548173ffffffffffffffffffffffffffffffffffffffff021916908373ffffffffffffffffffffffffffffffffffffffff16021790555080600c60006101000a81548173ffffffffffffffffffffffffffffffffffffffff021916908373ffffffffffffffffffffffffffffffffffffffff16021790555080600b60016101000a81548173ffffffffffffffffffffffffffffffffffffffff021916908373ffffffffffffffffffffffffffffffffffffffff160217905550600760009054906101000a900473ffffffffffffffffffffffffffffffffffffffff1673ffffffffffffffffffffffffffffffffffffffff1663095ea7b3827fffffffffffffffffffffffffffffffffffffffffffffffffffffffffffffffff6040518363ffffffff1660e01b8152600401620003b292919062000568565b602060405180830381600087803b158015620003cd57600080fd5b505af1158015620003e2573d6000803e3d6000fd5b505050506040513d601f19601f820116820180604052508101906200040891906200051a565b505062000678565b8280546200041e90620005df565b90600052602060002090601f0160209004810192826200044257600085556200048e565b82601f106200045d57805160ff19168380011785556200048e565b828001600101855582156200048e579182015b828111156200048d57825182559160200191906001019062000470565b5b5090506200049d9190620004a1565b5090565b5b80821115620004bc576000816000905550600101620004a2565b5090565b600081519050620004d18162000644565b92915050565b600081519050620004e8816200065e565b92915050565b6000602082840312156200050157600080fd5b60006200051184828501620004c0565b91505092915050565b6000602082840312156200052d57600080fd5b60006200053d84828501620004d7565b91505092915050565b620005518162000595565b82525050565b6200056281620005d5565b82525050565b60006040820190506200057f600083018562000546565b6200058e602083018462000557565b9392505050565b6000620005a282620005b5565b9050919050565b60008115159050919050565b600073ffffffffffffffffffffffffffffffffffffffff82169050919050565b6000819050919050565b60006002820490506001821680620005f857607f821691505b602082108114156200060f576200060e62000615565b5b50919050565b7f4e487b7100000000000000000000000000000000000000000000000000000000600052602260045260246000fd5b6200064f8162000595565b81146200065b57600080fd5b50565b6200066981620005a9565b81146200067557600080fd5b50565b61508b80620006886000396000f3fe608060405234801561001057600080fd5b506004361061043d5760003560e01c806380bd60e811610236578063c6bd6a9a1161013b578063e18b7ac5116100c3578063f4145a8311610087578063f4145a8314610cfa578063f589b63d14610d18578063f851a44014610d36578063fbc78d9c14610d54578063fd45892114610d845761043d565b8063e18b7ac514610c78578063ead50da314610c96578063ef9c67de14610cb4578063f24a534e14610cbe578063f29588c714610cdc5761043d565b8063d54dc1ab1161010a578063d54dc1ab14610bd0578063d7b4be2414610bee578063d7f269fe14610c0c578063d9dc7fcd14610c2a578063dd62ed3e14610c485761043d565b8063c6bd6a9a14610b6e578063c84dd46614610b8c578063c86a6f9714610b96578063d2c03d4914610bb45761043d565b8063a9059cbb116101be578063baae44861161018d578063baae448614610ab4578063bacbd7cc14610ae4578063c30054c014610b02578063c496981514610b20578063c5e1246114610b3e5761043d565b8063a9059cbb14610a18578063adb5198014610a48578063b0dadb7b14610a78578063b3d27bc514610a965761043d565b806395d89b411161020557806395d89b411461097257806399ba0bc214610990578063a1b56226146109ac578063a457c2d7146109ca578063a5770a54146109fa5761043d565b806380bd60e8146108e857806388cd0c33146109065780638fe507371461092457806392afbebf146109425761043d565b80632fd7d1fd116103475780635d499e82116102cf5780636b80a04c116102935780636b80a04c146108405780636cd83f181461085e57806370a082311461087c578063783dc03d146108ac57806380935aa9146108ca5761043d565b80635d499e82146107c05780635e796bf7146107de5780636022c7ab146107e8578063616d50581461080657806365a35a7e146108365761043d565b806336e029501161031657806336e0295014610718578063395093511461073657806341da8653146107665780634260f9f2146107845780634b5edf9c146107a25761043d565b80632fd7d1fd1461068e578063313ce567146106ac578063332b246c146106ca578063351f5f3d146106fa5761043d565b806318dca9ba116103ca5780631fa1f9e8116103995780631fa1f9e8146105e857806323b872dd146105f2578063280d106014610622578063280d5b41146106405780632a0719fa1461065e5761043d565b806318dca9ba1461055e57806319550da41461057c57806319ceb5681461059a5780631f927675146105ca5761043d565b8063095ea7b311610411578063095ea7b3146104b65780630a4cad6b146104e65780630bea593a1461050457806318160ddd1461052257806318ad37af146105405761043d565b80628db20414610442578063030754d11461045e578063035238471461047c57806306fdde0314610498575b600080fd5b61045c60048036038101906104579190613f8d565b610da2565b005b6104666112b4565b604051610473919061475f565b60405180910390f35b61049660048036038101906104919190613f8d565b6112ba565b005b6104a0611548565b6040516104ad919061453d565b60405180910390f35b6104d060048036038101906104cb9190613ee7565b6115da565b6040516104dd9190614507565b60405180910390f35b6104ee6115fd565b6040516104fb919061438d565b60405180910390f35b61050c61160c565b604051610519919061438d565b60405180910390f35b61052a61161b565b604051610537919061475f565b60405180910390f35b610548611625565b604051610555919061438d565b60405180910390f35b610566611634565b604051610573919061438d565b60405180910390f35b610584611643565b604051610591919061438d565b60405180910390f35b6105b460048036038101906105af9190613e33565b611652565b6040516105c19190614507565b60405180910390f35b6105d2611672565b6040516105df919061438d565b60405180910390f35b6105f0611681565b005b61060c60048036038101906106079190613e98565b611eed565b6040516106199190614507565b60405180910390f35b61062a611f1c565b604051610637919061438d565b60405180910390f35b610648611f2b565b604051610655919061475f565b60405180910390f35b61067860048036038101906106739190613f8d565b611f35565b604051610685919061438d565b60405180910390f35b610696611f74565b6040516106a3919061438d565b60405180910390f35b6106b4611f83565b6040516106c1919061477a565b60405180910390f35b6106e460048036038101906106df9190613e33565b611f8c565b6040516106f19190614507565b60405180910390f35b610702611fac565b60405161070f919061438d565b60405180910390f35b610720611fb2565b60405161072d919061438d565b60405180910390f35b610750600480360381019061074b9190613ee7565b611fc1565b60405161075d9190614507565b60405180910390f35b61076e611ff8565b60405161077b919061438d565b60405180910390f35b61078c612007565b6040516107999190614522565b60405180910390f35b6107aa61202d565b6040516107b79190614507565b60405180910390f35b6107c8612040565b6040516107d5919061438d565b60405180910390f35b6107e661204f565b005b6107f0612104565b6040516107fd919061438d565b60405180910390f35b610820600480360381019061081b9190613f8d565b612113565b60405161082d919061438d565b60405180910390f35b61083e612152565b005b6108486125a6565b604051610855919061438d565b60405180910390f35b6108666125ac565b604051610873919061438d565b60405180910390f35b61089660048036038101906108919190613e33565b6125bb565b6040516108a3919061475f565b60405180910390f35b6108b4612603565b6040516108c1919061438d565b60405180910390f35b6108d2612612565b6040516108df919061438d565b60405180910390f35b6108f0612618565b6040516108fd919061438d565b60405180910390f35b61090e612627565b60405161091b919061475f565b60405180910390f35b61092c61262d565b604051610939919061475f565b60405180910390f35b61095c60048036038101906109579190613e33565b612633565b6040516109699190614507565b60405180910390f35b61097a612653565b604051610987919061453d565b60405180910390f35b6109aa60048036038101906109a59190613f8d565b6126e5565b005b6109b46126ef565b6040516109c1919061438d565b60405180910390f35b6109e460048036038101906109df9190613ee7565b6126fe565b6040516109f19190614507565b60405180910390f35b610a02612775565b604051610a0f919061438d565b60405180910390f35b610a326004803603810190610a2d9190613ee7565b612784565b604051610a3f9190614507565b60405180910390f35b610a626004803603810190610a5d9190613e5c565b6127a7565b604051610a6f919061475f565b60405180910390f35b610a806127cc565b604051610a8d919061438d565b60405180910390f35b610a9e6127d2565b604051610aab919061438d565b60405180910390f35b610ace6004803603810190610ac99190613f8d565b6127e1565b604051610adb919061438d565b60405180910390f35b610aec612820565b604051610af9919061438d565b60405180910390f35b610b0a61282f565b604051610b17919061438d565b60405180910390f35b610b2861283e565b604051610b35919061438d565b60405180910390f35b610b586004803603810190610b539190613e33565b61284d565b604051610b65919061475f565b60405180910390f35b610b76612865565b604051610b83919061438d565b60405180910390f35b610b9461286b565b005b610b9e612918565b604051610bab919061475f565b60405180910390f35b610bce6004803603810190610bc99190613f8d565b61291e565b005b610bd86129d3565b604051610be5919061438d565b60405180910390f35b610bf66129e2565b604051610c03919061438d565b60405180910390f35b610c14612a08565b604051610c21919061438d565b60405180910390f35b610c32612a17565b604051610c3f919061438d565b60405180910390f35b610c626004803603810190610c5d9190613e5c565b612a1d565b604051610c6f919061475f565b60405180910390f35b610c80612aa4565b604051610c8d919061438d565b60405180910390f35b610c9e612ab3565b604051610cab919061475f565b60405180910390f35b610cbc612ab9565b005b610cc6613058565b604051610cd3919061438d565b60405180910390f35b610ce461305e565b604051610cf1919061438d565b60405180910390f35b610d0261306d565b604051610d0f919061475f565b60405180910390f35b610d20613073565b604051610d2d919061438d565b60405180910390f35b610d3e613082565b604051610d4b919061438d565b60405180910390f35b610d6e6004803603810190610d699190613f8d565b6130a8565b604051610d7b919061438d565b60405180910390f35b610d8c6130e7565b604051610d99919061438d565b60405180910390f35b600760009054906101000a900473ffffffffffffffffffffffffffffffffffffffff1673ffffffffffffffffffffffffffffffffffffffff1663dd62ed3e33306040518363ffffffff1660e01b8152600401610dff9291906143a8565b60206040518083038186803b158015610e1757600080fd5b505afa158015610e2b573d6000803e3d6000fd5b505050506040513d601f19601f82011682018060405250810190610e4f9190613fb6565b811115610e91576040517f08c379a0000000000000000000000000000000000000000000000000000000008152600401610e88906146ff565b60405180910390fd5b601260003373ffffffffffffffffffffffffffffffffffffffff1673ffffffffffffffffffffffffffffffffffffffff16815260200190815260200160002060009054906101000a900460ff16610f9e576001601260003373ffffffffffffffffffffffffffffffffffffffff1673ffffffffffffffffffffffffffffffffffffffff16815260200190815260200160002060006101000a81548160ff0219169083151502179055506011339080600181540180825580915050600190039060005260206000200160009091909190916101000a81548173ffffffffffffffffffffffffffffffffffffffff021916908373ffffffffffffffffffffffffffffffffffffffff1602179055505b600760009054906101000a900473ffffffffffffffffffffffffffffffffffffffff1673ffffffffffffffffffffffffffffffffffffffff166323b872dd3330846040518463ffffffff1660e01b8152600401610ffd939291906143d1565b602060405180830381600087803b15801561101757600080fd5b505af115801561102b573d6000803e3d6000fd5b505050506040513d601f19601f8201168201806040525081019061104f9190613f23565b5080601360006a010000000000000000000273ffffffffffffffffffffffffffffffffffffffff1673ffffffffffffffffffffffffffffffffffffffff16815260200190815260200160002060003373ffffffffffffffffffffffffffffffffffffffff1673ffffffffffffffffffffffffffffffffffffffff16815260200190815260200160002060008282546110e7919061485c565b925050819055506110f833826130f6565b80601360003073ffffffffffffffffffffffffffffffffffffffff1673ffffffffffffffffffffffffffffffffffffffff16815260200190815260200160002060003373ffffffffffffffffffffffffffffffffffffffff1673ffffffffffffffffffffffffffffffffffffffff1681526020019081526020016000206000828254611184919061485c565b9250508190555080600f600082825461119d919061485c565b92505081905550601560003373ffffffffffffffffffffffffffffffffffffffff1673ffffffffffffffffffffffffffffffffffffffff16815260200190815260200160002060009054906101000a900460ff166112b1576001601560003373ffffffffffffffffffffffffffffffffffffffff1673ffffffffffffffffffffffffffffffffffffffff16815260200190815260200160002060006101000a81548160ff0219169083151502179055506014339080600181540180825580915050600190039060005260206000200160009091909190916101000a81548173ffffffffffffffffffffffffffffffffffffffff021916908373ffffffffffffffffffffffffffffffffffffffff1602179055505b50565b60105481565b6000601860003373ffffffffffffffffffffffffffffffffffffffff1673ffffffffffffffffffffffffffffffffffffffff16815260200190815260200160002054601360003073ffffffffffffffffffffffffffffffffffffffff1673ffffffffffffffffffffffffffffffffffffffff16815260200190815260200160002060003373ffffffffffffffffffffffffffffffffffffffff1673ffffffffffffffffffffffffffffffffffffffff16815260200190815260200160002054611383919061493d565b9050808211156113c8576040517f08c379a00000000000000000000000000000000000000000000000000000000081526004016113bf906145ff565b60405180910390fd5b601760003373ffffffffffffffffffffffffffffffffffffffff1673ffffffffffffffffffffffffffffffffffffffff16815260200190815260200160002060009054906101000a900460ff166114d5576001601760003373ffffffffffffffffffffffffffffffffffffffff1673ffffffffffffffffffffffffffffffffffffffff16815260200190815260200160002060006101000a81548160ff0219169083151502179055506016339080600181540180825580915050600190039060005260206000200160009091909190916101000a81548173ffffffffffffffffffffffffffffffffffffffff021916908373ffffffffffffffffffffffffffffffffffffffff1602179055505b81601860003373ffffffffffffffffffffffffffffffffffffffff1673ffffffffffffffffffffffffffffffffffffffff1681526020019081526020016000206000828254611524919061485c565b92505081905550816010600082825461153d919061485c565b925050819055505050565b60606003805461155790614a65565b80601f016020809104026020016040519081016040528092919081815260200182805461158390614a65565b80156115d05780601f106115a5576101008083540402835291602001916115d0565b820191906000526020600020905b8154815290600101906020018083116115b357829003601f168201915b5050505050905090565b6000806115e5613256565b90506115f281858561325e565b600191505092915050565b6a020000000002000000000181565b6a040000000000000000000d81565b6000600254905090565b6a010000000000000000008181565b6a020000000014000000000181565b6a01000000000000000000ac81565b60176020528060005260406000206000915054906101000a900460ff1681565b6a010000000000000000008381565b3073ffffffffffffffffffffffffffffffffffffffff163373ffffffffffffffffffffffffffffffffffffffff1614806117085750600d60009054906101000a900473ffffffffffffffffffffffffffffffffffffffff1673ffffffffffffffffffffffffffffffffffffffff163373ffffffffffffffffffffffffffffffffffffffff16145b611747576040517f08c379a000000000000000000000000000000000000000000000000000000000815260040161173e9061465f565b60405180910390fd5b600b60009054906101000a900460ff1615611eeb57600960009054906101000a900473ffffffffffffffffffffffffffffffffffffffff1673ffffffffffffffffffffffffffffffffffffffff166370a08231306040518263ffffffff1660e01b81526004016117b7919061438d565b60206040518083038186803b1580156117cf57600080fd5b505afa1580156117e3573d6000803e3d6000fd5b505050506040513d601f19601f820116820180604052508101906118079190613fb6565b601a8190555060008060118054905011801561182a57506501d1a94a2000601a54115b15611d92576501d1a94a2000601a6000828254611847919061493d565b925050819055506000600267ffffffffffffffff811115611891577f4e487b7100000000000000000000000000000000000000000000000000000000600052604160045260246000fd5b6040519080825280602002602001820160405280156118bf5781602001602082028036833780820191505090505b5090506a010000000000000000000081600081518110611908577f4e487b7100000000000000000000000000000000000000000000000000000000600052603260045260246000fd5b602002602001019073ffffffffffffffffffffffffffffffffffffffff16908173ffffffffffffffffffffffffffffffffffffffff16815250506a010000000000000000000181600181518110611988577f4e487b7100000000000000000000000000000000000000000000000000000000600052603260045260246000fd5b602002602001019073ffffffffffffffffffffffffffffffffffffffff16908173ffffffffffffffffffffffffffffffffffffffff16815250506000600560009054906101000a900473ffffffffffffffffffffffffffffffffffffffff1673ffffffffffffffffffffffffffffffffffffffff16634d60beb183601a546040518363ffffffff1660e01b8152600401611a23929190614499565b60206040518083038186803b158015611a3b57600080fd5b505afa158015611a4f573d6000803e3d6000fd5b505050506040513d601f19601f82011682018060405250810190611a739190613fb6565b9050600560009054906101000a900473ffffffffffffffffffffffffffffffffffffffff1673ffffffffffffffffffffffffffffffffffffffff16636fc4b4e583601a5460016040518463ffffffff1660e01b8152600401611ad7939291906144c9565b602060405180830381600087803b158015611af157600080fd5b505af1158015611b05573d6000803e3d6000fd5b505050506040513d601f19601f82011682018060405250810190611b299190613f23565b611b68576040517f08c379a0000000000000000000000000000000000000000000000000000000008152600401611b5f9061457f565b60405180910390fd5b80601b819055506001600e6000828254611b82919061485c565b9250508190555060005b601180549050811015611d8e5760006001601180549050611bad919061493d565b821015611c5557611bbc61161b565b601b54611c2c60118581548110611bfc577f4e487b7100000000000000000000000000000000000000000000000000000000600052603260045260246000fd5b9060005260206000200160009054906101000a900473ffffffffffffffffffffffffffffffffffffffff166125bb565b611c3691906148e3565b611c4091906148b2565b90508085611c4e919061485c565b9450611c66565b84601b54611c63919061493d565b90505b600860009054906101000a900473ffffffffffffffffffffffffffffffffffffffff1673ffffffffffffffffffffffffffffffffffffffff1663a9059cbb60118481548110611cde577f4e487b7100000000000000000000000000000000000000000000000000000000600052603260045260246000fd5b9060005260206000200160009054906101000a900473ffffffffffffffffffffffffffffffffffffffff16836040518363ffffffff1660e01b8152600401611d27929190614470565b602060405180830381600087803b158015611d4157600080fd5b505af1158015611d55573d6000803e3d6000fd5b505050506040513d601f19601f82011682018060405250810190611d799190613f23565b50508080611d8690614ac8565b915050611b8c565b5050505b611d9a612152565b611da2612ab9565b600660009054906101000a900473ffffffffffffffffffffffffffffffffffffffff1673ffffffffffffffffffffffffffffffffffffffff1663168d560d306000620f4240611388600a546040516024016040516020818303038152906040527f1fa1f9e8000000000000000000000000000000000000000000000000000000007bffffffffffffffffffffffffffffffffffffffffffffffffffffffff19166020820180517bffffffffffffffffffffffffffffffffffffffffffffffffffffffff83818316178352505050506040518763ffffffff1660e01b8152600401611e9196959493929190614408565b600060405180830381600087803b158015611eab57600080fd5b505af1158015611ebf573d6000803e3d6000fd5b505050506040513d6000823e3d601f19601f82011682018060405250810190611ee89190613f4c565b50505b565b600080611ef8613256565b9050611f05858285613429565b611f108585856134b5565b60019150509392505050565b6a030000000000000000000081565b6501d1a94a200081565b60168181548110611f4557600080fd5b906000526020600020016000915054906101000a900473ffffffffffffffffffffffffffffffffffffffff1681565b6a010000000000000000000181565b60006012905090565b60156020528060005260406000206000915054906101000a900460ff1681565b61080581565b6a010000000000000000000281565b600080611fcc613256565b9050611fed818585611fde8589612a1d565b611fe8919061485c565b61325e565b600191505092915050565b6a030000000000000000000081565b600b60019054906101000a900473ffffffffffffffffffffffffffffffffffffffff1681565b600b60009054906101000a900460ff1681565b6a020000000082000000008181565b600d60009054906101000a900473ffffffffffffffffffffffffffffffffffffffff1673ffffffffffffffffffffffffffffffffffffffff163373ffffffffffffffffffffffffffffffffffffffff16146120df576040517f08c379a00000000000000000000000000000000000000000000000000000000081526004016120d69061463f565b60405180910390fd5b6120e7611681565b6001600b60006101000a81548160ff021916908315150217905550565b6a010000000000000000000381565b6011818154811061212357600080fd5b906000526020600020016000915054906101000a900473ffffffffffffffffffffffffffffffffffffffff1681565b600060148054905011801561216957506000600f54115b156125a457600b60019054906101000a900473ffffffffffffffffffffffffffffffffffffffff1673ffffffffffffffffffffffffffffffffffffffff16628db204600f546040518263ffffffff1660e01b81526004016121ca919061475f565b600060405180830381600087803b1580156121e457600080fd5b505af11580156121f8573d6000803e3d6000fd5b5050505060005b60148054905081101561251457601360006a010000000000000000000273ffffffffffffffffffffffffffffffffffffffff1673ffffffffffffffffffffffffffffffffffffffff168152602001908152602001600020600060148381548110612292577f4e487b7100000000000000000000000000000000000000000000000000000000600052603260045260246000fd5b9060005260206000200160009054906101000a900473ffffffffffffffffffffffffffffffffffffffff1673ffffffffffffffffffffffffffffffffffffffff1673ffffffffffffffffffffffffffffffffffffffff1681526020019081526020016000205460136000600c60009054906101000a900473ffffffffffffffffffffffffffffffffffffffff1673ffffffffffffffffffffffffffffffffffffffff1673ffffffffffffffffffffffffffffffffffffffff168152602001908152602001600020600060148481548110612395577f4e487b7100000000000000000000000000000000000000000000000000000000600052603260045260246000fd5b9060005260206000200160009054906101000a900473ffffffffffffffffffffffffffffffffffffffff1673ffffffffffffffffffffffffffffffffffffffff1673ffffffffffffffffffffffffffffffffffffffff1681526020019081526020016000206000828254612409919061485c565b925050819055506000601360006a010000000000000000000273ffffffffffffffffffffffffffffffffffffffff1673ffffffffffffffffffffffffffffffffffffffff168152602001908152602001600020600060148481548110612498577f4e487b7100000000000000000000000000000000000000000000000000000000600052603260045260246000fd5b9060005260206000200160009054906101000a900473ffffffffffffffffffffffffffffffffffffffff1673ffffffffffffffffffffffffffffffffffffffff1673ffffffffffffffffffffffffffffffffffffffff16815260200190815260200160002081905550808061250c90614ac8565b9150506121ff565b50600067ffffffffffffffff811115612556577f4e487b7100000000000000000000000000000000000000000000000000000000600052604160045260246000fd5b6040519080825280602002602001820160405280156125845781602001602082028036833780820191505090505b506014908051906020019061259a929190613cd0565b506000600f819055505b565b61080681565b6a01000000000000000000aa81565b60008060008373ffffffffffffffffffffffffffffffffffffffff1673ffffffffffffffffffffffffffffffffffffffff168152602001908152602001600020549050919050565b6a010000000000000000008481565b61080381565b6a020000000080000000008181565b601b5481565b600f5481565b60126020528060005260406000206000915054906101000a900460ff1681565b60606004805461266290614a65565b80601f016020809104026020016040519081016040528092919081815260200182805461268e90614a65565b80156126db5780601f106126b0576101008083540402835291602001916126db565b820191906000526020600020905b8154815290600101906020018083116126be57829003601f168201915b5050505050905090565b80600a8190555050565b6a010000000000000000000081565b600080612709613256565b905060006127178286612a1d565b90508381101561275c576040517f08c379a00000000000000000000000000000000000000000000000000000000081526004016127539061471f565b60405180910390fd5b612769828686840361325e565b60019250505092915050565b6a020000000000000000000181565b60008061278f613256565b905061279c8185856134b5565b600191505092915050565b6013602052816000526040600020602052806000526040600020600091509150505481565b61080281565b6a010000000000000000008081565b601481815481106127f157600080fd5b906000526020600020016000915054906101000a900473ffffffffffffffffffffffffffffffffffffffff1681565b6a020000000083000000008181565b6a010000000000000000008281565b6a010000000000000000001581565b60186020528060005260406000206000915090505481565b61080781565b600d60009054906101000a900473ffffffffffffffffffffffffffffffffffffffff1673ffffffffffffffffffffffffffffffffffffffff163373ffffffffffffffffffffffffffffffffffffffff16146128fb576040517f08c379a00000000000000000000000000000000000000000000000000000000081526004016128f29061463f565b60405180910390fd5b6000600b60006101000a81548160ff021916908315150217905550565b601a5481565b600960009054906101000a900473ffffffffffffffffffffffffffffffffffffffff1673ffffffffffffffffffffffffffffffffffffffff166323b872dd3330846040518463ffffffff1660e01b815260040161297d939291906143d1565b602060405180830381600087803b15801561299757600080fd5b505af11580156129ab573d6000803e3d6000fd5b505050506040513d601f19601f820116820180604052508101906129cf9190613f23565b5050565b6a01000000000000000000ab81565b600c60009054906101000a900473ffffffffffffffffffffffffffffffffffffffff1681565b6a010000000000000000001481565b61080081565b6000600160008473ffffffffffffffffffffffffffffffffffffffff1673ffffffffffffffffffffffffffffffffffffffff16815260200190815260200160002060008373ffffffffffffffffffffffffffffffffffffffff1673ffffffffffffffffffffffffffffffffffffffff16815260200190815260200160002054905092915050565b6a020000000003000000000181565b600a5481565b6000601680549050118015612ad057506000601054115b1561305657600b60019054906101000a900473ffffffffffffffffffffffffffffffffffffffff1673ffffffffffffffffffffffffffffffffffffffff1663d58e49d66010546040518263ffffffff1660e01b8152600401612b32919061475f565b600060405180830381600087803b158015612b4c57600080fd5b505af1158015612b60573d6000803e3d6000fd5b5050505060005b601680549050811015612fbe57600060168281548110612bb0577f4e487b7100000000000000000000000000000000000000000000000000000000600052603260045260246000fd5b9060005260206000200160009054906101000a900473ffffffffffffffffffffffffffffffffffffffff1690506000601860008373ffffffffffffffffffffffffffffffffffffffff1673ffffffffffffffffffffffffffffffffffffffff1681526020019081526020016000205490508060136000600c60009054906101000a900473ffffffffffffffffffffffffffffffffffffffff1673ffffffffffffffffffffffffffffffffffffffff1673ffffffffffffffffffffffffffffffffffffffff16815260200190815260200160002060008473ffffffffffffffffffffffffffffffffffffffff1673ffffffffffffffffffffffffffffffffffffffff1681526020019081526020016000206000828254612ccf919061493d565b92505081905550612ce08282613736565b80601360003073ffffffffffffffffffffffffffffffffffffffff1673ffffffffffffffffffffffffffffffffffffffff16815260200190815260200160002060008473ffffffffffffffffffffffffffffffffffffffff1673ffffffffffffffffffffffffffffffffffffffff1681526020019081526020016000206000828254612d6c919061493d565b925050819055506000601360003073ffffffffffffffffffffffffffffffffffffffff1673ffffffffffffffffffffffffffffffffffffffff16815260200190815260200160002060008473ffffffffffffffffffffffffffffffffffffffff1673ffffffffffffffffffffffffffffffffffffffff168152602001908152602001600020541415612e5c576019829080600181540180825580915050600190039060005260206000200160009091909190916101000a81548173ffffffffffffffffffffffffffffffffffffffff021916908373ffffffffffffffffffffffffffffffffffffffff1602179055505b600760009054906101000a900473ffffffffffffffffffffffffffffffffffffffff1673ffffffffffffffffffffffffffffffffffffffff1663a9059cbb83836040518363ffffffff1660e01b8152600401612eb9929190614470565b602060405180830381600087803b158015612ed357600080fd5b505af1158015612ee7573d6000803e3d6000fd5b505050506040513d601f19601f82011682018060405250810190612f0b9190613f23565b506000601760008473ffffffffffffffffffffffffffffffffffffffff1673ffffffffffffffffffffffffffffffffffffffff16815260200190815260200160002060006101000a81548160ff0219169083151502179055506000601860008473ffffffffffffffffffffffffffffffffffffffff1673ffffffffffffffffffffffffffffffffffffffff1681526020019081526020016000208190555050508080612fb690614ac8565b915050612b67565b50600067ffffffffffffffff811115613000577f4e487b7100000000000000000000000000000000000000000000000000000000600052604160045260246000fd5b60405190808252806020026020018201604052801561302e5781602001602082028036833780820191505090505b5060169080519060200190613044929190613cd0565b50600060108190555061305561390d565b5b565b61080181565b6a01000000000000000000a881565b600e5481565b6a030000000000000000000181565b600d60009054906101000a900473ffffffffffffffffffffffffffffffffffffffff1681565b601981815481106130b857600080fd5b906000526020600020016000915054906101000a900473ffffffffffffffffffffffffffffffffffffffff1681565b6a01000000000000000000a981565b600073ffffffffffffffffffffffffffffffffffffffff168273ffffffffffffffffffffffffffffffffffffffff161415613166576040517f08c379a000000000000000000000000000000000000000000000000000000000815260040161315d9061473f565b60405180910390fd5b61317260008383613cc6565b8060026000828254613184919061485c565b92505081905550806000808473ffffffffffffffffffffffffffffffffffffffff1673ffffffffffffffffffffffffffffffffffffffff16815260200190815260200160002060008282546131d9919061485c565b925050819055508173ffffffffffffffffffffffffffffffffffffffff16600073ffffffffffffffffffffffffffffffffffffffff167fddf252ad1be2c89b69c2b068fc378daa952ba7f163c4a11628f55a4df523b3ef8360405161323e919061475f565b60405180910390a361325260008383613ccb565b5050565b600033905090565b600073ffffffffffffffffffffffffffffffffffffffff168373ffffffffffffffffffffffffffffffffffffffff1614156132ce576040517f08c379a00000000000000000000000000000000000000000000000000000000081526004016132c5906146bf565b60405180910390fd5b600073ffffffffffffffffffffffffffffffffffffffff168273ffffffffffffffffffffffffffffffffffffffff16141561333e576040517f08c379a0000000000000000000000000000000000000000000000000000000008152600401613335906145bf565b60405180910390fd5b80600160008573ffffffffffffffffffffffffffffffffffffffff1673ffffffffffffffffffffffffffffffffffffffff16815260200190815260200160002060008473ffffffffffffffffffffffffffffffffffffffff1673ffffffffffffffffffffffffffffffffffffffff168152602001908152602001600020819055508173ffffffffffffffffffffffffffffffffffffffff168373ffffffffffffffffffffffffffffffffffffffff167f8c5be1e5ebec7d5bd14f71427d1e84f3dd0314c0f7b2291e5b200ac8c7c3b9258360405161341c919061475f565b60405180910390a3505050565b60006134358484612a1d565b90507fffffffffffffffffffffffffffffffffffffffffffffffffffffffffffffffff81146134af57818110156134a1576040517f08c379a0000000000000000000000000000000000000000000000000000000008152600401613498906145df565b60405180910390fd5b6134ae848484840361325e565b5b50505050565b600073ffffffffffffffffffffffffffffffffffffffff168373ffffffffffffffffffffffffffffffffffffffff161415613525576040517f08c379a000000000000000000000000000000000000000000000000000000000815260040161351c9061469f565b60405180910390fd5b600073ffffffffffffffffffffffffffffffffffffffff168273ffffffffffffffffffffffffffffffffffffffff161415613595576040517f08c379a000000000000000000000000000000000000000000000000000000000815260040161358c9061455f565b60405180910390fd5b6135a0838383613cc6565b60008060008573ffffffffffffffffffffffffffffffffffffffff1673ffffffffffffffffffffffffffffffffffffffff16815260200190815260200160002054905081811015613626576040517f08c379a000000000000000000000000000000000000000000000000000000000815260040161361d9061461f565b60405180910390fd5b8181036000808673ffffffffffffffffffffffffffffffffffffffff1673ffffffffffffffffffffffffffffffffffffffff16815260200190815260200160002081905550816000808573ffffffffffffffffffffffffffffffffffffffff1673ffffffffffffffffffffffffffffffffffffffff16815260200190815260200160002060008282546136b9919061485c565b925050819055508273ffffffffffffffffffffffffffffffffffffffff168473ffffffffffffffffffffffffffffffffffffffff167fddf252ad1be2c89b69c2b068fc378daa952ba7f163c4a11628f55a4df523b3ef8460405161371d919061475f565b60405180910390a3613730848484613ccb565b50505050565b600073ffffffffffffffffffffffffffffffffffffffff168273ffffffffffffffffffffffffffffffffffffffff1614156137a6576040517f08c379a000000000000000000000000000000000000000000000000000000000815260040161379d9061467f565b60405180910390fd5b6137b282600083613cc6565b60008060008473ffffffffffffffffffffffffffffffffffffffff1673ffffffffffffffffffffffffffffffffffffffff16815260200190815260200160002054905081811015613838576040517f08c379a000000000000000000000000000000000000000000000000000000000815260040161382f9061459f565b60405180910390fd5b8181036000808573ffffffffffffffffffffffffffffffffffffffff1673ffffffffffffffffffffffffffffffffffffffff16815260200190815260200160002081905550816002600082825461388f919061493d565b92505081905550600073ffffffffffffffffffffffffffffffffffffffff168373ffffffffffffffffffffffffffffffffffffffff167fddf252ad1be2c89b69c2b068fc378daa952ba7f163c4a11628f55a4df523b3ef846040516138f4919061475f565b60405180910390a361390883600084613ccb565b505050565b600060198054905011613955576040517f08c379a000000000000000000000000000000000000000000000000000000000815260040161394c906146df565b60405180910390fd5b60005b601980549050811015613cc35760006001601180549050613979919061493d565b905060005b818111613cae57601181815481106139bf577f4e487b7100000000000000000000000000000000000000000000000000000000600052603260045260246000fd5b9060005260206000200160009054906101000a900473ffffffffffffffffffffffffffffffffffffffff1673ffffffffffffffffffffffffffffffffffffffff1660198481548110613a3a577f4e487b7100000000000000000000000000000000000000000000000000000000600052603260045260246000fd5b9060005260206000200160009054906101000a900473ffffffffffffffffffffffffffffffffffffffff1673ffffffffffffffffffffffffffffffffffffffff161415613c9b5781811015613b715760118281548110613ac3577f4e487b7100000000000000000000000000000000000000000000000000000000600052603260045260246000fd5b9060005260206000200160009054906101000a900473ffffffffffffffffffffffffffffffffffffffff1660118281548110613b28577f4e487b7100000000000000000000000000000000000000000000000000000000600052603260045260246000fd5b9060005260206000200160006101000a81548173ffffffffffffffffffffffffffffffffffffffff021916908373ffffffffffffffffffffffffffffffffffffffff1602179055505b6011805480613ba9577f4e487b7100000000000000000000000000000000000000000000000000000000600052603160045260246000fd5b6001900381819060005260206000200160006101000a81549073ffffffffffffffffffffffffffffffffffffffff0219169055905560006012600060198681548110613c1e577f4e487b7100000000000000000000000000000000000000000000000000000000600052603260045260246000fd5b9060005260206000200160009054906101000a900473ffffffffffffffffffffffffffffffffffffffff1673ffffffffffffffffffffffffffffffffffffffff1673ffffffffffffffffffffffffffffffffffffffff16815260200190815260200160002060006101000a81548160ff0219169083151502179055505b8080613ca690614ac8565b91505061397e565b50508080613cbb90614ac8565b915050613958565b50565b505050565b505050565b828054828255906000526020600020908101928215613d49579160200282015b82811115613d485782518260006101000a81548173ffffffffffffffffffffffffffffffffffffffff021916908373ffffffffffffffffffffffffffffffffffffffff16021790555091602001919060010190613cf0565b5b509050613d569190613d5a565b5090565b5b80821115613d73576000816000905550600101613d5b565b5090565b6000613d8a613d85846147ba565b614795565b905082815260208101848484011115613da257600080fd5b613dad848285614a32565b509392505050565b600081359050613dc481615010565b92915050565b600081519050613dd981615027565b92915050565b600082601f830112613df057600080fd5b8151613e00848260208601613d77565b91505092915050565b600081359050613e188161503e565b92915050565b600081519050613e2d8161503e565b92915050565b600060208284031215613e4557600080fd5b6000613e5384828501613db5565b91505092915050565b60008060408385031215613e6f57600080fd5b6000613e7d85828601613db5565b9250506020613e8e85828601613db5565b9150509250929050565b600080600060608486031215613ead57600080fd5b6000613ebb86828701613db5565b9350506020613ecc86828701613db5565b9250506040613edd86828701613e09565b9150509250925092565b60008060408385031215613efa57600080fd5b6000613f0885828601613db5565b9250506020613f1985828601613e09565b9150509250929050565b600060208284031215613f3557600080fd5b6000613f4384828501613dca565b91505092915050565b600060208284031215613f5e57600080fd5b600082015167ffffffffffffffff811115613f7857600080fd5b613f8484828501613ddf565b91505092915050565b600060208284031215613f9f57600080fd5b6000613fad84828501613e09565b91505092915050565b600060208284031215613fc857600080fd5b6000613fd684828501613e1e565b91505092915050565b6000613feb8383613ff7565b60208301905092915050565b61400081614971565b82525050565b61400f81614971565b82525050565b6000614020826147fb565b61402a8185614829565b9350614035836147eb565b8060005b8381101561406657815161404d8882613fdf565b97506140588361481c565b925050600181019050614039565b5085935050505092915050565b61407c81614983565b82525050565b600061408d82614806565b614097818561483a565b93506140a7818560208601614a32565b6140b081614bcd565b840191505092915050565b6140c4816149c6565b82525050565b6140d3816149ea565b82525050565b6140e2816149fc565b82525050565b6140f181614a0e565b82525050565b61410081614a20565b82525050565b600061411182614811565b61411b818561484b565b935061412b818560208601614a32565b61413481614bcd565b840191505092915050565b600061414c60238361484b565b915061415782614bde565b604082019050919050565b600061416f60228361484b565b915061417a82614c2d565b604082019050919050565b600061419260228361484b565b915061419d82614c7c565b604082019050919050565b60006141b560228361484b565b91506141c082614ccb565b604082019050919050565b60006141d8601d8361484b565b91506141e382614d1a565b602082019050919050565b60006141fb60258361484b565b915061420682614d43565b604082019050919050565b600061421e60268361484b565b915061422982614d92565b604082019050919050565b600061424160158361484b565b915061424c82614de1565b602082019050919050565b600061426460208361484b565b915061426f82614e0a565b602082019050919050565b600061428760218361484b565b915061429282614e33565b604082019050919050565b60006142aa60258361484b565b91506142b582614e82565b604082019050919050565b60006142cd60248361484b565b91506142d882614ed1565b604082019050919050565b60006142f060158361484b565b91506142fb82614f20565b602082019050919050565b600061431360228361484b565b915061431e82614f49565b604082019050919050565b600061433660258361484b565b915061434182614f98565b604082019050919050565b6000614359601f8361484b565b915061436482614fe7565b602082019050919050565b614378816149af565b82525050565b614387816149b9565b82525050565b60006020820190506143a26000830184614006565b92915050565b60006040820190506143bd6000830185614006565b6143ca6020830184614006565b9392505050565b60006060820190506143e66000830186614006565b6143f36020830185614006565b614400604083018461436f565b949350505050565b600060c08201905061441d6000830189614006565b61442a60208301886140ca565b61443760408301876140d9565b61444460608301866140f7565b614451608083018561436f565b81810360a08301526144638184614082565b9050979650505050505050565b60006040820190506144856000830185614006565b614492602083018461436f565b9392505050565b600060408201905081810360008301526144b38185614015565b90506144c2602083018461436f565b9392505050565b600060608201905081810360008301526144e38186614015565b90506144f2602083018561436f565b6144ff60408301846140e8565b949350505050565b600060208201905061451c6000830184614073565b92915050565b600060208201905061453760008301846140bb565b92915050565b600060208201905081810360008301526145578184614106565b905092915050565b600060208201905081810360008301526145788161413f565b9050919050565b6000602082019050818103600083015261459881614162565b9050919050565b600060208201905081810360008301526145b881614185565b9050919050565b600060208201905081810360008301526145d8816141a8565b9050919050565b600060208201905081810360008301526145f8816141cb565b9050919050565b60006020820190508181036000830152614618816141ee565b9050919050565b6000602082019050818103600083015261463881614211565b9050919050565b6000602082019050818103600083015261465881614234565b9050919050565b6000602082019050818103600083015261467881614257565b9050919050565b600060208201905081810360008301526146988161427a565b9050919050565b600060208201905081810360008301526146b88161429d565b9050919050565b600060208201905081810360008301526146d8816142c0565b9050919050565b600060208201905081810360008301526146f8816142e3565b9050919050565b6000602082019050818103600083015261471881614306565b9050919050565b6000602082019050818103600083015261473881614329565b9050919050565b600060208201905081810360008301526147588161434c565b9050919050565b6000602082019050614774600083018461436f565b92915050565b600060208201905061478f600083018461437e565b92915050565b600061479f6147b0565b90506147ab8282614a97565b919050565b6000604051905090565b600067ffffffffffffffff8211156147d5576147d4614b9e565b5b6147de82614bcd565b9050602081019050919050565b6000819050602082019050919050565b600081519050919050565b600081519050919050565b600081519050919050565b6000602082019050919050565b600082825260208201905092915050565b600082825260208201905092915050565b600082825260208201905092915050565b6000614867826149af565b9150614872836149af565b9250827fffffffffffffffffffffffffffffffffffffffffffffffffffffffffffffffff038211156148a7576148a6614b11565b5b828201905092915050565b60006148bd826149af565b91506148c8836149af565b9250826148d8576148d7614b40565b5b828204905092915050565b60006148ee826149af565b91506148f9836149af565b9250817fffffffffffffffffffffffffffffffffffffffffffffffffffffffffffffffff048311821515161561493257614931614b11565b5b828202905092915050565b6000614948826149af565b9150614953836149af565b92508282101561496657614965614b11565b5b828203905092915050565b600061497c8261498f565b9050919050565b60008115159050919050565b600073ffffffffffffffffffffffffffffffffffffffff82169050919050565b6000819050919050565b600060ff82169050919050565b60006149d1826149d8565b9050919050565b60006149e38261498f565b9050919050565b60006149f5826149af565b9050919050565b6000614a07826149af565b9050919050565b6000614a19826149af565b9050919050565b6000614a2b826149af565b9050919050565b60005b83811015614a50578082015181840152602081019050614a35565b83811115614a5f576000848401525b50505050565b60006002820490506001821680614a7d57607f821691505b60208210811415614a9157614a90614b6f565b5b50919050565b614aa082614bcd565b810181811067ffffffffffffffff82111715614abf57614abe614b9e565b5b80604052505050565b6000614ad3826149af565b91507fffffffffffffffffffffffffffffffffffffffffffffffffffffffffffffffff821415614b0657614b05614b11565b5b600182019050919050565b7f4e487b7100000000000000000000000000000000000000000000000000000000600052601160045260246000fd5b7f4e487b7100000000000000000000000000000000000000000000000000000000600052601260045260246000fd5b7f4e487b7100000000000000000000000000000000000000000000000000000000600052602260045260246000fd5b7f4e487b7100000000000000000000000000000000000000000000000000000000600052604160045260246000fd5b6000601f19601f8301169050919050565b7f45524332303a207472616e7366657220746f20746865207a65726f206164647260008201527f6573730000000000000000000000000000000000000000000000000000000000602082015250565b7f5377617070696e6720414341207969656c6420666f722041555344206661696c60008201527f6564000000000000000000000000000000000000000000000000000000000000602082015250565b7f45524332303a206275726e20616d6f756e7420657863656564732062616c616e60008201527f6365000000000000000000000000000000000000000000000000000000000000602082015250565b7f45524332303a20617070726f766520746f20746865207a65726f20616464726560008201527f7373000000000000000000000000000000000000000000000000000000000000602082015250565b7f45524332303a20696e73756666696369656e7420616c6c6f77616e6365000000600082015250565b7f6e6f7420656e6f75676820737472617465677920746f6b656e7320746f20756e60008201527f7374616b65000000000000000000000000000000000000000000000000000000602082015250565b7f45524332303a207472616e7366657220616d6f756e742065786365656473206260008201527f616c616e63650000000000000000000000000000000000000000000000000000602082015250565b7f616374696f6e206f6e6c7920666f722061646d696e0000000000000000000000600082015250565b7f616374696f6e206f6e6c7920666f722074686973207363206f722061646d696e600082015250565b7f45524332303a206275726e2066726f6d20746865207a65726f2061646472657360008201527f7300000000000000000000000000000000000000000000000000000000000000602082015250565b7f45524332303a207472616e736665722066726f6d20746865207a65726f20616460008201527f6472657373000000000000000000000000000000000000000000000000000000602082015250565b7f45524332303a20617070726f76652066726f6d20746865207a65726f2061646460008201527f7265737300000000000000000000000000000000000000000000000000000000602082015250565b7f6e6f206163636f756e747320746f2072656d6f76650000000000000000000000600082015250565b7f636c69656e74206e6565647320746f20696e63726561736520616c6c6f77616e60008201527f6365000000000000000000000000000000000000000000000000000000000000602082015250565b7f45524332303a2064656372656173656420616c6c6f77616e63652062656c6f7760008201527f207a65726f000000000000000000000000000000000000000000000000000000602082015250565b7f45524332303a206d696e7420746f20746865207a65726f206164647265737300600082015250565b61501981614971565b811461502457600080fd5b50565b61503081614983565b811461503b57600080fd5b50565b615047816149af565b811461505257600080fd5b5056fea2646970667358221220261fa7601e21e10e8571204d8ce76d8415cb74eb8557a9c2f534e1a27260be4c64736f6c63430008040033",
  "linkReferences": {},
  "deployedLinkReferences": {}
}