{
  "_format": "hh-sol-artifact-1",
  "contractName": "ntt54StakeDOT",
  "sourceName": "contracts/ntt54StakeDOT.sol",
  "abi": [
    {
      "inputs": [],
      "stateMutability": "nonpayable",
      "type": "constructor"
    },
    {
      "anonymous": false,
      "inputs": [
        {
          "indexed": true,
          "internalType": "address",
          "name": "owner",
          "type": "address"
        },
        {
          "indexed": true,
          "internalType": "address",
          "name": "spender",
          "type": "address"
        },
        {
          "indexed": false,
          "internalType": "uint256",
          "name": "value",
          "type": "uint256"
        }
      ],
      "name": "Approval",
      "type": "event"
    },
    {
      "anonymous": false,
      "inputs": [
        {
          "indexed": true,
          "internalType": "address",
          "name": "from",
          "type": "address"
        },
        {
          "indexed": true,
          "internalType": "address",
          "name": "to",
          "type": "address"
        },
        {
          "indexed": false,
          "internalType": "uint256",
          "name": "value",
          "type": "uint256"
        }
      ],
      "name": "Transfer",
      "type": "event"
    },
    {
      "inputs": [],
      "name": "ACA",
      "outputs": [
        {
          "internalType": "address",
          "name": "",
          "type": "address"
        }
      ],
      "stateMutability": "view",
      "type": "function"
    },
    {
      "inputs": [],
      "name": "AUSD",
      "outputs": [
        {
          "internalType": "address",
          "name": "",
          "type": "address"
        }
      ],
      "stateMutability": "view",
      "type": "function"
    },
    {
      "inputs": [],
      "name": "BNC",
      "outputs": [
        {
          "internalType": "address",
          "name": "",
          "type": "address"
        }
      ],
      "stateMutability": "view",
      "type": "function"
    },
    {
      "inputs": [],
      "name": "CASH",
      "outputs": [
        {
          "internalType": "address",
          "name": "",
          "type": "address"
        }
      ],
      "stateMutability": "view",
      "type": "function"
    },
    {
      "inputs": [],
      "name": "DEX",
      "outputs": [
        {
          "internalType": "address",
          "name": "",
          "type": "address"
        }
      ],
      "stateMutability": "view",
      "type": "function"
    },
    {
      "inputs": [],
      "name": "DOT",
      "outputs": [
        {
          "internalType": "address",
          "name": "",
          "type": "address"
        }
      ],
      "stateMutability": "view",
      "type": "function"
    },
    {
      "inputs": [],
      "name": "EVM",
      "outputs": [
        {
          "internalType": "address",
          "name": "",
          "type": "address"
        }
      ],
      "stateMutability": "view",
      "type": "function"
    },
    {
      "inputs": [],
      "name": "EVMAccounts",
      "outputs": [
        {
          "internalType": "address",
          "name": "",
          "type": "address"
        }
      ],
      "stateMutability": "view",
      "type": "function"
    },
    {
      "inputs": [],
      "name": "Homa",
      "outputs": [
        {
          "internalType": "address",
          "name": "",
          "type": "address"
        }
      ],
      "stateMutability": "view",
      "type": "function"
    },
    {
      "inputs": [],
      "name": "Honzon",
      "outputs": [
        {
          "internalType": "address",
          "name": "",
          "type": "address"
        }
      ],
      "stateMutability": "view",
      "type": "function"
    },
    {
      "inputs": [],
      "name": "KAR",
      "outputs": [
        {
          "internalType": "address",
          "name": "",
          "type": "address"
        }
      ],
      "stateMutability": "view",
      "type": "function"
    },
    {
      "inputs": [],
      "name": "KBTC",
      "outputs": [
        {
          "internalType": "address",
          "name": "",
          "type": "address"
        }
      ],
      "stateMutability": "view",
      "type": "function"
    },
    {
      "inputs": [],
      "name": "KINT",
      "outputs": [
        {
          "internalType": "address",
          "name": "",
          "type": "address"
        }
      ],
      "stateMutability": "view",
      "type": "function"
    },
    {
      "inputs": [],
      "name": "KSM",
      "outputs": [
        {
          "internalType": "address",
          "name": "",
          "type": "address"
        }
      ],
      "stateMutability": "view",
      "type": "function"
    },
    {
      "inputs": [],
      "name": "KUSD",
      "outputs": [
        {
          "internalType": "address",
          "name": "",
          "type": "address"
        }
      ],
      "stateMutability": "view",
      "type": "function"
    },
    {
      "inputs": [],
      "name": "LCDOT",
      "outputs": [
        {
          "internalType": "address",
          "name": "",
          "type": "address"
        }
      ],
      "stateMutability": "view",
      "type": "function"
    },
    {
      "inputs": [],
      "name": "LDOT",
      "outputs": [
        {
          "internalType": "address",
          "name": "",
          "type": "address"
        }
      ],
      "stateMutability": "view",
      "type": "function"
    },
    {
      "inputs": [],
      "name": "LKSM",
      "outputs": [
        {
          "internalType": "address",
          "name": "",
          "type": "address"
        }
      ],
      "stateMutability": "view",
      "type": "function"
    },
    {
      "inputs": [],
      "name": "LP_ACA_AUSD",
      "outputs": [
        {
          "internalType": "address",
          "name": "",
          "type": "address"
        }
      ],
      "stateMutability": "view",
      "type": "function"
    },
    {
      "inputs": [],
      "name": "LP_DOT_AUSD",
      "outputs": [
        {
          "internalType": "address",
          "name": "",
          "type": "address"
        }
      ],
      "stateMutability": "view",
      "type": "function"
    },
    {
      "inputs": [],
      "name": "LP_KAR_KUSD",
      "outputs": [
        {
          "internalType": "address",
          "name": "",
          "type": "address"
        }
      ],
      "stateMutability": "view",
      "type": "function"
    },
    {
      "inputs": [],
      "name": "LP_KSM_KUSD",
      "outputs": [
        {
          "internalType": "address",
          "name": "",
          "type": "address"
        }
      ],
      "stateMutability": "view",
      "type": "function"
    },
    {
      "inputs": [],
      "name": "LP_LDOT_AUSD",
      "outputs": [
        {
          "internalType": "address",
          "name": "",
          "type": "address"
        }
      ],
      "stateMutability": "view",
      "type": "function"
    },
    {
      "inputs": [],
      "name": "LP_LKSM_KUSD",
      "outputs": [
        {
          "internalType": "address",
          "name": "",
          "type": "address"
        }
      ],
      "stateMutability": "view",
      "type": "function"
    },
    {
      "inputs": [],
      "name": "LP_RENBTC_AUSD",
      "outputs": [
        {
          "internalType": "address",
          "name": "",
          "type": "address"
        }
      ],
      "stateMutability": "view",
      "type": "function"
    },
    {
      "inputs": [],
      "name": "Oracle",
      "outputs": [
        {
          "internalType": "address",
          "name": "",
          "type": "address"
        }
      ],
      "stateMutability": "view",
      "type": "function"
    },
    {
      "inputs": [],
      "name": "PHA",
      "outputs": [
        {
          "internalType": "address",
          "name": "",
          "type": "address"
        }
      ],
      "stateMutability": "view",
      "type": "function"
    },
    {
      "inputs": [],
      "name": "RENBTC",
      "outputs": [
        {
          "internalType": "address",
          "name": "",
          "type": "address"
        }
      ],
      "stateMutability": "view",
      "type": "function"
    },
    {
      "inputs": [],
      "name": "REWARD_PER_BLOCK",
      "outputs": [
        {
          "internalType": "uint256",
          "name": "",
          "type": "uint256"
        }
      ],
      "stateMutability": "view",
      "type": "function"
    },
    {
      "inputs": [],
      "name": "Schedule",
      "outputs": [
        {
          "internalType": "address",
          "name": "",
          "type": "address"
        }
      ],
      "stateMutability": "view",
      "type": "function"
    },
    {
      "inputs": [],
      "name": "TAI",
      "outputs": [
        {
          "internalType": "address",
          "name": "",
          "type": "address"
        }
      ],
      "stateMutability": "view",
      "type": "function"
    },
    {
      "inputs": [],
      "name": "TAI_3USD",
      "outputs": [
        {
          "internalType": "address",
          "name": "",
          "type": "address"
        }
      ],
      "stateMutability": "view",
      "type": "function"
    },
    {
      "inputs": [],
      "name": "TAI_DOT",
      "outputs": [
        {
          "internalType": "address",
          "name": "",
          "type": "address"
        }
      ],
      "stateMutability": "view",
      "type": "function"
    },
    {
      "inputs": [],
      "name": "TAI_KSM",
      "outputs": [
        {
          "internalType": "address",
          "name": "",
          "type": "address"
        }
      ],
      "stateMutability": "view",
      "type": "function"
    },
    {
      "inputs": [],
      "name": "VSKSM",
      "outputs": [
        {
          "internalType": "address",
          "name": "",
          "type": "address"
        }
      ],
      "stateMutability": "view",
      "type": "function"
    },
    {
      "inputs": [],
      "name": "admin",
      "outputs": [
        {
          "internalType": "address",
          "name": "",
          "type": "address"
        }
      ],
      "stateMutability": "view",
      "type": "function"
    },
    {
      "inputs": [
        {
          "internalType": "address",
          "name": "owner",
          "type": "address"
        },
        {
          "internalType": "address",
          "name": "spender",
          "type": "address"
        }
      ],
      "name": "allowance",
      "outputs": [
        {
          "internalType": "uint256",
          "name": "",
          "type": "uint256"
        }
      ],
      "stateMutability": "view",
      "type": "function"
    },
    {
      "inputs": [
        {
          "internalType": "address",
          "name": "spender",
          "type": "address"
        },
        {
          "internalType": "uint256",
          "name": "amount",
          "type": "uint256"
        }
      ],
      "name": "approve",
      "outputs": [
        {
          "internalType": "bool",
          "name": "",
          "type": "bool"
        }
      ],
      "stateMutability": "nonpayable",
      "type": "function"
    },
    {
      "inputs": [
        {
          "internalType": "address",
          "name": "account",
          "type": "address"
        }
      ],
      "name": "balanceOf",
      "outputs": [
        {
          "internalType": "uint256",
          "name": "",
          "type": "uint256"
        }
      ],
      "stateMutability": "view",
      "type": "function"
    },
    {
      "inputs": [],
      "name": "decimals",
      "outputs": [
        {
          "internalType": "uint8",
          "name": "",
          "type": "uint8"
        }
      ],
      "stateMutability": "view",
      "type": "function"
    },
    {
      "inputs": [
        {
          "internalType": "address",
          "name": "spender",
          "type": "address"
        },
        {
          "internalType": "uint256",
          "name": "subtractedValue",
          "type": "uint256"
        }
      ],
      "name": "decreaseAllowance",
      "outputs": [
        {
          "internalType": "bool",
          "name": "",
          "type": "bool"
        }
      ],
      "stateMutability": "nonpayable",
      "type": "function"
    },
    {
      "inputs": [
        {
          "internalType": "uint256",
          "name": "amount",
          "type": "uint256"
        }
      ],
      "name": "depositDOT",
      "outputs": [],
      "stateMutability": "nonpayable",
      "type": "function"
    },
    {
      "inputs": [
        {
          "internalType": "uint256",
          "name": "amount",
          "type": "uint256"
        }
      ],
      "name": "depositToTreasury",
      "outputs": [],
      "stateMutability": "nonpayable",
      "type": "function"
    },
    {
      "inputs": [],
      "name": "distributeRewards",
      "outputs": [],
      "stateMutability": "nonpayable",
      "type": "function"
    },
    {
      "inputs": [],
      "name": "distributionPermitted",
      "outputs": [
        {
          "internalType": "bool",
          "name": "",
          "type": "bool"
        }
      ],
      "stateMutability": "view",
      "type": "function"
    },
    {
      "inputs": [],
      "name": "epochNumber",
      "outputs": [
        {
          "internalType": "uint256",
          "name": "",
          "type": "uint256"
        }
      ],
      "stateMutability": "view",
      "type": "function"
    },
    {
      "inputs": [
        {
          "internalType": "address",
          "name": "spender",
          "type": "address"
        },
        {
          "internalType": "uint256",
          "name": "addedValue",
          "type": "uint256"
        }
      ],
      "name": "increaseAllowance",
      "outputs": [
        {
          "internalType": "bool",
          "name": "",
          "type": "bool"
        }
      ],
      "stateMutability": "nonpayable",
      "type": "function"
    },
    {
      "inputs": [],
      "name": "mantissa",
      "outputs": [
        {
          "internalType": "uint256",
          "name": "",
          "type": "uint256"
        }
      ],
      "stateMutability": "view",
      "type": "function"
    },
    {
      "inputs": [],
      "name": "name",
      "outputs": [
        {
          "internalType": "string",
          "name": "",
          "type": "string"
        }
      ],
      "stateMutability": "view",
      "type": "function"
    },
    {
      "inputs": [
        {
          "internalType": "address",
          "name": "",
          "type": "address"
        }
      ],
      "name": "registeredUserAccounts",
      "outputs": [
        {
          "internalType": "bool",
          "name": "",
          "type": "bool"
        }
      ],
      "stateMutability": "view",
      "type": "function"
    },
    {
      "inputs": [
        {
          "internalType": "uint256",
          "name": "_rewardPerBlock",
          "type": "uint256"
        }
      ],
      "name": "setFixedRewardPerBlock",
      "outputs": [],
      "stateMutability": "nonpayable",
      "type": "function"
    },
    {
      "inputs": [],
      "name": "startDistributing",
      "outputs": [],
      "stateMutability": "nonpayable",
      "type": "function"
    },
    {
      "inputs": [],
      "name": "stopDistributing",
      "outputs": [],
      "stateMutability": "nonpayable",
      "type": "function"
    },
    {
      "inputs": [],
      "name": "symbol",
      "outputs": [
        {
          "internalType": "string",
          "name": "",
          "type": "string"
        }
      ],
      "stateMutability": "view",
      "type": "function"
    },
    {
      "inputs": [],
      "name": "totalSupply",
      "outputs": [
        {
          "internalType": "uint256",
          "name": "",
          "type": "uint256"
        }
      ],
      "stateMutability": "view",
      "type": "function"
    },
    {
      "inputs": [
        {
          "internalType": "address",
          "name": "to",
          "type": "address"
        },
        {
          "internalType": "uint256",
          "name": "amount",
          "type": "uint256"
        }
      ],
      "name": "transfer",
      "outputs": [
        {
          "internalType": "bool",
          "name": "",
          "type": "bool"
        }
      ],
      "stateMutability": "nonpayable",
      "type": "function"
    },
    {
      "inputs": [
        {
          "internalType": "uint256",
          "name": "amount",
          "type": "uint256"
        }
      ],
      "name": "transferFeesBalance",
      "outputs": [],
      "stateMutability": "nonpayable",
      "type": "function"
    },
    {
      "inputs": [
        {
          "internalType": "address",
          "name": "from",
          "type": "address"
        },
        {
          "internalType": "address",
          "name": "to",
          "type": "address"
        },
        {
          "internalType": "uint256",
          "name": "amount",
          "type": "uint256"
        }
      ],
      "name": "transferFrom",
      "outputs": [
        {
          "internalType": "bool",
          "name": "",
          "type": "bool"
        }
      ],
      "stateMutability": "nonpayable",
      "type": "function"
    },
    {
      "inputs": [
        {
          "internalType": "address",
          "name": "",
          "type": "address"
        }
      ],
      "name": "treasuryBalances",
      "outputs": [
        {
          "internalType": "uint256",
          "name": "",
          "type": "uint256"
        }
      ],
      "stateMutability": "view",
      "type": "function"
    },
    {
      "inputs": [
        {
          "internalType": "uint256",
          "name": "",
          "type": "uint256"
        }
      ],
      "name": "userAccounts",
      "outputs": [
        {
          "internalType": "address",
          "name": "",
          "type": "address"
        }
      ],
      "stateMutability": "view",
      "type": "function"
    },
    {
      "inputs": [
        {
          "internalType": "address",
          "name": "",
          "type": "address"
        },
        {
          "internalType": "address",
          "name": "",
          "type": "address"
        }
      ],
      "name": "userBalances",
      "outputs": [
        {
          "internalType": "uint256",
          "name": "",
          "type": "uint256"
        }
      ],
      "stateMutability": "view",
      "type": "function"
    },
    {
      "inputs": [
        {
          "internalType": "uint256",
          "name": "amount",
          "type": "uint256"
        }
      ],
      "name": "withdrawDOT",
      "outputs": [],
      "stateMutability": "nonpayable",
      "type": "function"
    },
    {
      "inputs": [
        {
          "internalType": "uint256",
          "name": "amount",
          "type": "uint256"
        }
      ],
      "name": "withdrawFromTreasury",
      "outputs": [],
      "stateMutability": "nonpayable",
      "type": "function"
    }
  ],
  "bytecode": "0x6080604052610802600560006101000a81548173ffffffffffffffffffffffffffffffffffffffff021916908373ffffffffffffffffffffffffffffffffffffffff16021790555064e8d4a51000600a556000600b556001600c60006101000a81548160ff0219169083151502179055503480156200007d57600080fd5b506040518060400160405280601281526020017f4c70205374616b6520444f5420546f6b656e00000000000000000000000000008152506040518060400160405280600781526020017f4c707374444f540000000000000000000000000000000000000000000000000081525081600390805190602001906200010292919062000249565b5080600490805190602001906200011b92919062000249565b50505033600c60016101000a81548173ffffffffffffffffffffffffffffffffffffffff021916908373ffffffffffffffffffffffffffffffffffffffff1602179055506a0100000000000000000002600660006101000a81548173ffffffffffffffffffffffffffffffffffffffff021916908373ffffffffffffffffffffffffffffffffffffffff1602179055506a0100000000000000000001600760006101000a81548173ffffffffffffffffffffffffffffffffffffffff021916908373ffffffffffffffffffffffffffffffffffffffff1602179055506a0100000000000000000000600860006101000a81548173ffffffffffffffffffffffffffffffffffffffff021916908373ffffffffffffffffffffffffffffffffffffffff1602179055506200035e565b8280546200025790620002f9565b90600052602060002090601f0160209004810192826200027b5760008555620002c7565b82601f106200029657805160ff1916838001178555620002c7565b82800160010185558215620002c7579182015b82811115620002c6578251825591602001919060010190620002a9565b5b509050620002d69190620002da565b5090565b5b80821115620002f5576000816000905550600101620002db565b5090565b600060028204905060018216806200031257607f821691505b602082108114156200032957620003286200032f565b5b50919050565b7f4e487b7100000000000000000000000000000000000000000000000000000000600052602260045260246000fd5b613dd0806200036e6000396000f3fe608060405234801561001057600080fd5b50600436106103c45760003560e01c806380935aa9116101ff578063c49698151161011a578063e18b7ac5116100ad578063f589b63d1161007c578063f589b63d14610b45578063f851a44014610b63578063fb97dc4214610b81578063fd45892114610b8b576103c4565b8063e18b7ac514610acd578063f24a534e14610aeb578063f29588c714610b09578063f4145a8314610b27576103c4565b8063d58e49d6116100e9578063d58e49d614610a45578063d7f269fe14610a61578063d9dc7fcd14610a7f578063dd62ed3e14610a9d576103c4565b8063c4969815146109cf578063c6bd6a9a146109ed578063d2c03d4914610a0b578063d54dc1ab14610a27576103c4565b8063a5770a5411610192578063b3d27bc511610161578063b3d27bc514610959578063bacbd7cc14610977578063c0e58a0e14610995578063c30054c0146109b1576103c4565b8063a5770a54146108bd578063a9059cbb146108db578063adb519801461090b578063b0dadb7b1461093b576103c4565b8063975532dc116101ce578063975532dc14610847578063a1b5622614610865578063a457c2d714610883578063a4a5306d146108b3576103c4565b806380935aa9146107bd57806380bd60e8146107db57806392afbebf146107f957806395d89b4114610829576103c4565b806336e02950116102ef57806369151f4b1161028257806370a082311161025157806370a0823114610721578063783dc03d14610751578063793c0d161461076f5780637efa74811461078d576103c4565b806369151f4b146106bf5780636b80a04c146106db5780636cd83f18146106f95780636f4a2cd014610717576103c4565b80635d499e82116102be5780635d499e82146106375780636022c7ab14610655578063616d50581461067357806363555624146106a3576103c4565b806336e02950146105ad57806339509351146105cb57806341da8653146105fb5780635c8177a214610619576103c4565b806318dca9ba11610367578063280d106011610336578063280d1060146105355780632fd7d1fd14610553578063313ce56714610571578063351f5f3d1461058f576103c4565b806318dca9ba146104ab57806319550da4146104c95780631f927675146104e757806323b872dd14610505576103c4565b80630a4cad6b116103a35780630a4cad6b146104335780630bea593a1461045157806318160ddd1461046f57806318ad37af1461048d576103c4565b80628db204146103c957806306fdde03146103e5578063095ea7b314610403575b600080fd5b6103e360048036038101906103de9190612f70565b610ba9565b005b6103ed610f02565b6040516103fa91906133bd565b60405180910390f35b61041d60048036038101906104189190612eca565b610f94565b60405161042a91906133a2565b60405180910390f35b61043b610fb7565b6040516104489190613296565b60405180910390f35b610459610fc6565b6040516104669190613296565b60405180910390f35b610477610fd5565b604051610484919061359f565b60405180910390f35b610495610fdf565b6040516104a29190613296565b60405180910390f35b6104b3610fee565b6040516104c09190613296565b60405180910390f35b6104d1610ffd565b6040516104de9190613296565b60405180910390f35b6104ef61100c565b6040516104fc9190613296565b60405180910390f35b61051f600480360381019061051a9190612e7b565b61101b565b60405161052c91906133a2565b60405180910390f35b61053d61104a565b60405161054a9190613296565b60405180910390f35b61055b611059565b6040516105689190613296565b60405180910390f35b610579611068565b60405161058691906135ba565b60405180910390f35b610597611071565b6040516105a49190613296565b60405180910390f35b6105b5611077565b6040516105c29190613296565b60405180910390f35b6105e560048036038101906105e09190612eca565b611086565b6040516105f291906133a2565b60405180910390f35b6106036110bd565b6040516106109190613296565b60405180910390f35b6106216110cc565b60405161062e919061359f565b60405180910390f35b61063f6110d5565b60405161064c9190613296565b60405180910390f35b61065d6110e4565b60405161066a9190613296565b60405180910390f35b61068d60048036038101906106889190612f70565b6110f3565b60405161069a9190613296565b60405180910390f35b6106bd60048036038101906106b89190612f70565b611132565b005b6106d960048036038101906106d49190612f70565b6112d6565b005b6106e3611370565b6040516106f09190613296565b60405180910390f35b610701611376565b60405161070e9190613296565b60405180910390f35b61071f611385565b005b61073b60048036038101906107369190612e16565b6118b6565b604051610748919061359f565b60405180910390f35b6107596118fe565b6040516107669190613296565b60405180910390f35b61077761190d565b60405161078491906133a2565b60405180910390f35b6107a760048036038101906107a29190612e16565b611920565b6040516107b4919061359f565b60405180910390f35b6107c5611938565b6040516107d29190613296565b60405180910390f35b6107e361193e565b6040516107f09190613296565b60405180910390f35b610813600480360381019061080e9190612e16565b61194d565b60405161082091906133a2565b60405180910390f35b61083161196d565b60405161083e91906133bd565b60405180910390f35b61084f6119ff565b60405161085c919061359f565b60405180910390f35b61086d611a05565b60405161087a9190613296565b60405180910390f35b61089d60048036038101906108989190612eca565b611a14565b6040516108aa91906133a2565b60405180910390f35b6108bb611a8b565b005b6108c5611b40565b6040516108d29190613296565b60405180910390f35b6108f560048036038101906108f09190612eca565b611b4f565b60405161090291906133a2565b60405180910390f35b61092560048036038101906109209190612e3f565b611b72565b604051610932919061359f565b60405180910390f35b610943611b97565b6040516109509190613296565b60405180910390f35b610961611b9d565b60405161096e9190613296565b60405180910390f35b61097f611bac565b60405161098c9190613296565b60405180910390f35b6109af60048036038101906109aa9190612f70565b611bbb565b005b6109b9611d61565b6040516109c69190613296565b60405180910390f35b6109d7611d70565b6040516109e49190613296565b60405180910390f35b6109f5611d7f565b604051610a029190613296565b60405180910390f35b610a256004803603810190610a209190612f70565b611d85565b005b610a2f611e3a565b604051610a3c9190613296565b60405180910390f35b610a5f6004803603810190610a5a9190612f70565b611e49565b005b610a69612382565b604051610a769190613296565b60405180910390f35b610a87612391565b604051610a949190613296565b60405180910390f35b610ab76004803603810190610ab29190612e3f565b612397565b604051610ac4919061359f565b60405180910390f35b610ad561241e565b604051610ae29190613296565b60405180910390f35b610af361242d565b604051610b009190613296565b60405180910390f35b610b11612433565b604051610b1e9190613296565b60405180910390f35b610b2f612442565b604051610b3c919061359f565b60405180910390f35b610b4d612448565b604051610b5a9190613296565b60405180910390f35b610b6b612457565b604051610b789190613296565b60405180910390f35b610b8961247d565b005b610b9361252a565b604051610ba09190613296565b60405180910390f35b600660009054906101000a900473ffffffffffffffffffffffffffffffffffffffff1673ffffffffffffffffffffffffffffffffffffffff1663dd62ed3e33306040518363ffffffff1660e01b8152600401610c069291906132b1565b60206040518083038186803b158015610c1e57600080fd5b505afa158015610c32573d6000803e3d6000fd5b505050506040513d601f19601f82011682018060405250810190610c569190612f99565b811115610c98576040517f08c379a0000000000000000000000000000000000000000000000000000000008152600401610c8f9061353f565b60405180910390fd5b600e60003373ffffffffffffffffffffffffffffffffffffffff1673ffffffffffffffffffffffffffffffffffffffff16815260200190815260200160002060009054906101000a900460ff16610da5576001600e60003373ffffffffffffffffffffffffffffffffffffffff1673ffffffffffffffffffffffffffffffffffffffff16815260200190815260200160002060006101000a81548160ff021916908315150217905550600d339080600181540180825580915050600190039060005260206000200160009091909190916101000a81548173ffffffffffffffffffffffffffffffffffffffff021916908373ffffffffffffffffffffffffffffffffffffffff1602179055505b600660009054906101000a900473ffffffffffffffffffffffffffffffffffffffff1673ffffffffffffffffffffffffffffffffffffffff166323b872dd3330846040518463ffffffff1660e01b8152600401610e04939291906132da565b602060405180830381600087803b158015610e1e57600080fd5b505af1158015610e32573d6000803e3d6000fd5b505050506040513d601f19601f82011682018060405250810190610e569190612f06565b5080600f60006a010000000000000000000273ffffffffffffffffffffffffffffffffffffffff1673ffffffffffffffffffffffffffffffffffffffff16815260200190815260200160002060003373ffffffffffffffffffffffffffffffffffffffff1673ffffffffffffffffffffffffffffffffffffffff1681526020019081526020016000206000828254610eee9190613663565b92505081905550610eff3382612539565b50565b606060038054610f1190613848565b80601f0160208091040260200160405190810160405280929190818152602001828054610f3d90613848565b8015610f8a5780601f10610f5f57610100808354040283529160200191610f8a565b820191906000526020600020905b815481529060010190602001808311610f6d57829003601f168201915b5050505050905090565b600080610f9f612699565b9050610fac8185856126a1565b600191505092915050565b6a020000000002000000000181565b6a040000000000000000000d81565b6000600254905090565b6a010000000000000000008181565b6a020000000014000000000181565b6a01000000000000000000ac81565b6a010000000000000000008381565b600080611026612699565b905061103385828561286c565b61103e8585856128f8565b60019150509392505050565b6a030000000000000000000081565b6a010000000000000000000181565b60006012905090565b61080581565b6a010000000000000000000281565b600080611091612699565b90506110b28185856110a38589612397565b6110ad9190613663565b6126a1565b600191505092915050565b6a030000000000000000000081565b64e8d4a5100081565b6a020000000082000000008181565b6a010000000000000000000381565b600d818154811061110357600080fd5b906000526020600020016000915054906101000a900473ffffffffffffffffffffffffffffffffffffffff1681565b600c60019054906101000a900473ffffffffffffffffffffffffffffffffffffffff1673ffffffffffffffffffffffffffffffffffffffff163373ffffffffffffffffffffffffffffffffffffffff16146111c2576040517f08c379a00000000000000000000000000000000000000000000000000000000081526004016111b99061347f565b60405180910390fd5b80600960006a010000000000000000000173ffffffffffffffffffffffffffffffffffffffff1673ffffffffffffffffffffffffffffffffffffffff168152602001908152602001600020600082825461121c9190613744565b92505081905550600760009054906101000a900473ffffffffffffffffffffffffffffffffffffffff1673ffffffffffffffffffffffffffffffffffffffff1663a9059cbb33836040518363ffffffff1660e01b8152600401611280929190613379565b602060405180830381600087803b15801561129a57600080fd5b505af11580156112ae573d6000803e3d6000fd5b505050506040513d601f19601f820116820180604052508101906112d29190612f06565b5050565b600c60019054906101000a900473ffffffffffffffffffffffffffffffffffffffff1673ffffffffffffffffffffffffffffffffffffffff163373ffffffffffffffffffffffffffffffffffffffff1614611366576040517f08c379a000000000000000000000000000000000000000000000000000000000815260040161135d9061347f565b60405180910390fd5b80600a8190555050565b61080681565b6a01000000000000000000aa81565b3073ffffffffffffffffffffffffffffffffffffffff163373ffffffffffffffffffffffffffffffffffffffff16148061140c5750600c60019054906101000a900473ffffffffffffffffffffffffffffffffffffffff1673ffffffffffffffffffffffffffffffffffffffff163373ffffffffffffffffffffffffffffffffffffffff16145b61144b576040517f08c379a0000000000000000000000000000000000000000000000000000000008152600401611442906134bf565b60405180910390fd5b600c60009054906101000a900460ff1680156115135750600a54600760009054906101000a900473ffffffffffffffffffffffffffffffffffffffff1673ffffffffffffffffffffffffffffffffffffffff166370a08231306040518263ffffffff1660e01b81526004016114c09190613296565b60206040518083038186803b1580156114d857600080fd5b505afa1580156114ec573d6000803e3d6000fd5b505050506040513d601f19601f820116820180604052508101906115109190612f99565b10155b156118b4576000600d80549050111561176d576001600b60008282546115399190613663565b9250508190555060005b600d8054905081101561170857600061155a610fd5565b600a546115ca600d858154811061159a577f4e487b7100000000000000000000000000000000000000000000000000000000600052603260045260246000fd5b9060005260206000200160009054906101000a900473ffffffffffffffffffffffffffffffffffffffff166118b6565b6115d491906136ea565b6115de91906136b9565b9050600760009054906101000a900473ffffffffffffffffffffffffffffffffffffffff1673ffffffffffffffffffffffffffffffffffffffff1663a9059cbb600d8481548110611658577f4e487b7100000000000000000000000000000000000000000000000000000000600052603260045260246000fd5b9060005260206000200160009054906101000a900473ffffffffffffffffffffffffffffffffffffffff16836040518363ffffffff1660e01b81526004016116a1929190613379565b602060405180830381600087803b1580156116bb57600080fd5b505af11580156116cf573d6000803e3d6000fd5b505050506040513d601f19601f820116820180604052508101906116f39190612f06565b50508080611700906138ab565b915050611543565b50600a54600960006a010000000000000000000173ffffffffffffffffffffffffffffffffffffffff1673ffffffffffffffffffffffffffffffffffffffff16815260200190815260200160002060008282546117659190613744565b925050819055505b600560009054906101000a900473ffffffffffffffffffffffffffffffffffffffff1673ffffffffffffffffffffffffffffffffffffffff1663168d560d306000620f424061138860056040516024016040516020818303038152906040527f6f4a2cd0000000000000000000000000000000000000000000000000000000007bffffffffffffffffffffffffffffffffffffffffffffffffffffffff19166020820180517bffffffffffffffffffffffffffffffffffffffffffffffffffffffff83818316178352505050506040518763ffffffff1660e01b815260040161185b96959493929190613311565b600060405180830381600087803b15801561187557600080fd5b505af1158015611889573d6000803e3d6000fd5b505050506040513d6000823e3d601f19601f820116820180604052508101906118b29190612f2f565b505b565b60008060008373ffffffffffffffffffffffffffffffffffffffff1673ffffffffffffffffffffffffffffffffffffffff168152602001908152602001600020549050919050565b6a010000000000000000008481565b600c60009054906101000a900460ff1681565b60096020528060005260406000206000915090505481565b61080381565b6a020000000080000000008181565b600e6020528060005260406000206000915054906101000a900460ff1681565b60606004805461197c90613848565b80601f01602080910402602001604051908101604052809291908181526020018280546119a890613848565b80156119f55780601f106119ca576101008083540402835291602001916119f5565b820191906000526020600020905b8154815290600101906020018083116119d857829003601f168201915b5050505050905090565b600a5481565b6a010000000000000000000081565b600080611a1f612699565b90506000611a2d8286612397565b905083811015611a72576040517f08c379a0000000000000000000000000000000000000000000000000000000008152600401611a699061355f565b60405180910390fd5b611a7f82868684036126a1565b60019250505092915050565b600c60019054906101000a900473ffffffffffffffffffffffffffffffffffffffff1673ffffffffffffffffffffffffffffffffffffffff163373ffffffffffffffffffffffffffffffffffffffff1614611b1b576040517f08c379a0000000000000000000000000000000000000000000000000000000008152600401611b129061347f565b60405180910390fd5b611b23611385565b6001600c60006101000a81548160ff021916908315150217905550565b6a020000000000000000000181565b600080611b5a612699565b9050611b678185856128f8565b600191505092915050565b600f602052816000526040600020602052806000526040600020600091509150505481565b61080281565b6a010000000000000000008081565b6a020000000083000000008181565b600c60019054906101000a900473ffffffffffffffffffffffffffffffffffffffff1673ffffffffffffffffffffffffffffffffffffffff163373ffffffffffffffffffffffffffffffffffffffff1614611c4b576040517f08c379a0000000000000000000000000000000000000000000000000000000008152600401611c429061347f565b60405180910390fd5b600760009054906101000a900473ffffffffffffffffffffffffffffffffffffffff1673ffffffffffffffffffffffffffffffffffffffff166323b872dd3330846040518463ffffffff1660e01b8152600401611caa939291906132da565b602060405180830381600087803b158015611cc457600080fd5b505af1158015611cd8573d6000803e3d6000fd5b505050506040513d601f19601f82011682018060405250810190611cfc9190612f06565b5080600960006a010000000000000000000173ffffffffffffffffffffffffffffffffffffffff1673ffffffffffffffffffffffffffffffffffffffff1681526020019081526020016000206000828254611d579190613663565b9250508190555050565b6a010000000000000000008281565b6a010000000000000000001581565b61080781565b600860009054906101000a900473ffffffffffffffffffffffffffffffffffffffff1673ffffffffffffffffffffffffffffffffffffffff166323b872dd3330846040518463ffffffff1660e01b8152600401611de4939291906132da565b602060405180830381600087803b158015611dfe57600080fd5b505af1158015611e12573d6000803e3d6000fd5b505050506040513d601f19601f82011682018060405250810190611e369190612f06565b5050565b6a01000000000000000000ab81565b600f60006a010000000000000000000273ffffffffffffffffffffffffffffffffffffffff1673ffffffffffffffffffffffffffffffffffffffff16815260200190815260200160002060003373ffffffffffffffffffffffffffffffffffffffff1673ffffffffffffffffffffffffffffffffffffffff16815260200190815260200160002054811115611f13576040517f08c379a0000000000000000000000000000000000000000000000000000000008152600401611f0a9061349f565b60405180910390fd5b80600f60006a010000000000000000000273ffffffffffffffffffffffffffffffffffffffff1673ffffffffffffffffffffffffffffffffffffffff16815260200190815260200160002060003373ffffffffffffffffffffffffffffffffffffffff1673ffffffffffffffffffffffffffffffffffffffff1681526020019081526020016000206000828254611faa9190613744565b92505081905550600660009054906101000a900473ffffffffffffffffffffffffffffffffffffffff1673ffffffffffffffffffffffffffffffffffffffff1663a9059cbb33836040518363ffffffff1660e01b815260040161200e929190613379565b602060405180830381600087803b15801561202857600080fd5b505af115801561203c573d6000803e3d6000fd5b505050506040513d601f19601f820116820180604052508101906120609190612f06565b5061206b3382612b79565b6000600f60006a010000000000000000000273ffffffffffffffffffffffffffffffffffffffff1673ffffffffffffffffffffffffffffffffffffffff16815260200190815260200160002060003373ffffffffffffffffffffffffffffffffffffffff1673ffffffffffffffffffffffffffffffffffffffff16815260200190815260200160002054141561237f576000600e60003373ffffffffffffffffffffffffffffffffffffffff1673ffffffffffffffffffffffffffffffffffffffff16815260200190815260200160002060006101000a81548160ff02191690831515021790555060006001600d805490506121679190613744565b905060005b81811161237c573373ffffffffffffffffffffffffffffffffffffffff16600d82815481106121c4577f4e487b7100000000000000000000000000000000000000000000000000000000600052603260045260246000fd5b9060005260206000200160009054906101000a900473ffffffffffffffffffffffffffffffffffffffff1673ffffffffffffffffffffffffffffffffffffffff16141561236957818110156122fb57600d828154811061224d577f4e487b7100000000000000000000000000000000000000000000000000000000600052603260045260246000fd5b9060005260206000200160009054906101000a900473ffffffffffffffffffffffffffffffffffffffff16600d82815481106122b2577f4e487b7100000000000000000000000000000000000000000000000000000000600052603260045260246000fd5b9060005260206000200160006101000a81548173ffffffffffffffffffffffffffffffffffffffff021916908373ffffffffffffffffffffffffffffffffffffffff1602179055505b600d805480612333577f4e487b7100000000000000000000000000000000000000000000000000000000600052603160045260246000fd5b6001900381819060005260206000200160006101000a81549073ffffffffffffffffffffffffffffffffffffffff021916905590555b8080612374906138ab565b91505061216c565b50505b50565b6a010000000000000000001481565b61080081565b6000600160008473ffffffffffffffffffffffffffffffffffffffff1673ffffffffffffffffffffffffffffffffffffffff16815260200190815260200160002060008373ffffffffffffffffffffffffffffffffffffffff1673ffffffffffffffffffffffffffffffffffffffff16815260200190815260200160002054905092915050565b6a020000000003000000000181565b61080181565b6a01000000000000000000a881565b600b5481565b6a030000000000000000000181565b600c60019054906101000a900473ffffffffffffffffffffffffffffffffffffffff1681565b600c60019054906101000a900473ffffffffffffffffffffffffffffffffffffffff1673ffffffffffffffffffffffffffffffffffffffff163373ffffffffffffffffffffffffffffffffffffffff161461250d576040517f08c379a00000000000000000000000000000000000000000000000000000000081526004016125049061347f565b60405180910390fd5b6000600c60006101000a81548160ff021916908315150217905550565b6a01000000000000000000a981565b600073ffffffffffffffffffffffffffffffffffffffff168273ffffffffffffffffffffffffffffffffffffffff1614156125a9576040517f08c379a00000000000000000000000000000000000000000000000000000000081526004016125a09061357f565b60405180910390fd5b6125b560008383612d50565b80600260008282546125c79190613663565b92505081905550806000808473ffffffffffffffffffffffffffffffffffffffff1673ffffffffffffffffffffffffffffffffffffffff168152602001908152602001600020600082825461261c9190613663565b925050819055508173ffffffffffffffffffffffffffffffffffffffff16600073ffffffffffffffffffffffffffffffffffffffff167fddf252ad1be2c89b69c2b068fc378daa952ba7f163c4a11628f55a4df523b3ef83604051612681919061359f565b60405180910390a361269560008383612d55565b5050565b600033905090565b600073ffffffffffffffffffffffffffffffffffffffff168373ffffffffffffffffffffffffffffffffffffffff161415612711576040517f08c379a00000000000000000000000000000000000000000000000000000000081526004016127089061351f565b60405180910390fd5b600073ffffffffffffffffffffffffffffffffffffffff168273ffffffffffffffffffffffffffffffffffffffff161415612781576040517f08c379a00000000000000000000000000000000000000000000000000000000081526004016127789061341f565b60405180910390fd5b80600160008573ffffffffffffffffffffffffffffffffffffffff1673ffffffffffffffffffffffffffffffffffffffff16815260200190815260200160002060008473ffffffffffffffffffffffffffffffffffffffff1673ffffffffffffffffffffffffffffffffffffffff168152602001908152602001600020819055508173ffffffffffffffffffffffffffffffffffffffff168373ffffffffffffffffffffffffffffffffffffffff167f8c5be1e5ebec7d5bd14f71427d1e84f3dd0314c0f7b2291e5b200ac8c7c3b9258360405161285f919061359f565b60405180910390a3505050565b60006128788484612397565b90507fffffffffffffffffffffffffffffffffffffffffffffffffffffffffffffffff81146128f257818110156128e4576040517f08c379a00000000000000000000000000000000000000000000000000000000081526004016128db9061343f565b60405180910390fd5b6128f184848484036126a1565b5b50505050565b600073ffffffffffffffffffffffffffffffffffffffff168373ffffffffffffffffffffffffffffffffffffffff161415612968576040517f08c379a000000000000000000000000000000000000000000000000000000000815260040161295f906134ff565b60405180910390fd5b600073ffffffffffffffffffffffffffffffffffffffff168273ffffffffffffffffffffffffffffffffffffffff1614156129d8576040517f08c379a00000000000000000000000000000000000000000000000000000000081526004016129cf906133df565b60405180910390fd5b6129e3838383612d50565b60008060008573ffffffffffffffffffffffffffffffffffffffff1673ffffffffffffffffffffffffffffffffffffffff16815260200190815260200160002054905081811015612a69576040517f08c379a0000000000000000000000000000000000000000000000000000000008152600401612a609061345f565b60405180910390fd5b8181036000808673ffffffffffffffffffffffffffffffffffffffff1673ffffffffffffffffffffffffffffffffffffffff16815260200190815260200160002081905550816000808573ffffffffffffffffffffffffffffffffffffffff1673ffffffffffffffffffffffffffffffffffffffff1681526020019081526020016000206000828254612afc9190613663565b925050819055508273ffffffffffffffffffffffffffffffffffffffff168473ffffffffffffffffffffffffffffffffffffffff167fddf252ad1be2c89b69c2b068fc378daa952ba7f163c4a11628f55a4df523b3ef84604051612b60919061359f565b60405180910390a3612b73848484612d55565b50505050565b600073ffffffffffffffffffffffffffffffffffffffff168273ffffffffffffffffffffffffffffffffffffffff161415612be9576040517f08c379a0000000000000000000000000000000000000000000000000000000008152600401612be0906134df565b60405180910390fd5b612bf582600083612d50565b60008060008473ffffffffffffffffffffffffffffffffffffffff1673ffffffffffffffffffffffffffffffffffffffff16815260200190815260200160002054905081811015612c7b576040517f08c379a0000000000000000000000000000000000000000000000000000000008152600401612c72906133ff565b60405180910390fd5b8181036000808573ffffffffffffffffffffffffffffffffffffffff1673ffffffffffffffffffffffffffffffffffffffff168152602001908152602001600020819055508160026000828254612cd29190613744565b92505081905550600073ffffffffffffffffffffffffffffffffffffffff168373ffffffffffffffffffffffffffffffffffffffff167fddf252ad1be2c89b69c2b068fc378daa952ba7f163c4a11628f55a4df523b3ef84604051612d37919061359f565b60405180910390a3612d4b83600084612d55565b505050565b505050565b505050565b6000612d6d612d68846135fa565b6135d5565b905082815260208101848484011115612d8557600080fd5b612d90848285613815565b509392505050565b600081359050612da781613d55565b92915050565b600081519050612dbc81613d6c565b92915050565b600082601f830112612dd357600080fd5b8151612de3848260208601612d5a565b91505092915050565b600081359050612dfb81613d83565b92915050565b600081519050612e1081613d83565b92915050565b600060208284031215612e2857600080fd5b6000612e3684828501612d98565b91505092915050565b60008060408385031215612e5257600080fd5b6000612e6085828601612d98565b9250506020612e7185828601612d98565b9150509250929050565b600080600060608486031215612e9057600080fd5b6000612e9e86828701612d98565b9350506020612eaf86828701612d98565b9250506040612ec086828701612dec565b9150509250925092565b60008060408385031215612edd57600080fd5b6000612eeb85828601612d98565b9250506020612efc85828601612dec565b9150509250929050565b600060208284031215612f1857600080fd5b6000612f2684828501612dad565b91505092915050565b600060208284031215612f4157600080fd5b600082015167ffffffffffffffff811115612f5b57600080fd5b612f6784828501612dc2565b91505092915050565b600060208284031215612f8257600080fd5b6000612f9084828501612dec565b91505092915050565b600060208284031215612fab57600080fd5b6000612fb984828501612e01565b91505092915050565b612fcb81613778565b82525050565b612fda8161378a565b82525050565b6000612feb8261362b565b612ff58185613641565b9350613005818560208601613815565b61300e816139b0565b840191505092915050565b613022816137cd565b82525050565b613031816137df565b82525050565b613040816137f1565b82525050565b61304f81613803565b82525050565b600061306082613636565b61306a8185613652565b935061307a818560208601613815565b613083816139b0565b840191505092915050565b600061309b602383613652565b91506130a6826139c1565b604082019050919050565b60006130be602283613652565b91506130c982613a10565b604082019050919050565b60006130e1602283613652565b91506130ec82613a5f565b604082019050919050565b6000613104601d83613652565b915061310f82613aae565b602082019050919050565b6000613127602683613652565b915061313282613ad7565b604082019050919050565b600061314a601583613652565b915061315582613b26565b602082019050919050565b600061316d601f83613652565b915061317882613b4f565b602082019050919050565b6000613190602083613652565b915061319b82613b78565b602082019050919050565b60006131b3602183613652565b91506131be82613ba1565b604082019050919050565b60006131d6602583613652565b91506131e182613bf0565b604082019050919050565b60006131f9602483613652565b915061320482613c3f565b604082019050919050565b600061321c602283613652565b915061322782613c8e565b604082019050919050565b600061323f602583613652565b915061324a82613cdd565b604082019050919050565b6000613262601f83613652565b915061326d82613d2c565b602082019050919050565b613281816137b6565b82525050565b613290816137c0565b82525050565b60006020820190506132ab6000830184612fc2565b92915050565b60006040820190506132c66000830185612fc2565b6132d36020830184612fc2565b9392505050565b60006060820190506132ef6000830186612fc2565b6132fc6020830185612fc2565b6133096040830184613278565b949350505050565b600060c0820190506133266000830189612fc2565b6133336020830188613019565b6133406040830187613028565b61334d6060830186613037565b61335a6080830185613046565b81810360a083015261336c8184612fe0565b9050979650505050505050565b600060408201905061338e6000830185612fc2565b61339b6020830184613278565b9392505050565b60006020820190506133b76000830184612fd1565b92915050565b600060208201905081810360008301526133d78184613055565b905092915050565b600060208201905081810360008301526133f88161308e565b9050919050565b60006020820190508181036000830152613418816130b1565b9050919050565b60006020820190508181036000830152613438816130d4565b9050919050565b60006020820190508181036000830152613458816130f7565b9050919050565b600060208201905081810360008301526134788161311a565b9050919050565b600060208201905081810360008301526134988161313d565b9050919050565b600060208201905081810360008301526134b881613160565b9050919050565b600060208201905081810360008301526134d881613183565b9050919050565b600060208201905081810360008301526134f8816131a6565b9050919050565b60006020820190508181036000830152613518816131c9565b9050919050565b60006020820190508181036000830152613538816131ec565b9050919050565b600060208201905081810360008301526135588161320f565b9050919050565b6000602082019050818103600083015261357881613232565b9050919050565b6000602082019050818103600083015261359881613255565b9050919050565b60006020820190506135b46000830184613278565b92915050565b60006020820190506135cf6000830184613287565b92915050565b60006135df6135f0565b90506135eb828261387a565b919050565b6000604051905090565b600067ffffffffffffffff82111561361557613614613981565b5b61361e826139b0565b9050602081019050919050565b600081519050919050565b600081519050919050565b600082825260208201905092915050565b600082825260208201905092915050565b600061366e826137b6565b9150613679836137b6565b9250827fffffffffffffffffffffffffffffffffffffffffffffffffffffffffffffffff038211156136ae576136ad6138f4565b5b828201905092915050565b60006136c4826137b6565b91506136cf836137b6565b9250826136df576136de613923565b5b828204905092915050565b60006136f5826137b6565b9150613700836137b6565b9250817fffffffffffffffffffffffffffffffffffffffffffffffffffffffffffffffff0483118215151615613739576137386138f4565b5b828202905092915050565b600061374f826137b6565b915061375a836137b6565b92508282101561376d5761376c6138f4565b5b828203905092915050565b600061378382613796565b9050919050565b60008115159050919050565b600073ffffffffffffffffffffffffffffffffffffffff82169050919050565b6000819050919050565b600060ff82169050919050565b60006137d8826137b6565b9050919050565b60006137ea826137b6565b9050919050565b60006137fc826137b6565b9050919050565b600061380e826137b6565b9050919050565b60005b83811015613833578082015181840152602081019050613818565b83811115613842576000848401525b50505050565b6000600282049050600182168061386057607f821691505b6020821081141561387457613873613952565b5b50919050565b613883826139b0565b810181811067ffffffffffffffff821117156138a2576138a1613981565b5b80604052505050565b60006138b6826137b6565b91507fffffffffffffffffffffffffffffffffffffffffffffffffffffffffffffffff8214156138e9576138e86138f4565b5b600182019050919050565b7f4e487b7100000000000000000000000000000000000000000000000000000000600052601160045260246000fd5b7f4e487b7100000000000000000000000000000000000000000000000000000000600052601260045260246000fd5b7f4e487b7100000000000000000000000000000000000000000000000000000000600052602260045260246000fd5b7f4e487b7100000000000000000000000000000000000000000000000000000000600052604160045260246000fd5b6000601f19601f8301169050919050565b7f45524332303a207472616e7366657220746f20746865207a65726f206164647260008201527f6573730000000000000000000000000000000000000000000000000000000000602082015250565b7f45524332303a206275726e20616d6f756e7420657863656564732062616c616e60008201527f6365000000000000000000000000000000000000000000000000000000000000602082015250565b7f45524332303a20617070726f766520746f20746865207a65726f20616464726560008201527f7373000000000000000000000000000000000000000000000000000000000000602082015250565b7f45524332303a20696e73756666696369656e7420616c6c6f77616e6365000000600082015250565b7f45524332303a207472616e7366657220616d6f756e742065786365656473206260008201527f616c616e63650000000000000000000000000000000000000000000000000000602082015250565b7f616374696f6e206f6e6c7920666f722061646d696e0000000000000000000000600082015250565b7f7573657220646f6573206e6f74206861766520656e6f7567682066756e647300600082015250565b7f616374696f6e206f6e6c7920666f722074686973207363206f722061646d696e600082015250565b7f45524332303a206275726e2066726f6d20746865207a65726f2061646472657360008201527f7300000000000000000000000000000000000000000000000000000000000000602082015250565b7f45524332303a207472616e736665722066726f6d20746865207a65726f20616460008201527f6472657373000000000000000000000000000000000000000000000000000000602082015250565b7f45524332303a20617070726f76652066726f6d20746865207a65726f2061646460008201527f7265737300000000000000000000000000000000000000000000000000000000602082015250565b7f636c69656e74206e6565647320746f20696e63726561736520616c6c6f77616e60008201527f6365000000000000000000000000000000000000000000000000000000000000602082015250565b7f45524332303a2064656372656173656420616c6c6f77616e63652062656c6f7760008201527f207a65726f000000000000000000000000000000000000000000000000000000602082015250565b7f45524332303a206d696e7420746f20746865207a65726f206164647265737300600082015250565b613d5e81613778565b8114613d6957600080fd5b50565b613d758161378a565b8114613d8057600080fd5b50565b613d8c816137b6565b8114613d9757600080fd5b5056fea2646970667358221220a22270c5618b906b72cc051a55554942b704adfed7e9c053e49e1093cdb4216d64736f6c63430008040033",
  "linkReferences": {},
  "deployedLinkReferences": {}
}